S0260000636869702D65667233322D6C696768742D7377697463682D6578616D706C652E7333373E
S315080060000000042035BD010831BD010855B4070854
S31508006010DDD2000831BD010831BD010831BD0108D6
S3150800602031BD010831BD010831BD0108A1090208C9
S3150800603031BD01088C000020410902088D80010845
S3150800604031BD010831BD010831BD010831BD010866
S3150800605031BD010831BD010831BD010831BD010856
S3150800606031BD010831BD010831BD0108B5950008EB
S3150800607031BD010831BD010831BD010831BD010836
S3150800608031BD010831BD010831BD010831BD010826
S3150800609031BD010835AA000831BD010831BD010826
S315080060A031BD0108CDAB0008A5AB000831BD01081C
S315080060B031BD0108DDD20C08D5DC0C088DDC0C08D6
S315080060C089DC0C08A9D40C08D1DC0C0891DC0C0876
S315080060D0A9DC0C0895DC0C0835DD0C0815DD0C0868
S315080060E031BD010831BD010831BD010831BD0108C6
S315080060F0F9C0010831BD010831BD010831BD0108EB
S3150800610031BD010831BD010831BD010831BD0108A5
S3150800611031BD010831BD010831BD010831BD010895
S3150800612031BD010831BD010831BD010831BD010885
S3150800613031BD010831BD010831BD010831BD010875
S3150800614031BD010899C2010831BD010863DD0008A7
S3150800615089BA0C0831BD010841990C0847990C0801
S3150800616031BD010831BD010831BD010831BD010845
S3150800617010B5054C237833B9044B13B1044800E035
S3150800618000BF0123237010BD380A0020000000005C
S31508006190A0E10E0808B5034B1BB10349034800E00C
S315080061A000BF08BD000000003C0A0020A0E10E0860
S315080061B0A3F5803A704700BF174B002B08BF134B57
S315080061C09D46FFF7F5FF00218B460F461348144AF4
S315080061D0121ACBF027FA0E4B002B00D098470D4B1E
S315080061E0002B00D098470020002104000D000D4820
S315080061F0002802D00C4800E000BFCBF087F9200049
S31508006200290002F0CFFFCAF0F7FF00BF0000080020
S31508006210000000000000000000000420380A0020EA
S3150800622048170220000000000000000010B584B0E6
S315080062300C4600230093164B164A10210A2012F02A
S315080062400DFC154B186090B1144B0293144B019337
S3150800625001230093104B4FF480621249204613F035
S3150800626097FA114B186050B1002004B010BD0F48C2
S3150800627074F0AEFF40F2017000F054FAE4E70C48FF
S3150800628074F0A6FF40F2027000F04CFAECE700BF8B
S31508006290E40B0020440B0020340B00207C0A00206D
S315080062A0340C00204C290D08380B002028290D082D
S315080062B050290D0830B5A7B004460D4600293AD036
S315080062C02A4B1D602A4B00932346002201212948A8
S315080062D014F058FA284B1860002833D0274B00933F
S315080062E0234601220A21264814F04CFA254B186049
S315080062F080B32549254874F06BFF02F0B2FF2449A4
S31508006300244802F0CDFF73F0E5F90368D3F884302A
S31508006310984705AB03938123049330F0D9FE03A96C
S3150800632030F080FEF0B903AB93E803008EF0E8FE88
S31508006330002027B030BD184874F04AFF2F2000F01F
S31508006340F1F9BDE7154874F043FF40F2047000F018
S31508006350E9F9C3E7124874F03BFF40F2047000F015
S31508006360E1F9C6E70F4874F033FFE1E7780A002041
S31508006370D966000888290D083C0B002085640008AA
S31508006380AC290D08740A0020D4290D08E0290D0847
S31508006390F04D0D08580A00206C290D0890290D08A3
S315080063A0B8290D08002A0D0810B52C4875F0EFF924
S315080063B0C0B92B4B1B78022B35D02A4B1B680BB167
S315080063C0DB7D5BBB284B1B78002B37D0274B1B7814
S315080063D0002B33D0264B1B784BB30121254802F0FE
S315080063E04BFF20E0244C204679F0B1F91E4B18707B
S315080063F0204679F05BF91D4B1870204679F0B8F9FC
S315080064001B4B18701D4878F081FD003818BF012015
S315080064101B4B1870114875F0C4F9CAE7FA221146E1
S31508006420144802F07BFF134802F04EFF10BD3222DB
S3150800643040F2B6310F4802F071FFF4E7104B1B78B3
S315080064402BB1642211460B4802F068FFEBE740F2D5
S31508006450B6323221074802F061FFE4E768450120B9
S31508006460341C0020780A0020400B0020540A002023
S31508006470700A0020580A0020F8920120EC920120A8
S31508006480410B002008B5FFF78FFF08BD00B583B0A4
S3150800649000220092134603210948006814F08EF979
S315080064A028B1084B00221A7003B05DF804FB0648B1
S315080064B074F08EFE40F2067000F034F9F1E700BF82
S315080064C03C0B0020420B0020182A0D0810B582B09C
S315080064D00446114B186814F0FFFA78B96423009340
S315080064E00023224604210C48006814F067F90128A5
S315080064F00AD10A4B01221A7002B010BD084874F07E
S3150800650067FEFFF7C3FFE9E7064874F061FE40F24D
S31508006510057000F007F9ECE73C0B0020420B002061
S31508006520302A0D084C2A0D080388012B2BD110B5EB
S31508006530154B1B781BB1154A1278012A05D01BB1D9
S31508006540124B1B78022B17D010BD40F6B8311048F5
S3150800655074F03EFE40F6B830FFF7B8FF0B4B022248
S315080065601A700C4C0021204602F086FE4FF4FA7190
S31508006570204602F0D9FEE7E7044B00221A700648C7
S3150800658090F004F9E0E77047420B0020341C002025
S31508006590682A0D08580A002048C7012010B5037953
S315080065A0012B0CD01E4B1B781BB11E4A1278012AF0
S315080065B015D01BB11B4B1B78022B27D010BD184BCF
S315080065C01B78002BFAD1174B1B78002BF6D140F617
S315080065D0B830FFF77BFF134B01221A70EEE7FFF77F
S315080065E055FF104B00221A700F4879F0B0F848B9D9
S315080065F00E4C0121204678F071FC0021204678F0E7
S3150800660075FCDBE70A4874F0E3FDD7E7FFF73EFFC2
S31508006610044B00221A70074874F0DAFDCEE700BF73
S31508006620420B0020341C0020F8920120EC92012035
S31508006630A82A0D08E82A0D0810B582B00B4B1C686D
S3150800664013F090F90246002300930121204614F026
S31508006650B5F8012801D102B010BD054874F0B8FD9F
S3150800666040F2057000F05EF8F5E700BF740A0020F6
S31508006670082B0D0810B582B0144B1B6813B30446DB
S315080066801AF00CF980B10023019301AA21460F489C
S31508006690006812F0BBFB019B6BB14FF0E0234FF093
S315080066A08052C3F8042D06E000230122214607483C
S315080066B0006812F0B3FA08B102B010BD044874F0CD
S315080066C087FDF9E7034874F083FDF5E7340B0020EE
S315080066D0202B0D08502B0D0800B585B00123ADF809
S315080066E000300190034B03936846FFF7C3FF05B0DC
S315080066F05DF804FB2965000808B5CB6813B10846A0
S31508006700984708BD014874F063FDFAE7782B0D0831
S3150800671008B50146024874F05BFD1AF0FBF8FEE77F
S31508006720A82B0D0808B5FFF7F3FF0000124A12F070
S31508006730070F1ED0D11D21F00701C1F5A043134450
S315080067400A460E480260002141601344083B23F0C4
S3150800675007030B48036059601960991A5160136062
S31508006760084B1960084B1960084B4FF000421A6035
S3150800677070474FF4A043E4E73C1C0020506C00200F
S31508006780381C0020446C0020406C00203C6C002023
S3150800679010B500B3044613F0DDF854F8043C0F4A6C
S315080067A01268134209D054F8081C69B11AF0B2F8F5
S315080067B00B490C48CBF02EFAFEE71AF0ABF80A495B
S315080067C00848CBF027FAFEE723EA0203A3F10804F8
S315080067D013F072F900E00024204610BD3C6C00203E
S315080067E0242C0D08082C0D08D82B0D08014B186809
S315080067F0704700BF406C0020014B1868704700BF07
S31508006800446C002008B519F093FF034B1A68034B34
S315080068101A6019F09BFF08BD406C0020446C0020EC
S31508006820F8B5074613F096F8174B1B6893B14FF067
S31508006830FF3600252C4604E01B68144A12689A4263
S315080068400CD001345A68AA4200D91546B242F3D28E
S315080068501646F1E74FF0FF3600252C4613F02CF9C3
S315080068607D60BE60FC6019F063FF094B1B683B60E6
S31508006870084B1B687B61084B1B68BB61074B1B6891
S315080068803B6119F063FFF8BD506C0020381C0020EE
S31508006890406C0020486C00204C6C0020446C0020A2
S315080068A010B588B00446164B1B6893B1144B1A46AC
S315080068B01B68A342FBD351685018A0420DD06168EB
S315080068C0601883420ED02360944200D0146008B04A
S315080068D010BD01A8FFF7A4FFE8E76068014451600E
S315080068E01446ECE707480068834206D05B681944FB
S315080068F0616013681B682360E6E72060E4E700BF71
S31508006900506C0020381C002038B5044613F022F8D5
S315080069103E4B1B68EBB13E4B1B681C421CD1631EE9
S3150800692013F10A0F0BD804F1080214F0070F05D06B
S3150800693022F00703083393425AD91A4682B913F04C
S31508006940BBF8002576F098F815F0070F56D12846BB
S3150800695038BDFFF7EBFEDEE713F0AEF80025F1E7EA
S315080069602C4B1B68934202D32B490C6805E013F0A5
S31508006970A3F80025E6E721461C466368934202D23F
S315080069802368002BF7D1214B1B68A34212D00D6850
S31508006990083523680B6063689B1A102B12D9A01858
S315080069A010F0070F0AD019F0B5FF1C491C48CBF0A8
S315080069B031F9FEE713F080F80025C3E7436062600B
S315080069C0FFF76EFF626813490B689B1A0B6015493F
S315080069D009688B4201D213490B600D4B1B681343A0
S315080069E0636000232360104A13680133136000E0D4
S315080069F0002513F061F8002DA6D1A3E719F08AFF48
S31508006A000A490748CBF006F9FEE700BF381C002004
S31508006A103C6C0020406C0020506C0020442C0D0873
S31508006A20082C0D08446C0020486C0020802C0D08AA
S31508006A3038B501FB00F419B1B4FBF1F181420AD172
S31508006A402046FFF761FF054618B122460021CAF025
S31508006A50E9FD284638BD0025FBE7000080B338B5B8
S31508006A600446A0F1080550F8043C164A1268134279
S31508006A7009D050F8081C69B119F04CFF124913489F
S31508006A80CBF0C8F8FEE719F045FF11490F48CBF0DF
S31508006A90C1F8FEE723EA020340F8043C12F05AFF65
S31508006AA054F8041C0B4A13680B4413602846FFF776
S31508006AB0F7FE094A13680133136012F0FDFF38BD6B
S31508006AC0704700BF3C6C0020242C0D08082C0D08CC
S31508006AD0D82B0D08406C00204C6C0020F8B50546F4
S31508006AE00C46FFF755FED8B10746A4B1A04201D11E
S31508006AF02E461AE021460120FFF79AFF0646A0B166
S31508006B003A46A74228BF22462946CAF064FD2846C7
S31508006B10FFF7A4FF09E02846FFF7A0FF002604E0D8
S31508006B2021460120FFF784FF06463046F8BD08B522
S31508006B30FFF7EAFE08BD08B5FFF790FF08BD08B5E0
S31508006B40FFF7CCFF08BD08B50846FFF7F0FF08BDFC
S31508006B5008B50846FFF7EFFF08BD08B50846114611
S31508006B60FFF7EDFF08BD08B507F01EF910F074F938
S31508006B7074F022FB32F054FD30F080FD08BD10B5EC
S31508006B8082B00022ADF8062003689C680DF1060362
S31508006B90A047192802D020B1002000E0012002B049
S31508006BA010BD0120FBE7052B01D8002070472F20D8
S31508006BB070470000014B0360704700BF1C2F0D088B
S31508006BC0024A0260024A0260704700BF402F0D0861
S31508006BD01C2F0D08024A0260024A0260704700BF75
S31508006BE02C2F0D08202E0D08024A0260024A026068
S31508006BF0704700BFFC2E0D08342E0D08034A0260AC
S31508006C00034A0260034A0260704700BF984E0E08A6
S31508006C10E04D0E08C82E0D08024A0260024A0260BC
S31508006C20704700BFC0510E08E82E0D0808B5024887
S31508006C3078F0C0FC08BD00BF9CA3012008B5024837
S31508006C4078F0BFFC08BD00BF9CA3012008B502F080
S31508006C50FFFF08BD038848F20102934204D048F2B8
S31508006C600202934212D0704790F90820012AF6D101
S31508006C7010B5094874F0ACFA47F00EF803685C6979
S31508006C800023064A40F6B831A04710BD90F90930EE
S31508006C90012BE8D1ECE700BFC02C0D084D6C0008AD
S31508006CA0012800D0704708B54FF6FF73994200D007
S31508006CB008BD0948094B0360094B0360002343607C
S31508006CC08360C3600374436103764376054A0649C5
S31508006CD0C9F05FFBECE700BF146F0020902E0D088B
S31508006CE0300D0E08000000206DE5070810B50446B3
S31508006CF0034B03603821C9F051FB204610BD00BF85
S31508006D001C2F0D0810B50446044B0360044B0360A2
S31508006D103821C9F043FB204610BD00BF402F0D089F
S31508006D201C2F0D0810B50446044B0360044B036082
S31508006D300421C9F033FB204610BD00BF2C2F0D08D7
S31508006D40202E0D0810B50446044B0360044B03605F
S31508006D500821C9F023FB204610BD00BFFC2E0D08F4
S31508006D60342E0D0808B5104B0360D0F8F4317BB902
S31508006D70D0F8483173B9D0F804316BB9D0F89830E7
S31508006D8063B9436D63B9036963B9084B036008BD0A
S31508006D90CAF0FEF9CAF0FCF9CAF0FAF9CAF0F8F92D
S31508006DA0CAF0F6F9CAF0F4F928400E08A42D0D0821
S31508006DB038B504460C4B036043688BB1437C4BB92A
S31508006DC0C5683DB135B12B681B68284698472846E3
S31508006DD072F002FD0023E360637423742372636018
S31508006DE0024B2360204638BD10CC0D08902E0D08A6
S31508006DF0406818B108B574F083F908BD03207047D8
S31508006E00406858B100B583B04FF0000C8DF807C044
S31508006E1032B174F047F903B05DF804FB03207047FC
S31508006E200BB12F20F7E70DF10702F2E770B582B034
S31508006E300446A54BD3E88F3F13F0010F3FD0A34B71
S31508006E40D3E88F3F13F0010F47D0A14BD3E88F3F0C
S31508006E5013F0010F4FD09F4BD3E88F3F13F0010F6C
S31508006E6067D09D4BD3E88F3F13F0010F00F0CF801A
S31508006E709A4BD3E88F3F13F0010F00F0DC80984B54
S31508006E80D3E88F3F13F0010F00F0EB802369002B46
S31508006E9000F0F680236B002B00F0F780636B002B65
S31508006EA000F006818F4D2169284686F055F8284658
S31508006EB085F05EF8002800F0598102B070BD82485E
S31508006EC0C9F06EFA0028BAD07F48C9F075FA864A22
S31508006ED086498748C9F05DFAB1E77C48C9F060FA87
S31508006EE00028B2D07948C9F067FA7F4A81498248B2
S31508006EF0C9F04FFAA9E77648C9F052FA0028AAD08D
S31508006F007E4D7F4B2B607F4B2B6000236B602B7273
S31508006F10EB602B616B61AB61EB612B6285F824300A
S31508006F206B48C9F049FA704A77492846C9F031FAD8
S31508006F3091E76848C9F034FA002892D06948734B3B
S31508006F40036003238380C38000258560704B03603C
S31508006F50C56014230093022300F1280200F12C01D6
S31508006F60103044F0A3FB2B46002B01DB013BFBE76B
S31508006F70684A142300930223111DA2F1180044F055
S31508006F8095FB0023002B01DB013BFBE7624A282324
S31508006F9000930223111DA2F1180044F087FB002379
S31508006FA0002B01DB013BFBE75C4A14230093022319
S31508006FB0111DA2F1180044F079FB0023002B01DB18
S31508006FC0013BFBE7564A482300930223111DA2F111
S31508006FD0180044F06BFB0023002B01DB013BFBE7A9
S31508006FE0504A2C2300930223111DA2F1180044F0E5
S31508006FF05DFB0023002B01DB013BFBE73548C9F0AD
S31508007000DBF9394A48493748C9F0C3F929E732480C
S31508007010C9F0C6F900283FF42BAF444D444B2B600A
S31508007020444B2B602C48C9F0C7F92F4A42492846D9
S31508007030C9F0AFF91CE72948C9F0B2F900283FF4AE
S315080070401EAF3E4D3E4B2B603E4B2B603E4B2B609E
S315080070502248C9F0B1F9244A3C492846C9F099F9A9
S315080070600DE71F48C9F09CF900283FF40FAF1C48EC
S31508007070C9F0A2F91C4A36493648C9F08AF905E723
S315080070801B4B354A5A60236104E722691A4B5B6831
S3150800709033B1032000287FF410AF174B2363FDE6B6
S315080070A0154B0020187258745A60D8601874F1E7A6
S315080070B02569124B5B68002B50D0032000287FF40B
S315080070C0FCAE0E4B6363EDE60C6F0020086F0020E4
S315080070D0DC6E0020706C0020686C00205C6C002060
S315080070E0586C0020746C002000000020E96B000832
S315080070F01C000020B16D000808000020E06E00208A
S31508007100542E0D0838430E08B1710008A42D0D0839
S3150800711028400E08E06C0020246D0020906D0020A9
S31508007120D46D0020806E0020656D00086C6C002010
S31508007130202E0D082C2F0D08D56B0008606C00203A
S31508007140C82E0D08E04D0E08984E0E08FD6B000877
S31508007150196C000804000020584501200F4E3368BA
S315080071609B6A3046984775600020A7E70C4BE36199
S31508007170236983B10B4A5360002000287FF49DAE33
S31508007180084B63614BF0FEFC2062074B6362074BBA
S31508007190A361002091E62F20EFE700BFE06E0020F4
S315080071A0746C0020606C0020040000206C6C0020C9
S315080071B010B50446124B0360436823B1104B9B6A13
S315080071C098470023636000222262E06918B172F0D2
S315080071D003FB0023E3610022A261606918B172F023
S315080071E0FBFA0023636100222261E06818B172F09D
S315080071F0F3FA0023E360034B2360204610BD00BF6B
S3150800720038430E08542E0D0810B5134B0360D0F8FA
S31508007210F431ABB90446D0F848319BB9D0F80431FB
S3150800722093B9D0F898308BB9436D8BB903698BB98C
S315080072300A4B03604FF41A71C9F0B0F8204610BD26
S31508007240C9F0A6FFC9F0A4FFC9F0A2FFC9F0A0FFC4
S31508007250C9F09EFFC9F09CFF28400E08A42D0D0812
S3150800726010B50446144B0360436823B1124B9B6A5E
S3150800727098470023636000222262E06918B172F021
S31508007280ABFA0023E3610022A261606918B172F0CB
S31508007290A3FA0023636100222261E06818B172F044
S315080072A09BFA0023E360054B236028212046C9F09A
S315080072B075F8204610BD00BF38430E08542E0D0839
S315080072C038B504460E4B036043688BB1437C4BB913
S315080072D0C5683DB135B12B681B68284698472846CE
S315080072E072F07AFA0023E36063742374237263608E
S315080072F0044B236014212046C9F050F8204638BDB7
S3150800730010CC0D08902E0D0808B50A4873F060FFDA
S31508007310094879F02EFA00B108BD0121064878F02F
S315080073204BFB0028F8D1054873F052FF044878F063
S315080073301FF9F1E7E82C0D08F8920120082D0D0831
S315080073409CA3012030B585B00446414941480BF05D
S31508007350BFFF414D284673F03BFF21463F4873F077
S3150800736037FF284673F034FF2FF0B2FE034600B10C
S315080073700433184646F014FC2FF0AAFE46F014FB18
S31508007380374873F025FF0021084644F011F908B183
S3150800739005B030BD334B1B78002B41D000200028A8
S315080073A0F6D12146304877F0A9FDFFF7ADFF002852
S315080073B0EED12E4874F0E4F92D4BD3E88F3F13F045
S315080073C0010F36D02B4C204677F090F92A4D2C63C6
S315080073D02846FFF72BFD0024019402940394274BBB
S315080073E00193274B0293274878F038F9039001ABAD
S315080073F0AB62294624488FF061FA1C4D284674F082
S31508007400D0F922462149284674F0DAF8204873F064
S31508007410DFFE284674F080FA0028B9D10020B7E7C5
S31508007420104D284674F0D0FAB0FA80F35B092B7039
S31508007430B5E70F48C8F0B4FF0028C3D00C48C8F019
S31508007440BBFF144A14490C48C8F0A3FFBAE700BFAB
S315080074500DB6040805B60408242D0D08582D0D0888
S31508007460642D0D0860450120EC9201206845012035
S31508007470106F0020146F0020240000202D6C0008D7
S315080074803D6C0008F892012048C70120556C000899
S31508007490742D0D0800000020C16B000808B573F0B4
S315080074A095FB08BDB0F5803F2CBF00200120704732
S315080074B04068E0B170B584B01D4600238DF80F30E2
S315080074C0BAB100230293019302AB00932B8873F0A1
S315080074D0CBFD0446192800D030B9029E3046FFF786
S315080074E0E1FF68B900262E80204604B070BD03204F
S315080074F070472B880BB12F20F7E70DF10F02E0E755
S31508007500B6B2F0E710B50446054B0360054B0360B9
S31508007510054B03600821C8F041FF204610BD00BF97
S31508007520984E0E08E04D0E08C82E0D0810B50446F4
S31508007530044B0360044B03600421C8F02FFF204668
S3150800754010BD00BFC0510E08E82E0D0808B54FF64D
S31508007550FF710120FFF7A4FB08BD0000024A026084
S31508007560024A0260704700BF90300D087C300D0853
S3150800757008B5034A02211D2044F090F908BD00BF52
S315080075804C2F0D0808B5034A02211D2044F086F940
S3150800759008BD00BF5C2F0D0808B5044A02211D204E
S315080075A044F07CF9024BFF221A7008BD6C2F0D08B7
S315080075B05C00002008B5038803B108BD102072F0EE
S315080075C0E3F8024630B10023036043608360C3607A
S315080075D00123038006239360084B1B7843B10023DD
S315080075E006490B7053600649064874F0FDF8E4E74F
S315080075F00123536001490B70F5E700BF306F002087
S315080076002D8000086845012001B300B585B00846FD
S31508007610002300930193029303938DF804200C4BE7
S31508007620994205D00B4B98420AD005B05DF804FB89
S31508007630012AF7D1084B03936846FFF71BF8F4E7CE
S31508007640064B03936846FFF715F8EEE7704700BF49
S31508007650284D0D08104D0D08B57500089D650008E4
S3150800766010B50446044B0360044B03600821C8F0B8
S3150800767095FE204610BD00BF90300D087C300D08E1
S31508007680012800D070474FF6FF739942FAD130B5FA
S3150800769085B00F4D0023039302930E4B01930223EB
S315080076A000930D4B0D4A0121284624F033FC0C4C5F
S315080076B022460C492846C8F06CFE0B480B4B036063
S315080076C00B4B036022460B49C8F063FE05B030BD7C
S315080076D0346F0020F9760008857500087175000872
S315080076E00000002051BF0208506F00207C300D08B2
S315080076F090300D085D75000870B50446244A0221CD
S315080077001D2044F0CBF8237D224A13700B2B10D092
S31508007710204B1B78FE2B23D015D8022B32D846F0E7
S31508007720BBFA03685D6923461B4A41F28831A847BC
S3150800773070BDA37D194A02211D2044F0AFF8A27D31
S31508007740144B1A70E4E7FF2B1CD146F0A5FA036820
S315080077509B692246104998470E4BFF221A70E7E7A5
S3150800776046F09AFA03689B690B4D224629469847C4
S3150800777046F092FA03685E6923462A464FF47A7100
S31508007780B047D5E7064A02211D2044F087F8CFE71F
S31508007790882F0D085C00002099750008A02F0D0899
S315080077A0F42F0D0810B50C49FEF784FD28B900F032
S315080077B04FFC044648B9204610BD0446074873F0F6
S315080077C007FD2046FEF7AEFFF1E7054873F000FD1A
S315080077D02046FEF7A7FFEEE7346F00200C300D08B1
S315080077E02C300D0830B585B004681148FFF7DAFF6C
S315080077F0B0B9FEF721FF0F4873F0EAFC4FF0FF32ED
S315080078006946204611F0D0FB0128F7D16946084899
S31508007810FEF772FF00226946204611F0C5FBF3E722
S315080078200546054873F0D4FC2846FEF77BFFE0E7DB
S31508007830506F002060300D0848300D0808B5024921
S31508007840FEF7F4FC08BD00BFE577000808B54FF65B
S31508007850FF710120FFF714FF08BD00002DE9F04174
S3150800786084B00F4616461D464468D0F80880A3B271
S315080078700093230C144A02211D2044F00FF8072C0C
S3150800788004D0032C11D004B0BDE8F0812B78039600
S31508007890029301971FFA88F300934FEA18430B4A9D
S315080078A002211D2043F0FAFFEDE72B780396029399
S315080078B001971FFA88F300934FEA1843044A0221F6
S315080078C01D2043F0EBFFDEE79C300D08BC300D08A9
S315080078D010310D08704701207047042070470000DA
S315080078E09FED037B80ED007B00220272704700BF8C
S315080078F000000000000000009FED037B80ED007B88
S3150800790000220272704700BF00000000000000005D
S3150800791010B5044620220021C9F084FE0023236105
S315080079206361A361204610BD002070470000000077
S315080079309FED037B80ED007B704700BFAFF30080AF
S315080079400000000000000000012070470120704779
S31508007950024A0260024A0260704700BF38D20D0828
S31508007960B4320D08704710B540680468A468A0478B
S3150800797010BD08B540680368DB68984708BD08B5B8
S3150800798083683BB100225A6283681B8913F0400F53
S3150800799000D18260406803681B69984708BD08B52E
S315080079A0406803685B69984708BD704770470000E0
S315080079B000228260024AC260024A8260704700BFA3
S315080079C0897A0008E179000800228260024AC260CA
S315080079D0024A8260704700BF757A0008FB79000882
S315080079E0012A02D1016000207047022AFBD0032A2F
S315080079F0F9D0012AF7D10160F5E7012A02D1016021
S31508007A0000207047022AFBD0032AF9D0012AF7D1B1
S31508007A100160F5E7012A02D1016000207047022AB9
S31508007A2005D0032AF9D0012AF7D10160F5E70B68DA
S31508007A300360F2E7012A02D1016000207047022A9A
S31508007A4005D0032AF9D0012AF7D10160F5E70B68BA
S31508007A500360F2E7012A02D1016000207047022A7A
S31508007A6005D0032AF9D0012AF7D10160F5E70B689A
S31508007A700360F2E708B50B68024A0121002043F0CB
S31508007A800DFF08BD54310D0808B5034A0221002030
S31508007A9043F004FF08BD00BF70310D0808B510B1EA
S31508007AA071F09AFE08BD024A012143F0F7FEF9E794
S31508007AB088310D0810B584B0094B0193094B029320
S31508007AC003F5F653D3F884310393074C01A92046EE
S31508007AD020F0D0F9054BE363054B636304B010BD92
S31508007AE0E0EA012088D80120B48D002081900008A2
S31508007AF09D7A00080E4BD3E88F3F13F0010F01D093
S31508007B000C48704710B50A48C8F04AFC08B9094835
S31508007B1010BD084C084B2360084B23600448C8F086
S31508007B204BFC074A07492046C8F033FCEFE700BF7D
S31508007B30586F00205C6F0020B4320D0838D20D084B
S31508007B40000000205179000808B5C9F021FB0000A3
S31508007B5008B5094BD3E88F3F13F0010F09D1064842
S31508007B60C8F01EFC28B1054845F0DEFE0248C8F0FC
S31508007B7023FCC9F00DFB00BF606F0020646F002076
S31508007B8008B50369B3F1FF3F02D00133036108BDAD
S31508007B90C9F0FEFA10B582B00446194B036001908D
S31508007BA0DB68984703E0101F03689B689847A2683C
S31508007BB0231D9A4203D01046002AF4D1F4E723681D
S31508007BC01B692046984723699BB923460D4A43F803
S31508007BD0042B5A689A420ED1616871B15A6862B12B
S31508007BE04A6061681160002262605A60204602B0ED
S31508007BF010BDC9F0CDFAC9F0CBFAC9F0C9FA00BF71
S31508007C0078320D083C320D0808B5036913B1013BFB
S31508007C10036108BDC9F0BCFA10B504460B4B0360F6
S31508007C2083686BB100225A62806843F021FF20B94D
S31508007C30A3681B8913F0400F02D0A06844F00FF820
S31508007C400023A360024B2360204610BDF0320D08C6
S31508007C50D0320D0810B504460D4B036083686BB12E
S31508007C6000225A62806843F003FF20B9A3681B8983
S31508007C7013F0400F02D0A06843F0F1FF0023A36081
S31508007C80044B23600C212046C8F088FB204610BD13
S31508007C90F0320D08D0320D0810B582B004461B4BE1
S31508007CA003600190DB68984703E0101F03689B6830
S31508007CB09847A268231D9A4203D01046002AF4D199
S31508007CC0F4E723681B69204698472369BBB923460E
S31508007CD00F4A43F8042B5A689A4212D1616891B147
S31508007CE05A6882B14A6061681160002262605A600F
S31508007CF018212046C8F052FB204602B010BDC9F034
S31508007D0047FAC9F045FAC9F043FA00BF78320D08B8
S31508007D103C320D0810B504460C4B40F8243B8368EA
S31508007D2013B103220146984704F11400836813B17E
S31508007D30032201469847201D836813B10322014692
S31508007D409847034B2360204610BD00BF2C330D080F
S31508007D5010330D0810B504460E4B40F8243B8368D3
S31508007D6013B103220146984704F11400836813B13E
S31508007D70032201469847201D836813B10322014652
S31508007D809847054B236038212046C8F007FB204654
S31508007D9010BD00BF2C330D0810330D0870B506460C
S31508007DA00C68002C36D02546294B45F8803B294BD4
S31508007DB0C4F88030A86808B146F07EF90023AB60A5
S31508007DC0686808B146F078F900236B60224BC4F85E
S31508007DD08030A06C08B146F06FF90023A364251D16
S31508007DE01E4B6360AB686BB100225A62A86843F009
S31508007DF03FFE20B9AB681B8913F0400F02D0A86874
S31508007E0043F02DFF0023AB60154B636023602046CB
S31508007E1071F0E2FC3468D4B12046124B40F8243B9A
S31508007E20836813B103220146984704F11400836856
S31508007E3013B1032201469847201D836813B1032214
S31508007E4001469847084B2360204671F0C5FC70BD73
S31508007E5044AE0D08D4DB0D0818320D08F0320D08B3
S31508007E60D0320D082C330D0810330D0870B50646B0
S31508007E700C68002C36D02546294B45F8803B294B03
S31508007E80C4F88030A86808B146F016F90023AB603C
S31508007E90686808B146F010F900236B60224BC4F8F5
S31508007EA08030A06C08B146F007F90023A364251DAD
S31508007EB01E4B6360AB686BB100225A62A86843F038
S31508007EC0D7FD20B9AB681B8913F0400F02D0A8680C
S31508007ED043F0C5FE0023AB60154B63602360204664
S31508007EE071F07AFC3468D4B12046124B40F8243B32
S31508007EF0836813B103220146984704F11400836886
S31508007F0013B1032201469847201D836813B1032243
S31508007F1001469847084B2360204671F05DFC70BD0A
S31508007F2044AE0D08D4DB0D0818320D08F0320D08E2
S31508007F30D0320D082C330D0810330D0870B50646DF
S31508007F400C68002C36D02546294B45F8803B294B32
S31508007F50C4F88030A86808B146F0AEF80023AB60D4
S31508007F60686808B146F0A8F800236B60224BC4F88D
S31508007F708030A06C08B146F09FF80023A364251D45
S31508007F801E4B6360AB686BB100225A62A86843F067
S31508007F906FFD20B9AB681B8913F0400F02D0A868A3
S31508007FA043F05DFE0023AB60154B636023602046FB
S31508007FB071F012FC3468D4B12046124B40F8243BC9
S31508007FC0836813B103220146984704F114008368B5
S31508007FD013B1032201469847201D836813B1032273
S31508007FE001469847084B2360204671F0F5FB70BDA3
S31508007FF044AE0D08D4DB0D0818320D08F0320D0812
S31508008000D0320D082C330D0810330D0810B5044670
S31508008010044B0360044B03600421C8F0BFF92046F3
S3150800802010BD00BF38D20D08B4320D0808B530B1FE
S31508008030034682680188044820F08CF808BD034A84
S31508008040012143F02BFCF9E7B48D0020BC310D0863
S3150800805008B500220249034873F0C6FB002008BD94
S31508008060B57A00086845012000B583B00191836898
S315080080702BB1C36801A9984703B05DF804FBC8F0A3
S31508008080D1F908B590F8343003B108BD012380F85A
S31508008090343011461430FFF7E7FFF6E710B5846869
S315080080A014B1C468A04710BDC8F0BCF911461A46F9
S315080080B090F8343093B900B583B0012380F8343092
S315080080C0049B33B18E211430FFF7CEFF03B05DF861
S315080080D004FB01AB0430FFF7E1FFF7E7704738B55B
S315080080E00446002383608B6833B10D460222984705
S315080080F0EB68E360AB68A360204638BD38B5044634
S31508008100002383608B6833B10D4602229847EB68DB
S31508008110E360AB68A360204638BD00000022826099
S315080081200160024AC260024A826070473D7F0008C9
S31508008130157A0008002282600160024AC260024A7B
S31508008140826070476D7E0008357A000800228260DA
S315080081500160024AC260024A826070479D7D00083B
S31508008160557A000838B50446002383608B6833B116
S315080081700D4602229847EB68E360AB68A360204689
S3150800818038BD08B5014602986DF052FB08BD0000DF
S315080081902DE9F043A1B0064688469946ADF8182061
S315080081A00023ADF81A300623079302230893012308
S315080081B08DF82430382071F0E7FA0446002830D0CC
S315080081C0289918A8FFF78BFF299914A8FFF796FF97
S315080081D0002512957F4B236020467F4B40F8043BD1
S315080081E018A9FFF77CFF14A904F11400FFF786FF0E
S315080081F010A904F12400FFF7B5FF84F83450129B48
S315080082001BB1032210A908469847169B1BB10322E7
S3150800821014A9084698471A9B1BB1032218A90846B1
S315080082209847002305930594002C57D021460AA8A1
S31508008230FFF774FF04F124051CAF0AA93846FFF7B7
S3150800824091FF02AB97E8030083E8030095E8030073
S3150800825087E8030093E8030085E803001E9BAA68E5
S315080082601E92AB601F9BEA681F92EB601E9B1BB1B8
S3150800827003223946384698470C9B1BB103220AA9A4
S31508008280084698472A9B1D78942071F07DFA074680
S3150800829020B12B463246214633F04CFB002304938B
S315080082A00497EFB1002206A9384633F0CDFD0546FE
S315080082B0002878D0ADB92B9B1B788DF8383013B1D0
S315080082C02B9B5B680F930EAA4146384633F0B6FEE1
S315080082D0054630B900250595049502E00B253EE0D4
S315080082E00B25049C002C38D0002C36D026463B4B58
S315080082F046F8803B3A4BC4F88030B06808B145F080
S31508008300DBFE0023B360706808B145F0D5FE002394
S315080083107360344BC4F88030A06C08B145F0CCFECD
S315080083200023A364261D304B6360B3686BB100223B
S315080083305A62B06843F09CFB20B9B3681B8913F0F6
S31508008340400F02D0B06843F08AFC0023B360274B85
S3150800835063602360204671F03FFA00230493059C6E
S31508008360DCB1D4B120461C4B40F8243B836813B1DA
S3150800837003220146984704F11400836813B10322C7
S3150800838001469847201D836813B103220146984782
S31508008390104B2360204671F01FFA002305932846E8
S315080083A021B0BDE8F083384633F0B8FC80B1CDF88B
S315080083B0009001224FF0FF33FFF7E3FE0546002841
S315080083C07FF478AF2A99384633F09FFD054671E762
S315080083D003256FE710330D082C330D0844AE0D083E
S315080083E0D4DB0D0818320D08F0320D08D0320D080E
S315080083F02DE9F0438FB004460D4616461F460DF18B
S31508008400140816994046FFF76AFE0DF124091799D4
S315080084104846FFF773FE00238DF83430189B039304
S315080084200DAB0293CDF80490CDF800803B4632465A
S3150800843029462046FFF7ACFE04460B9B1BB10322D8
S31508008440494648469847079B1BB1032205A9084693
S31508008450984720460FB0BDE8F083000070B590B08D
S3150800846005461E4602230024ADF82840ADF82A40EA
S3150800847006200B900C938DF83430ADF82A205D4B0E
S31508008480049305AB059306938DF81C4008945A4B44
S315080084900493ADF824208DF81C10942071F074F91B
S315080084A0044620B100232A46194633F043FA00232E
S315080084B003930394CCB100228DF83C200AA92046E8
S315080084C033F0C2FC0546002854D07DB904A80E90A6
S315080084D0049BDB6898470EA9204633F05BFD0546EA
S315080084E00E9803681B69984700E00B25002C38D0C6
S315080084F0002C36D02646414B46F8803B404BC4F804
S315080085008030B06808B145F0D7FD0023B3607068C5
S3150800851008B145F0D1FD002373603A4BC4F88030AA
S31508008520A06C08B145F0C8FD0023A364261D364B90
S315080085306360B3686BB100225A62B06843F098FA78
S3150800854020B9B3681B8913F0400F02D0B06843F016
S3150800855086FB0023B3602D4B63602360204671F0D1
S315080085603BF900230393244B049304A80290DB6889
S31508008570984718E0204633F0D1FB70B100960122E7
S315080085804FF0FF33FFF7FDFD054600289DD10FA9E3
S31508008590204633F0BAFC054697E7032595E7101FF2
S315080085A003689B689847069A05AB9A4203D010461B
S315080085B0002AF4D1F4E7049B1B6904A89847089B92
S315080085C093B90C4B0493069A05AB9A420ED1059AB9
S315080085D072B1069B63B15360059A1A60002305932E
S315080085E00693284610B070BDC8F0D2FDC8F0D0FD7D
S315080085F0C8F0CEFD3C320D0878320D0844AE0D08A1
S31508008600D4DB0D0818320D08F0320D08D0320D08EB
S3150800861008B5014602986DF0F4F808BD2DE9F04357
S31508008620A1B00646884699460123ADF818200022CF
S31508008630ADF81A200622079208938DF824303820C0
S3150800864071F0A2F80446002830D0289918A8FFF738
S3150800865046FD299914A8FFF751FD00251295804B70
S31508008660236020467F4B40F8043B18A9FFF737FDE7
S3150800867014A904F11400FFF741FD10A904F1240020
S31508008680FFF770FD84F83450129B1BB1032210A922
S3150800869008469847169B1BB1032214A90846984713
S315080086A01A9B1BB1032218A908469847002305936D
S315080086B00594002C57D021460AA8FFF73BFD04F184
S315080086C024051CAF0AA93846FFF74CFD02AB97E80C
S315080086D0030083E8030095E8030087E8030093E8AE
S315080086E0030085E803001E9BAA681E92AB601F9BC9
S315080086F0EA681F92EB601E9B1BB103223946384677
S3150800870098470C9B1BB103220AA9084698472A9B3F
S315080087101D78942071F038F8074620B12B4632466A
S31508008720214633F007F9002304930497EFB100229A
S3150800873006A9384633F088FB0546002878D0ADB937
S315080087402B9B1B788DF8383013B12B9B5B680F93E6
S315080087500EAA4146384633F071FC054630B9002565
S315080087600595049502E00B253EE00B25049C002C9C
S3150800877038D0002C36D026463B4B46F8803B3B4B40
S31508008780C4F88030B06808B145F096FC0023B360A1
S31508008790706808B145F090FC00237360344BC4F848
S315080087A08030A06C08B145F087FC0023A364261D21
S315080087B0304B6360B3686BB100225A62B06843F00D
S315080087C057F920B9B3681B8913F0400F02D0B06877
S315080087D043F045FA0023B360274B636023602046C5
S315080087E070F0FAFF00230493059CDCB1D4B120464F
S315080087F01C4B40F8243B836813B103220146984773
S3150800880004F11400836813B1032201469847201D1A
S31508008810836813B1032201469847114B236020460B
S3150800882070F0DAFF00230593284621B0BDE8F083EF
S31508008830384633F073FA80B1CDF8009001224FF034
S31508008840FF33FFF7E5FE054600287FF478AF2A993F
S31508008850384633F05AFB054671E703256FE700BF34
S3150800886010330D082C330D0844AE0D08D4DB0D0863
S3150800887018320D08F0320D08D0320D082DE9F043F4
S315080088808FB004460D4616461F460DF11408169974
S315080088904046FFF724FC0DF1240917994846FFF7CF
S315080088A02DFC00238DF83430189B03930DAB0293EF
S315080088B0CDF80490CDF800803B463246294620463E
S315080088C0FFF7ACFE04460B9B1BB1032249464846FC
S315080088D09847079B1BB1032205A9084698472046D7
S315080088E00FB0BDE8F083000070B590B005461E468F
S315080088F00024ADF82840ADF82A4006230B9301233F
S315080089000C9302238DF83430ADF82A205D4B04937E
S3150800891005AB059306938DF81C4008945A4B0493AF
S31508008920ADF824208DF81C10942070F02DFF044615
S3150800893020B100232A46194632F0FCFF0023039390
S315080089400394CCB100228DF83C200AA9204633F0C6
S315080089507BFA0546002854D07DB904A80E90049BDE
S31508008960DB6898470EA9204633F014FB05460E9897
S3150800897003681B69984700E00B25002C38D0002CAB
S3150800898036D02646414B46F8803B414BC4F88030EA
S31508008990B06808B145F090FB0023B360706808B171
S315080089A045F08AFB002373603A4BC4F88030A06C0C
S315080089B008B145F081FB0023A364261D364B63608E
S315080089C0B3686BB100225A62B06843F051F820B917
S315080089D0B3681B8913F0400F02D0B06843F03FF923
S315080089E00023B3602D4B63602360204670F0F4FECD
S315080089F000230393244B049304A80290DB6898474A
S31508008A0018E0204633F08AF970B1009601224FF03B
S31508008A10FF33FFF7FDFD054600289DD10FA9204627
S31508008A2033F073FA054697E7032595E7101F0368A1
S31508008A309B689847069A05AB9A4203D01046002AC7
S31508008A40F4D1F4E7049B1B6904A89847089B93B9DB
S31508008A500C4B0493069A05AB9A420ED1059A72B14D
S31508008A60069B63B15360059A1A6000230593069323
S31508008A70284610B070BDC8F08BFBC8F089FBC8F05B
S31508008A8087FB00BF3C320D0878320D0844AE0D084E
S31508008A90D4DB0D0818320D08F0320D08D0320D0857
S31508008AA008B5014602986CF095FE08BD2DE9F0431D
S31508008AB0A1B0064688469946ADF818200023ADF8B9
S31508008AC01A3006220792089301238DF8243038209D
S31508008AD070F05AFE0446002830D0289918A8FFF7E7
S31508008AE0FEFA299914A8FFF709FB00251295804B71
S31508008AF0236020467F4B40F8043B18A9FFF7EFFA9E
S31508008B0014A904F11400FFF7F9FA10A904F12400D6
S31508008B10FFF728FB84F83450129B1BB1032210A9D7
S31508008B2008469847169B1BB1032214A9084698477E
S31508008B301A9B1BB1032218A90846984700230593D8
S31508008B400594002C57D021460AA8FFF7FFFA04F12E
S31508008B5024051CAF0AA93846FFF704FB02AB97E8C1
S31508008B60030083E8030095E8030087E8030093E819
S31508008B70030085E803001E9BAA681E92AB601F9B34
S31508008B80EA681F92EB601E9B1BB1032239463846E2
S31508008B9098470C9B1BB103220AA9084698472A9BAB
S31508008BA01D78942070F0F0FD074620B12B4632461A
S31508008BB0214632F0BFFE002304930497EFB100224A
S31508008BC006A9384633F040F90546002878D0ADB9ED
S31508008BD02B9B1B788DF8383013B12B9B5B680F9352
S31508008BE00EAA4146384633F029FA054630B900251B
S31508008BF00595049502E00B253EE00B25049C002C08
S31508008C0038D0002C36D026463B4B46F8803B3B4BAB
S31508008C10C4F88030B06808B145F04EFA0023B36056
S31508008C20706808B145F048FA00237360344BC4F8FD
S31508008C308030A06C08B145F03FFA0023A364261DD6
S31508008C40304B6360B3686BB100225A62B06842F079
S31508008C500FFF20B9B3681B8913F0400F02D0B06824
S31508008C6042F0FDFF0023B360274B63602360204674
S31508008C7070F0B2FD00230493059CDCB1D4B1204604
S31508008C801C4B40F8243B836813B1032201469847DE
S31508008C9004F11400836813B1032201469847201D86
S31508008CA0836813B1032201469847114B2360204677
S31508008CB070F092FD00230593284621B0BDE8F083A5
S31508008CC0384633F02BF880B1CDF8009001224FF0EA
S31508008CD0FF33FFF7E5FE054600287FF478AF2A99AB
S31508008CE0384633F012F9054671E703256FE700BFEA
S31508008CF010330D082C330D0844AE0D08D4DB0D08CF
S31508008D0018320D08F0320D08D0320D082DE9F0435F
S31508008D108FB004460D4616461F460DF114081699DF
S31508008D204046FFF7DCF90DF1240917994846FFF785
S31508008D30E5F900238DF83430189B03930DAB0293A5
S31508008D40CDF80490CDF800803B46324629462046A9
S31508008D50FFF7ACFE04460B9B1BB103224946484667
S31508008D609847079B1BB1032205A908469847204642
S31508008D700FB0BDE8F0832DE9F041A4B015461C46B6
S31508008D8001282FD0022804D0002854D024B0BDE8EA
S31508008D90F081B1F80C8006AE4FF000013046FEF7C0
S31508008DA007FE0AAF4FF000013846FEF70DFE002316
S31508008DB08DF838300EAB02930197009605AB424604
S31508008DC021462846FFF714FB0C9B1BB103223946A4
S31508008DD038469847089B002BD8D0032206A9084690
S31508008DE09847D3E7B1F80C8010AE4FF00001304633
S31508008DF0FEF7DEFD14AF4FF000013846FEF7E4FD3E
S31508008E0000238DF8603018AB02930197009605ABE6
S31508008E10424621462846FFF731FD169B1BB1032221
S31508008E20394638469847129B002BAFD0032210A923
S31508008E3008469847AAE7B1F80C801AAE4FF0000129
S31508008E403046FEF7B5FD1EAF4FF000013846FEF777
S31508008E50BBFD00238DF8883022AB0293019700965C
S31508008E6005AB424621462846FFF750FF209B1BB11B
S31508008E7003223946384698471C9B002B86D0032286
S31508008E801AA90846984781E770B590B005461E4668
S31508008E900024ADF82840ADF82A4006230B930C941D
S31508008EA002238DF83430ADF82A205D4B049305ABC8
S31508008EB0059306938DF81C4008945A4B0493ADF815
S31508008EC024208DF81C10942070F05EFC044620B116
S31508008ED000232A46194632F02DFD002303930394F6
S31508008EE0CCB100228DF83C200AA9204632F0ACFF0E
S31508008EF00546002854D07DB904A80E90049BDB686B
S31508008F0098470EA9204633F045F805460E9803689B
S31508008F101B69984700E00B25002C38D0002C36D06A
S31508008F202646414B46F8803B404BC4F88030B06833
S31508008F3008B145F0C1F80023B360706808B145F080
S31508008F40BBF8002373603A4BC4F88030A06C08B1B4
S31508008F5045F0B2F80023A364261D364B6360B36858
S31508008F606BB100225A62B06842F082FD20B9B3683C
S31508008F701B8913F0400F02D0B06842F070FE002340
S31508008F80B3602D4B63602360204670F025FC0023F8
S31508008F900393244B049304A80290DB68984718E0CF
S31508008FA0204632F0BBFE70B1009601224FF0FF3327
S31508008FB0FFF776FD054600289DD10FA9204632F019
S31508008FC0A4FF054697E7032595E7101F03689B68E6
S31508008FD09847069A05AB9A4203D01046002AF4D160
S31508008FE0F4E7049B1B6904A89847089B93B90C4BA4
S31508008FF00493069A05AB9A420ED1059A72B1069B5E
S3150800900063B15360059A1A600023059306932846B0
S3150800901010B070BDC8F0BCF8C8F0BAF8C8F0B8F817
S315080090203C320D0878320D0844AE0D08D4DB0D0825
S3150800903018320D08F0320D08D0320D0800B583B08D
S3150800904001280CD0022803D080B103B05DF804FBD8
S3150800905001AB0A8A49780948FFF700FAF5E701AB38
S315080090600A8A49780548FFF73FFCEEE701AB0A8A0A
S3150800907049780248FFF708FFE7E700BF18E3012031
S31508009080F0B583B04AB105460C4616460378032B5D
S3150800909009D0012B12D003B0F0BD204A01210020CF
S315080090A042F0FCFBF7E7127B002AF2D0B368062BE6
S315080090B0F1D101467068FFF7C1FFECE7307B002865
S315080090C0E9D1B368062BE6D11CB3E3681BB1236864
S315080090D09B6A20469847E0B1776823689B692046D3
S315080090E0984706462368DB692146684698479DF8EF
S315080090F0003083B101AB324629463846FFF73BFEBE
S315080091009DF80030002BC6D0019803681B69984764
S31508009110C1E7C8F03DF8C8F03BF800BFE8310D08D4
S3150800912000B583B0019183682BB1C36801A998473C
S3150800913003B05DF804FBC7F075F908B52430FFF7EE
S31508009140EFFF08BD024A0260024A0260704700BF8C
S31508009150C0A50D08AC330D08012800D0704708B526
S315080091604FF6FF73994200D008BD034A03490448E5
S31508009170C7F00FF9F8E700BF000000204591000886
S315080091806000002010B50446044B0360044B0360DE
S315080091900821C7F003F9204610BD00BFC0A50D0879
S315080091A0AC330D0810B5FDF7DEFC1B48FEF7CAF810
S315080091B050BB1A4C1A4BD3F88411204644F0D4FC01
S315080091C0204644F0DDFC174C204672F0D9FA88F0A8
S315080091D0CDFD80F0BDFA204672F0E3FA124871F030
S315080091E0F7FF1248FEF72AFB90B9114871F0F0FF15
S315080091F004F0E6FD42F0F0F90E4871F0E9FFAC2004
S31508009200FDF790FA002010BDAC20FDF78BFAD0E7E9
S31508009210AC20FDF787FAE8E740330D086000002028
S3150800922048F701206845012054330D08506F002087
S3150800923068330D0884330D0870B50446044D2B6851
S315080092409E6801F0BAF9024621462846B04770BD25
S31508009250506F002008B54FF6FF710120FFF77CFF1D
S3150800926008BD08B511F068FD08BD006918B108B554
S3150800927011F0F3FC08BD704708B50023C36083608E
S3150800928000220023C0E90023006910B111B111F0D2
S31508009290DAFC08BD11F0DCFCFBE70000000000006A
S315080092A008B59FED077B80ED007B00228260C260D7
S315080092B001611146FFF7E0FF08BD00BFAFF300806C
S315080092C00000000000000000836823B370B582B078
S315080092D00446C368ABB1104B19680B68DB6868466F
S315080092E09847009E019D206911F0BCFC58B1A16801
S315080092F0236862685B1842F10002B34272EB050309
S3150800930003D302B070BDE168F2E72046FFF7ADFF70
S3150800931026606560F5E770470003002008B58160A0
S31508009320C260FFF7D1FF08BD08B50A46FFF7F6FF8A
S3150800933008BD38B141B10160028100228280C28035
S31508009340012070470020704700207047C28892B2FB
S3150800935083889BB29A4216D0C28892B283889BB2FF
S315080093609A4209D20389828892B29B1AC08880B22F
S3150800937010FA83F080B27047C3889BB2808880B2A7
S31508009380181A80B270470020704710B50489FFF795
S31508009390DDFF201A80B210BDF8B548B30F46154652
S315080093A0044659B3038993422ED3FFF7EEFFA8422A
S315080093B01DD32689E3889BB2F61AB6B2B54229D9D7
S315080093C02368E0883246394613FA80F0C8F003F974
S315080093D0AA1BB9192068C8F0FEF8E28815FA82F5C2
S315080093E0228995FBF2F302FB1355ADB2E580F8BD71
S315080093F00D4B0E4A96210E48C7F0D2FE0D4B0B4A6E
S3150800940097210B48C7F0CCFE0B4B084A9821084811
S31508009410C7F0C6FE2368E0882A46394613FA80F064
S31508009420C8F0D9F8D9E700BFD4330D08DC330D08E6
S315080094300C340D088C340D089C340D0870B516468E
S315080094401D46DCB20E4B1A78A41AE4B20D48FFF793
S315080094509CFFA2B2904209D20B4B2A4631460B48D2
S31508009460006812F053F877F091F970BD044C218822
S3150800947031440448FFF790FF00232380ECE700BF40
S31508009480787100206C6F00203D9400087801002058
S31508009490F8B550B30F461546044661B3038993429F
S315080094A02FD3FFF753FFA84231D92689A3889BB249
S315080094B0F61AB6B2B5422FD92368A188324613FAEE
S315080094C081F13846C8F087F8AA1B2168B819C8F090
S315080094D082F8A38815FA83F3228993FBF2F102FB3B
S315080094E011339BB2A380E8B2F8BD104B104AB521E0
S315080094F01048C7F055FE104B0D4AB6210D48C7F067
S315080095004FFE0E4B0A4AB7210A48C7F049FE2046C5
S31508009510FFF71CFF0546C8E72368A1882A4613FA01
S3150800952081F13846C8F057F8D3E700BFD4330D08A1
S31508009530BC340D080C340D08F4340D08FC340D0841
S3150800954038B500F094FC4FF4807212491248FFF7C0
S31508009550F0FE124D124C2B4680221249206811F05B
S31508009560D5FF2B4680221049206811F0CFFF0F4BFC
S315080095704FF40062C3F880211A600D4800F50052C6
S315080095800423D36400F580521365052112F040F8D0
S3150800959038BD00BF787000206C6F00203D9400082D
S315080095A078010020786F0020F86F002000E100E0C5
S315080095B00000015B08B577F0E9F8024B0422DA648B
S315080095C008BD00BF0020015B58B110B50C46014626
S315080095D054B12246074B186811F038FF38B920B243
S315080095E010BD4FF0FF3070474FF0FF30F8E74FF0EF
S315080095F0FF30F5E778010020002830D070B584B038
S315080096000C46054600292DD01848FFF79FFEA042B4
S3150800961007D3224629461548FFF73AFF00B204B099
S3150800962070BD02F018FF064601AB02AA03A910484E
S31508009630006811F0DAFE0F4B1B88029A934203D397
S31508009640304602F00EFFE4E7D21A92B203991944A3
S315080096500648FFF7A1FE074B029A1A80F0E74FF07B
S31508009660FF3070474FF0FF30D9E700BF6C6F00201E
S31508009670780100207871002070B504460A694B69A4
S3150800968052EA03001ED08868C96810EB000C41EB4B
S31508009690010E1CEB000C41EB0E0E4FEA4E1545EA87
S315080096A0DC654FEA4C161CEB060C4EEB050E1CEB64
S315080096B0000041EB0E01C7F0DBFB0123237060704D
S315080096C0204670BD002323706370F9E7D0E90201D4
S315080096D070472D2070472D2070474FF480607047E3
S315080096E0002383607047002343607047044A026082
S315080096F020324260034A4260034A0260704700BF54
S3150800970004370D08D0320D08E4350D080346064A1D
S3150800971040F8042C203240F80429044A4260044ADE
S3150800972043F8042C704700BF04370D08D0320D08E3
S31508009730E4350D08024A0260024A0260704700BF1B
S3150800974000930D08BC360D08024A0260024A026000
S31508009750704700BF60920D0810360D0810B5044614
S31508009760064B036020334360054B4360054B03609B
S315080097701021C6F013FE204610BD00BF04370D08A1
S31508009780D0320D08E4350D0810B50446084B40F8EC
S31508009790043C203344F80439064B6360064B40F812
S315080097A0043C10212046C6F0F9FD204610BD00BF36
S315080097B004370D08D0320D08E4350D0810B50446F7
S315080097C0054B0360006B18B170F006F8002323639D
S315080097D0024B2360204610BDBC0B0E0888350D08C9
S315080097E010B50446054B0360406B08B144F064FCB1
S315080097F000236363024B2360204610BD80880D0852
S31508009800BC350D0810B50446174B03606433436036
S3150800981000F51C7045F06CFC14F5EC7205D004F5E7
S31508009820147300E0183B9A42FCD1104BE3672033CF
S31508009830C4F880300E4BC4F880300E4BE36704F151
S315080098403800A36D13B10022A265984704F10800F9
S31508009850A36A13B10022A2629847074B6360074BBD
S315080098602360204610BD00BF448F0D0804370D083D
S31508009870D0320D08E4350D08F8350D0860360D08A8
S3150800988038B505460446194B40F8043C643344F899
S31508009890043900F51B7045F02BFC15F5EA7205D066
S315080098A004F5147300E0183B9A42FCD1104BE367A9
S315080098B02033C4F880300F4BC4F880300E4BE36772
S315080098C004F13800A36D13B10022A265984704F18C
S315080098D00800A36A13B10022A2629847074B636087
S315080098E0074B45F8043C204638BD00BF448F0D0899
S315080098F004370D08D0320D08E4350D08F8350D0883
S3150800990060360D0810B50446054A01210C2041F0C1
S31508009910C5FFE06810B103689B68984710BD00BF93
S3150800992018350D0810B50446054A01210C2041F0EA
S31508009930B5FFA06810B103689B68984710BD00BFC3
S3150800994018350D0830B583B0C068D8B10D46144631
S315080099501A68019200221A6001AA214627F042FBE2
S31508009960019808B144F0A8FB002301930C4B1B682F
S315080099700093A3886BB12B8943F040032B81002009
S3150800998003B030BD074A01210C2041F087FF0020B3
S31508009990F6E7E388002BEED12378402BEBD1EEE7F0
S315080099A03C370D082C350D0830B583B08068D8B122
S315080099B00D4614461A68009200221A606A46214625
S315080099C027F010FB009808B144F076FB00230093BB
S315080099D00C4B1B680193A3886BB12B8943F040039A
S315080099E02B81002003B030BD074A01210C2041F02D
S315080099F055FF0020F6E7E388002BEED12378402BAD
S31508009A00EBD1EEE73C370D082C350D08F0B587B0DD
S31508009A1006460C46224A0321152041F03FFFB56849
S31508009A20002D2DD00023ADF810301E4B1B68039374
S31508009A3023893BB31C4A1268039253B30123ADF83A
S31508009A401030277B606844F08DFA6368059304AB91
S31508009A50009305AB3A46A168284642F0BBFA04468D
S31508009A60059808B144F028FB002305932CB1B0688B
S31508009A7018B142F0DBF80023B360204607B0F0BD0A
S31508009A800320FBE76289022AD4D1227B142AD1D18A
S31508009A90D7E76389002BD1D1237B402BCED1D0E7E2
S31508009AA060350D0840370D083C370D08012800D0F1
S31508009AB070474FF6FF739942FAD170B58AB04C4B8E
S31508009AC04C4A1A604C4A5A604C4A1A6064325A60C8
S31508009AD003F10802DA609A6000229A62DB6248495A
S31508009AE01963CDF804D0CDF800D0089203F13801F7
S31508009AF0D96399639A65DB65424919669A66DA6697
S31508009B001A6783F874209A673F49D9673F49C3F8AB
S31508009B1080103F49D9672031C3F8801083F8AC20FC
S31508009B20C3F8B820C3F8BC20C3F8C020C3F8C420C3
S31508009B30C3F8C821C3F8CC2183F8D021C3F8D421AF
S31508009B40042203F5EC7303E0002103F8181B013A1D
S31508009B50002AF9DA26480024C0F850420523C0F83E
S31508009B60543280F85842C0F87442C0F87842294BFB
S31508009B70C0F8703280F87C42274E32462749C6F034
S31508009B8008FC324626492748C6F003FC32462649D1
S31508009B902648C6F0FEFB264D264B2B606C602C72C1
S31508009BA02846254B40F8103B8EF026F8C5F8D040DD
S31508009BB0C5F8D440C5F8D840C5F8DC4032461F4938
S31508009BC02846C6F0E6FB1E481E4B0360002200230B
S31508009BD0C0E90223C0E904231B4B03608461C46106
S31508009BE00463446332461949C6F0D3FB0AB070BD14
S31508009BF09872002060360D08F8350D08448F0D0858
S31508009C00C9330308151F0308E4350D08D0320D08BB
S31508009C1004370D083CDE0D080000002005980008F2
S31508009C203597000868000020499700087000002052
S31508009C3080710020BC350D0880880D08E197000862
S31508009C406072002088350D08BC0B0E08BD97000809
S31508009C50F0B583B00F4F384627F0A4FF0E4901F53B
S31508009C604053D3F884310D4A53600D4E0D4D00957F
S31508009C703346384628F0A2FC0B4B33610B4C224680
S31508009C803946304629F04EFF094B636325626C60FE
S31508009C9003B0F0BD9872002048C701206800002074
S31508009CA07000002080710020805101006072002041
S31508009CB074350D0810B50446194B036064334360C8
S31508009CC000F51C7045F014FA14F5EC7205D004F58D
S31508009CD0147300E0183B9A42FCD1124BE367203319
S31508009CE0C4F88030104BC4F88030104BE36704F199
S31508009CF03800A36D13B10022A265984704F1080045
S31508009D00A36A13B10022A2629847094B6360094B04
S31508009D1023604FF422712046C6F040FB204610BD52
S31508009D20448F0D0804370D08D0320D08E4350D08A8
S31508009D30F8350D0860360D0838B5054604461B4B40
S31508009D4040F8043C643344F8043900F51B7045F0C8
S31508009D50CFF915F5EA7205D004F5147300E0183B3F
S31508009D609A42FCD1124BE3672033C4F88030114B7A
S31508009D70C4F88030104BE36704F13800A36D13B1C3
S31508009D800022A265984704F10800A36A13B10022CD
S31508009D90A2629847094B6360094B45F8043C4FF4A7
S31508009DA022712046C6F0FAFA204638BD448F0D08BF
S31508009DB004370D08D0320D08E4350D08F8350D08BE
S31508009DC060360D0810B50446044B0360044B036067
S31508009DD00821C6F0E3FA204610BD00BF00930D081F
S31508009DE0BC360D0810B50446044B0360044B0360EB
S31508009DF01C21C6F0D3FA204610BD00BF60920D089C
S31508009E0010360D0810B50446074B0360406B08B1C1
S31508009E1044F052F900236363044B2360E021204693
S31508009E20C6F0BCFA204610BD80880D08BC350D0862
S31508009E3010B50446074B0360006B18B16FF0CCFCF5
S31508009E4000232363044B236038212046C6F0A6FA74
S31508009E50204610BDBC0B0E0888350D0808B54FF610
S31508009E60FF710120FFF722FE08BD0F20704708B5D5
S31508009E70012304220021184602F032FD002008BD05
S31508009E8008B501213A2001F041FA10F055FE11F00B
S31508009E90C3FE08BD08B501213A2001F037FA08BD0E
S31508009EA00D4B1B68B3F1FF3F06D04FF4801202FA40
S31508009EB003F30A4A13667047094B1B785BB9094BCB
S31508009EC04FF400725A6603F5A6235B681BB9034B69
S31508009ED04FF480121A667047DC0000200090004498
S31508009EE03C75002000900050084B1B68B3F1FF3FFB
S31508009EF00AD1074B1B783BB9064B5B6813F0010F79
S31508009F0002D0024B00221A60704700BFDC00002016
S31508009F103C75002000C005504FF000639B6A03F1B2
S31508009F207842B2F5C04F07D21A680B4B9A4207D04F
S31508009F3000230370836070470023037083607047B3
S31508009F40012303704FF000639A6A926842609B6A25
S31508009F509B698360704700BF07B0CD5E4FF0005322
S31508009F6040F202221A804FF20F025A80BFF34F8F37
S31508009F700549CA6802F4E062044B1343CB60BFF399
S31508009F804F8F00BFFDE700BF00ED00E00400FA05B3
S31508009F904FF000639B6A03F17843B3F5C04F19D2BB
S31508009FA030B585B005460C4601238DF804300023EC
S31508009FB00293039301A8FFF7AFFF039B13F4806F87
S31508009FC006D04FF000639B6A1B6C214628469847CB
S31508009FD005B030BD704700003A4B1B78002B59D1AD
S31508009FE030B583B0044600230193009300284FD070
S31508009FF00125344B1D7002F02EFA334B1860C1F060
S3150800A000A7FB324B5A6E22619A6E626103F5805243
S3150800A0104FF4804393662E4B5968A1612D49996088
S3150800A020196E2160596E6160196CA160596CE16006
S3150800A0302949086C1864496C596455661B6E13F4F3
S3150800A040005F2BD0254BDB6813F0010FFAD1FFF721
S3150800A05027FF234B04221A664FF400721A6600F093
S3150800A060CDF9B0F1FF3F1FD11D4C082323664FF4ED
S3150800A070805323664FF0006323664FF4002363661C
S3150800A080694601A8FFF784FF019B2366009B636668
S3150800A09003B030BD0B4B02221A707047114BDB68B8
S3150800A0A013F0010FFAD1D2E700F0A8F940F2011334
S3150800A0B09842D9D00A4B4FF400521A664FF48042A0
S3150800A0C01A66D1E73D7500204075002000800050D3
S3150800A0D00080004455CEAC0000C000540000044087
S3150800A0E000900044000004501F4B1B78012B03D03E
S3150800A0F01D4B01221A70704710B5044620B300F0B4
S3150800A1007DF9B0F1FF3F20D12268184B1A666268C4
S3150800A1105A66A2681A64E2685A64A36913F0010FC2
S3150800A12002D0124B00229A60FFF7DEFE2269104B1E
S3150800A1305A6662699A66C1F027FB0E4B186802F0E8
S3150800A14090F9094B00221A7010BD00F057F940F239
S3150800A15001139842D8D0084B01225A66074BDB6890
S3150800A16013F0010FFAD1CFE73D75002000800044B7
S3150800A1700080005040750020009000400000044018
S3150800A18038B54FF000639B6A03F17843B3F5C04FC7
S3150800A19018D20E4B1B781BB1022B01D0002413E0FA
S3150800A1A00B4D2846FFF718FF4FF000639B6ADB69E3
S3150800A1B0984704462846FFF797FF2CB9034B012218
S3150800A1C01A7001E04FF48174204638BD3C750020B2
S3150800A1D02075002038B54FF000639B6A03F178427A
S3150800A1E0B2F5C04F14D204461B6B03F17843B3F59E
S3150800A1F0C04F0DD2074D2846FFF7EEFE4FF000631D
S3150800A2009B6A1B6B5B68204698472846FFF76CFFDE
S3150800A21038BD00BF4475002008B54FF000639B6A3F
S3150800A22003F17842B2F5C04F08D21B6B03F17842AE
S3150800A230B2F5C04F05D29B68984701E04FF481708C
S3150800A24008BD4FF48170FBE730B583B001904FF03D
S3150800A25000639B6A03F17842B2F5C04F16D21B6BB6
S3150800A26003F17843B3F5C04F15D20C4D2846FFF7D6
S3150800A270B3FE4FF000639B6A1B6B9B69012101A823
S3150800A280984704462846FFF72FFF01E04FF48174EC
S3150800A290204603B030BD4FF48174F9E744750020B9
S3150800A2A02DE9F0414FF000639B6A03F17844B4F559
S3150800A2B0C04F17D207460E4615461B6BBBB1DFF8D3
S3150800A2C034804046FFF788FE4FF000639B6A1B6B9D
S3150800A2D05B6A2A4631463846984704464046FFF7A1
S3150800A2E003FF01E04FF401742046BDE8F0814FF406
S3150800A2F00174F9E74475002070B54FF000639B6A56
S3150800A30003F17842B2F5C04F18D205460C461B6BCE
S3150800A31003F17843B3F5C04F14D20C4E3046FFF71D
S3150800A3205BFE4FF000639B6A1B6B9B6A21462846BF
S3150800A330984704463046FFF7D7FE01E04FF401740C
S3150800A340204670BD4FF40174FAE700BF447500203B
S3150800A35030B5ADF50F7D4FF000639B6A03F1784386
S3150800A360B3F5C04F15D20C464FF40E726946FFF787
S3150800A37097FF054678B921466846FFF7BDFF40F2C4
S3150800A38001239842F7D040F20323984203D00546AA
S3150800A39001E04FF4017528460DF50F7D30BD00002C
S3150800A3A0F8B50D464FF000639B6A03F17841B1F5A5
S3150800A3B0C04F19D2044616461B6B03F17843B3F512
S3150800A3C0C04F15D20C4F3846FFF706FE4FF0006314
S3150800A3D09B6A1B6B9B6B3246294620469847044668
S3150800A3E03846FFF781FE01E040F201142046F8BD29
S3150800A3F040F20114FAE700BF447500204FF00063ED
S3150800A4009B6A03F17842B2F5C04F29D21B6B03F160
S3150800A4107843B3F5C04F26D200B585B001238DF831
S3150800A420043000230293039301A8FFF775FD039BED
S3150800A43013F4803F1AD0029BC3F307421B0E18D0B1
S3150800A440012B08D04FF000639B6A1B6B1B6C984767
S3150800A45005B05DF804FB0A2AF4D840F20110F7E7C4
S3150800A46040F20110704740F20110704740F20110A7
S3150800A470EEE740F20110EBE770B54FF000639B6A18
S3150800A48003F17842B2F5C04F18D205460C461B6B4D
S3150800A49003F17843B3F5C04F14D20C4E3046FFF79C
S3150800A4A09BFD4FF000639B6A1B6BDB6B21462846BE
S3150800A4B0984704463046FFF717FE01E040F20114BC
S3150800A4C0204670BD40F20114FAE700BF447500202B
S3150800A4D02DE9F04190B017461D464FF000639B6A80
S3150800A4E003F17842B2F5C04F4ED206460C461B6BB6
S3150800A4F003F17843B3F5C04F4BD201A8FFF76AFEC4
S3150800A500059BD3F80C801FFA88F3002B44D00EA9BC
S3150800A5103046FFF781FEC8BB0E9E63190F9A934219
S3150800A5203DD81FFA88F8B4FBF8F208FB1242F2B1DC
S3150800A530C8F1000C0CEA04004044B3FBF8F108FB30
S3150800A540113179B103EA0C018844A8EB00013044C3
S3150800A55011B1FFF791FFC8B92A4639463019FFF7F6
S3150800A5601FFF13E0A2EB080808EB0501EFE7301917
S3150800A570B5FBF8F308FB135323B1C8F100012940D2
S3150800A5804144E5E72946E3E74FF4817010B0BDE89A
S3150800A590F0814FF48170F9E740F20140F6E740F2A6
S3150800A5A00240F3E703680B600160704708B543682B
S3150800A5B00BB1984708BD2220FCE708B543690BB1E3
S3150800A5C0984708BDFF20FCE70A681378022B00D1DC
S3150800A5D0704710B508461379517903EB43031B01FD
S3150800A5E01433064C1B59CB4013F0010F0CBF012343
S3150800A5F000231370FEF720FE10BD00BF30C00350C5
S3150800A60030B583B00546046801213A2000F07EFE85
S3150800A610002301226179207902F062F923796279AF
S3150800A62003EB43031B0114330F495B58D34013F064
S3150800A630010F0CBF012300232370A379022B02D03C
S3150800A640002003B030BD00F057FA2A460749607962
S3150800A65000F07AFA02466179207901230193009382
S3150800A66002F0AAF8ECE700BF30C00350C9A50008FD
S3150800A670036818787047000002681378022B12D016
S3150800A6801379517903EB43031B01143312481B5802
S3150800A690CB4003F0010003469179012904D011B992
S3150800A6A080F00100107070475188490089B20B4349
S3150800A6B043F47F4343F0C0034FF6E0718B4205D065
S3150800A6C04FF6DF718B4204D0538070470121117019
S3150800A6D0F6E700211170F7E730C0035008B50368A4
S3150800A6E01A78022A00D008BD00225A80FFF788FF90
S3150800A6F0F9E710B582B004682378022B04D0A37951
S3150800A700022B03D00223237002B010BD002160790A
S3150800A71000F00AFA617920790023019300930A462A
S3150800A72002F04AF8EEE70000F0B585B00C4694460C
S3150800A7309DF83410664A1278002A00F0BD80054656
S3150800A740BCF1070F00F2BA800A9A002A00F0B88016
S3150800A7500B9A002A00F0B6800E9AB2F5006F00F345
S3150800A760B38001285BD05B4A02EB0C12127B002AED
S3150800A77000F0AC8000220092019202920392564A9F
S3150800A78002EB4C1E002C4FD14FEA4C16002090517C
S3150800A790CEF80400CEF80800CEF80C009EF80200A9
S3150800A7A040F010008EF802009EF8030040F03000DA
S3150800A7B08EF8030021B9C1B241F003018EF80310E7
S3150800A7C000930E9B013B444A4FEA4C1002EB4C1196
S3150800A7D0165A63F30E1616520A9B8B600B9B4B6038
S3150800A7E0CB789DF83C2062F38303CB70012D36D0DD
S3150800A7F0109B002B56D0374A4FEA0C1102EB0C136C
S3150800A80010985050119A5A6000249C605D737246E5
S3150800A8106946604602F002F9204605B0F0BD0C9A7A
S3150800A820002AA0D12D48F8E72B4F4FEA4C1607EB24
S3150800A8304C120020B85150609060D060907840F07B
S3150800A84010009070D07840F00300D0700029B7D17E
S3150800A85007EB4C12C1B241F03001D170B0E70E4699
S3150800A8600A7B42F001020A73D2B242F002020A736C
S3150800A870CA68042161F39F02F26006F1100796E8A0
S3150800A8800F0087E80F00F2696FF0030161F39F027A
S3150800A890F2610C9B7361012CAAD10B9AB2610C9AD6
S3150800A8A07260A5E7002DA6D10B4B03EB4C139A78E3
S3150800A8B06FF304129A709EE70948AEE70748ACE7BB
S3150800A8C00648AAE70548A8E70448A6E70548A4E70E
S3150800A8D0E076002060750020E0750020018000F019
S3150800A8E0028000F0078000F0134B1B78FBB110B50F
S3150800A8F00446F0B101F0AFFD0023072B13DC0F4A25
S3150800A90002EB0312127B0AB10133F6E723600B4A06
S3150800A910190102EB031301241C730024545001F09F
S3150800A920A0FD204602E001F09CFD054810BD054843
S3150800A93070470548FAE700BFE076002060750020FA
S3150800A940048000F0028000F0018000F000B583B0BA
S3150800A950144B1B68019300238DF8043001F07BFD2E
S3150800A960114B1B7833B9104B01221A7001F079FD8F
S3150800A970002309E001F075FD0C480FE00C4A02EBD4
S3150800A9800312002111730133072BF7DD04238DF819
S3150800A99007300DEB030002F00FF8002003B05DF856
S3150800A9A004FB00BF44370D08E0760020038000F062
S3150800A9B06075002000B589B084460E9807900D98FA
S3150800A9C006909DF8300005900B9804909DF8280095
S3150800A9D0039000200290019300920B4662460121E3
S3150800A9E0FFF7A2FE09B05DF804FB00000C4B1B78CC
S3150800A9F073B110B50C4607280CD869B1094B03EB9F
S3150800AA0000131B7B53B102F053F82060002010BDE1
S3150800AA10054870470548FAE70448F8E70448F6E7A2
S3150800AA20E076002060750020028000F0018000F0CA
S3150800AA30078000F0F8B5194B1F6D5B6D1F4002D4F7
S3150800AA400125002402E0FEE701346D00072C24D816
S3150800AA503D42F9D0124B1D652301124AD358002BEB
S3150800AA60F2D002EB0416B1680131B1607268204673
S3150800AA70984780F00100C0B2737B012BE4D100280F
S3150800AA80E2D0094B03EB44131A7B6FF341021A73A6
S3150800AA901A7F6FF341021A77D6E7F8BD0000045013
S3150800AAA00020045060750020E075002010B50446AB
S3150800AAB002E0202007E09047DCB194FAA4F00028D1
S3150800AAC0F7D0B0FA80F00123834024EA0304094B47
S3150800AAD003EB00135A68002AEED0064B03EB00136B
S3150800AAE01B7B002BE7D0034B03EB001399689047B9
S3150800AAF0E2E710BDE476002008B5192001F0B4FCA1
S3150800AB0028B1084B4FF00072C3F880211A601A204A
S3150800AB1001F0AAFC28B1034B4FF08062C3F88021EC
S3150800AB201A6008BD00E100E038B505460C4601F09C
S3150800AB3092FC044B03EB05135C6000221A7301F0C8
S3150800AB4090FC38BDE4760020F8B505460F46164653
S3150800AB5001F081FC05F0FC0C104BD3F824140023FB
S3150800AB60032B0CD8EC1804F0030444EA0C0421FA6D
S3150800AB7004F212F0010F03D00133DBB2F0E7FF2431
S3150800AB80FF2C06D0064B03EB04135F609E60012280
S3150800AB901A7301F066FC2046F8BD00BF00C00350DA
S3150800ABA0E476002008B5084BD3F82404D3F820240B
S3150800ABB0104000F0553020F0502003F50053C3F83C
S3150800ABC02004FFF773FF08BD00C0035008B5084B03
S3150800ABD0D3F82404D3F82024104000F0AA3020F03B
S3150800ABE0A02003F50053C3F82004FFF75FFF08BD54
S3150800ABF000C0035008B5034B1968034B1868C4F026
S3150800AC00FDFD08BDE4000020E0000020B0F1FF3F94
S3150800AC1001D010B97047024870470248704700BF14
S3150800AC2021E000F024E000F08908002301E0043068
S3150800AC3001338B4205D20268B2F1FF3FF7D00020FC
S3150800AC40704701207047704738B50446C7F05CFE68
S3150800AC50FFF7DCFF054650B9074B9B680A3303F03C
S3150800AC601F03012199402046FFF7DEFF08B1284659
S3150800AC7038BD024DFBE700BF0080E00F0EE000F094
S3150800AC80F8B505460E4694002246C7F045FEFFF77E
S3150800AC90BDFF074628B9224631462846C6F08BFC32
S3150800ACA008B93846F8BD014FFBE700BF10E000F0D1
S3150800ACB008B50346084613F0030F02D111F0030F37
S3150800ACC00AD092001946C6F086FC002008BD53F843
S3150800ACD0041B40F8041B013A002AF8D1F5E70000E6
S3150800ACE010B582B0044601A802F022F89DF8063095
S3150800ACF023800122E2700020A070054B9B680A336E
S3150800AD0003F01F0302FA03F3636002B010BD00BF2D
S3150800AD100080E00F08B501F0F9FE08BD08B501F09E
S3150800AD20E5FE002008BD000008B501F08DFB014BCB
S3150800AD30186008BD587C002008B5024B186801F059
S3150800AD4087FB08BD587C002070470000024B4FF473
S3150800AD5080321A67704700BF0090005038B5054624
S3150800AD600C460C4BD3F8803003F00303012B08D0B4
S3150800AD70022B0AD00023184605B1286004B12360C7
S3150800AD8038BD11F043F80E23F6E711F08DF80723C6
S3150800AD90F2E700BF0080005038B505460C46164B52
S3150800ADA0D3F8203103F00703013B052B20D8DFE851
S3150800ADB003F0030B130F171B11F022F8052305B137
S3150800ADC0286004B1236038BD11F050F80323F6E774
S3150800ADD011F06AF80723F2E711F062F80223EEE7AA
S3150800ADE011F00EF80623EAE711F040F80423E6E727
S3150800ADF000231846E3E700BF0080005038B5054633
S3150800AE000C46164BD3F8283103F00703013B052BF4
S3150800AE1020D8DFE803F003131B0F0B1710F0F0FF21
S3150800AE20052305B1286004B1236038BD10F0E8FF9A
S3150800AE300623F6E711F038F80723F2E711F016F8BB
S3150800AE400323EEE711F012F80423EAE711F028F8D5
S3150800AE500223E6E700231846E3E700BF0080005018
S3150800AE6070B582B006460D4600230193104BD3F801
S3150800AE70804104F00304022C16D0032C0FD0012CB9
S3150800AE8007D000240EB1019B336005B12C6002B0D7
S3150800AE9070BD002101A8FFF77FFF1024F2E711F02B
S3150800AEA003F801900724EDE710F0FAFF0190E9E7AF
S3150800AEB00080005030B583B005460C460023019348
S3150800AEC0144BD3F8203203F00703013B032B1ED89B
S3150800AED0DFE803F0020E1318002101A8FFF78EFF22
S3150800AEE012230DB1019A2A6004B1236003B030BD64
S3150800AEF010F0DAFF01900723F3E711F019F8019033
S3150800AF000A23EEE711F01AF801900923E9E700236E
S3150800AF10E7E700BF0080005038B505460C460F4BE2
S3150800AF20D3F8403103F00303022B0ED0032B10D0C5
S3150800AF30012B06D00023184605B1286004B123600A
S3150800AF4038BD10F0F5FF0A23F6E710F0F7FF0923DE
S3150800AF50F2E710F0F0FF0C23EEE700BF0080005088
S3150800AF6030B583B005460C46002301934FF0E02325
S3150800AF701B6913F0040F0CD010F062FF01900D232B
S3150800AF8000930DB1019B2B600CB1009B236003B0AD
S3150800AF9030BD694601A8FFF7BFFFF2E730B583B0B9
S3150800AFA005460C4600230193144BD3F8603203F090
S3150800AFB00703013B032B1FD8DFE803F0020E191421
S3150800AFC0002101A8FFF7E8FE10230DB1019A2A60B7
S3150800AFD004B1236003B030BD002101A8FFF79CFF30
S3150800AFE01123F2E710F060FF01900723EDE710F058
S3150800AFF057FF01900223E8E70023E6E700800050A8
S3150800B00030B583B005460C4600230193144BD3F89C
S3150800B010943203F00703013B032B1FD8DFE803F044
S3150800B020020E1914002101A8FFF7B6FE10230DB170
S3150800B030019A2A6004B1236003B030BD002101A83B
S3150800B040FFF76AFF1123F2E710F02EFF019007239E
S3150800B050EDE710F025FF01900223E8E70023E6E775
S3150800B0600080005030B583B005460C460023019396
S3150800B0700C4BD3F8703203F00303012B09D0022BD3
S3150800B0800DD115230DB1019A2A6004B1236003B0CE
S3150800B09030BD002101A8FFF73FFF1123F2E7002387
S3150800B0A0F0E700BF0080005038B505460C46124B45
S3150800B0B0D3F8003203F00703013B032B18D8DFE867
S3150800B0C003F0020A0E1210F033FF0A2305B12860B6
S3150800B0D004B1236038BD10F031FF0923F6E710F0FC
S3150800B0E02AFF0C23F2E710F0ABFE800A0F23EDE7E8
S3150800B0F000231846EAE700BF0080005038B5054629
S3150800B1000C46124BD3F8083203F00703013B032B16
S3150800B11018D8DFE803F0020A0E1210F009FF0A2316
S3150800B12005B1286004B1236038BD10F007FF092374
S3150800B130F6E710F000FF0C23F2E710F081FE800A14
S3150800B1400F23EDE700231846EAE700BF008000500A
S3150800B15038B505460C460F4BD3F8403203F00303C7
S3150800B160022B0ED0032B10D0012B06D00023184635
S3150800B17005B1286004B1236038BD10F0D9FE0A2352
S3150800B180F6E710F0DBFE0923F2E710F0D4FE0C23F5
S3150800B190EEE700BF0080005038B505460C460F4B59
S3150800B1A0D3F8603103F00303022B0ED0032B10D023
S3150800B1B0012B06D00023184605B1286004B1236088
S3150800B1C038BD10F0B5FE0A23F6E710F0B7FE0923DE
S3150800B1D0F2E710F0B0FE0C23EEE700BF0080005047
S3150800B1E038B505460C46104BD3F8000100F00300AD
S3150800B1F0032815D8DFE800F002080C10012305B172
S3150800B200286004B1236038BD10F030FE0323F6E74A
S3150800B21010F094FE0923F2E710F040FE0823EEE74B
S3150800B22000231846EBE700BF00800050B0F5207FEA
S3150800B23020D00ED8B0F5007F16D020D810B1B0F5C2
S3150800B240C07F04D10F4B186FC0F3033018E00020FD
S3150800B25016E0B0F5607F05D10A4BD3F88000C0F33D
S3150800B26001100DE000200BE0064BD3F89000C0F368
S3150800B270046005E0034B186FC0F3802000E000204F
S3150800B280013070470080005038B505460C46174B0C
S3150800B2904FF480329A660020FFF7C8FF05FB00F0DE
S3150800B2A0134BDA6902F4803241F67131D9635B686F
S3150800B2B023F440136CB90F49884207D800210B4381
S3150800B2C00B494B600AB10022CA6338BD4FF480119E
S3150800B2D0F5E7002C07DD0849884201D80021EEE78A
S3150800B2E04FF48011EBE74FF44011E8E70090005067
S3150800B2F000000350005A6202002D310108B510F013
S3150800B300B1FD0021FFF7C0FF08BD0000430905D0C5
S3150800B310012B0ED0022B0ED0002200E0002200F0F6
S3150800B3201F0051B102F58052012303FA00F01060A4
S3150800B3307047034AF3E7034AF1E702F50052F3E7D9
S3150800B340648000506880005010B582B000230193D5
S3150800B3500093B0F5807F00F20781B0F5807F00F298
S3150800B3607A81DFE810F04A017801780178017801DE
S3150800B37078017801780178017801780178017801F7
S3150800B38078017801780178017801780178017801E7
S3150800B39078017801780178017801780178017801D7
S3150800B3A07801780178014A017B014A017B01510144
S3150800B3B051015101510151017B0121013B01A201BA
S3150800B3C0A7013B017B017B017B01780178017801AC
S3150800B3D0780178017801780178017B017B017B018E
S3150800B3E0B10168017B01780178017801780178015B
S3150800B3F07801780178017801780178017801780177
S3150800B40051014A014A014A015D013B013B01AC0178
S3150800B4107001930198017801780178017801780123
S3150800B42012017801780178017801780178017801AC
S3150800B4307801780178017801780178017801780136
S3150800B4407801780178017801780178017801780126
S3150800B4507801780178017801780178017801780116
S3150800B4607801780178017501780178017801780109
S3150800B47078017801780178017801780178017801F6
S3150800B48078017801780178017801780178017801E6
S3150800B49078017801780178017801780178017801D6
S3150800B4A078017801780178017801780178017801C6
S3150800B4B078017801780178017801780178017801B6
S3150800B4C078017801780178017801780178017801A6
S3150800B4D07801780178017801780178017801780196
S3150800B4E07801780178017801780178017801780186
