S0220000636869702D65667233322D6C69676874696E672D6578616D706C652E733337C3
S315080060000000042001AA0108FDA901088DDF070880
S3150800601079BF0008FDA90108FDA90108FDA9010825
S31508006020FDA90108FDA90108FDA9010871F60108E5
S31508006030FDA901088C00002011F601082D6D010844
S31508006040FDA90108FDA90108FDA90108FDA9010886
S31508006050FDA90108FDA90108FDA90108FDA9010876
S31508006060FDA90108FDA90108FDA90108BD810008CF
S31508006070FDA90108FDA90108FDA90108FDA9010856
S31508006080FDA90108FDA90108FDA90108FDA9010846
S31508006090FDA90108D1960008FDA90108FDA9010876
S315080060A0FDA901086998000841980008FDA901089A
S315080060B0FDA9010815FE0C080D080D08C5070D08F1
S315080060C0C1070D08E1FF0C0809080D08C9070D08E6
S315080060D0E1070D08CD070D086D080D084D080D08D8
S315080060E0FDA90108FDA90108FDA90108FDA90108E6
S315080060F0C5AD0108FDA90108FDA90108FDA901080A
S31508006100FDA90108FDA90108FDA90108FDA90108C5
S31508006110FDA90108FDA90108FDA90108FDA90108B5
S31508006120FDA90108FDA90108FDA90108FDA90108A5
S31508006130FDA90108FDA90108FDA90108FDA9010895
S31508006140FDA9010865AF0108FDA90108FFC90008F6
S31508006150C1E50C08FDA9010879C40C087FC40C0820
S31508006160FDA90108FDA90108FDA90108FDA9010865
S3150800617010B5054C237833B9044B13B1044800E035
S3150800618000BF0123237010BD180A0020000000007C
S31508006190A0160F0808B5034B1BB10349034800E0D6
S315080061A000BF08BD000000001C0A0020A0160F084A
S315080061B0A3F5803A704700BF174B002B08BF134B57
S315080061C09D46FFF7F5FF00218B460F461348144AF4
S315080061D0121ACDF0C3FF0E4B002B00D098470D4B7B
S315080061E0002B00D098470020002104000D000D4820
S315080061F0002802D00C4800E000BFCDF023FF2000A5
S31508006200290001F0D3FDCDF093FD00BF0000080082
S31508006210000000000000000000000420180A00200A
S31508006220E0170220000000000000000010B584B04E
S315080062300C4600230093164B164A10210A2011F02B
S315080062405DFA154B186090B1144B0293144B0193E9
S3150800625001230093104B4FF480621249204612F036
S31508006260E7F8114B186050B1002004B010BD0F4874
S3150800627077F04AFD40F2017000F054FAE4E70C4862
S3150800628077F042FD40F2027000F04CFAECE700BFEE
S31508006290C40B0020240B0020140B00205C0A0020ED
S315080062A0140C002084540D08180B002060540D08A7
S315080062B088540D0830B5A7B004460D4600293AD0D3
S315080062C02A4B1D602A4B00932346002201212948A8
S315080062D013F0A8F8284B1860002833D0274B0093F2
S315080062E0234601220A21264813F09CF8254B1860FC
S315080062F080B32549254877F007FD01F0B6FD244906
S31508006300244801F0D1FD75F081FF0368D3F8843085
S31508006310984705AB03938123049332F0EFFA03A958
S3150800632032F096FAF0B903AB93E8030091F084FCD7
S31508006330002027B030BD184877F0E6FC2F2000F083
S31508006340F1F9BDE7154877F0DFFC40F2047000F07C
S31508006350E9F9C3E7124877F0D7FC40F2047000F079
S31508006360E1F9C6E70F4877F0CFFCE1E7580A0020C5
S31508006370D9660008C0540D081C0B00208564000867
S31508006380E4540D08540A00200C550D0818550D083C
S315080063909C7A0D08380A0020A4540D08C8540D0824
S315080063A0F0540D0838550D0810B52C4877F08BFFBA
S315080063B0C0B92B4B1B78022B35D02A4B1B680BB167
S315080063C0DB7D5BBB284B1B78002B37D0274B1B7814
S315080063D0002B33D0264B1B784BB30121254801F0FF
S315080063E04FFD20E0244C20467BF04DFF1E4B1870D5
S315080063F020467BF0F7FE1D4B187020467BF054FFB5
S315080064001B4B18701D487BF01DFB003818BF012078
S315080064101B4B1870114877F060FFCAE7FA2211463D
S31508006420144801F07FFD134801F052FD10BD3222D9
S3150800643040F2B6310F4801F075FDF4E7104B1B78B2
S315080064402BB1642211460B4801F06CFDEBE740F2D4
S31508006450B6323221074801F065FDE4E7004601201F
S31508006460141C0020580A0020200B0020340A0020A3
S31508006470500A0020380A00209093012084930120B6
S31508006480210B002008B5FFF78FFF08BD00B583B0C4
S3150800649000220092134603210948006812F0DEFF25
S315080064A028B1084B00221A7003B05DF804FB0648B1
S315080064B077F02AFC40F2067000F034F9F1E700BFE5
S315080064C01C0B0020220B002050550D0810B582B079
S315080064D00446114B186813F04FF978B964230093F2
S315080064E00023224604210C48006812F0B7FF012851
S315080064F00AD10A4B01221A7002B010BD084877F07B
S3150800650003FCFFF7C3FFE9E7064877F0FDFB40F217
S31508006510057000F007F9ECE71C0B0020220B0020A1
S3150800652068550D0884550D080388012B2BD110B525
S31508006530154B1B781BB1154A1278012A05D01BB1D9
S31508006540124B1B78022B17D010BD40F6B8311048F5
S3150800655077F0DAFB40F6B830FFF7B8FF0B4B0222AC
S315080065601A700C4C0021204601F08AFC4FF4FA718F
S31508006570204601F0DDFCE7E7044B00221A700648C6
S3150800658092F0A0FEE0E77047220B0020141C0020C2
S31508006590A0550D08380A0020E0C7012010B5037978
S315080065A0012B0CD01E4B1B781BB11E4A1278012AF0
S315080065B015D01BB11B4B1B78022B27D010BD184BCF
S315080065C01B78002BFAD1174B1B78002BF6D140F617
S315080065D0B830FFF77BFF134B01221A70EEE7FFF77F
S315080065E055FF104B00221A700F487BF04CFE48B935
S315080065F00E4C012120467BF00DFA002120467BF047
S3150800660011FADBE70A4877F07FFBD7E7FFF73EFF8B
S31508006610044B00221A70074877F076FBCEE700BFD6
S31508006620220B0020141C0020909301208493012043
S31508006630E0550D0820560D0810B582B00B4B1C68A6
S3150800664011F0E0FF0246002300930121204612F0D4
S3150800665005FF012801D102B010BD054877F054FBAB
S3150800666040F2057000F05EF8F5E700BF540A002016
S3150800667040560D0810B582B0144B1B6813B3044678
S3150800668018F072FF80B10023019301AA21460F4832
S31508006690006811F00BFA019B6BB14FF0E0234FF045
S315080066A08052C3F8042D06E000230122214607483C
S315080066B0006811F003F908B102B010BD044877F07C
S315080066C023FBF9E7034877F01FFBF5E7140B0020D7
S315080066D058560D0888560D0800B585B00123ADF843
S315080066E000300190034B03936846FFF7C3FF05B0DC
S315080066F05DF804FB2965000808B5CB6813B10846A0
S31508006700984708BD014877F0FFFAFAE7B0560D0832
S3150800671008B50146024877F0F7FA18F063FFFEE776
S31508006720E0560D0808B5FFF7F3FF0000124A12F00D
S31508006730070F1ED0D11D21F00701C1F5A043134450
S315080067400A460E480260002141601344083B23F0C4
S3150800675007030B48036059601960991A5160136062
S31508006760084B1960084B1960084B4FF000421A6035
S3150800677070474FF4A043E4E71C1C0020306C00204F
S31508006780181C0020246C0020206C00201C6C0020A3
S3150800679010B500B3044611F02DFF54F8043C0F4A17
S315080067A01268134209D054F8081C69B118F01AFF88
S315080067B00B490C48CDF0CAFFFEE718F013FF0A494B
S315080067C00848CDF0C3FFFEE723EA0203A3F1080455
S315080067D011F0C2FF00E00024204610BD1C6C00200A
S315080067E05C570D0840570D0810570D08014B1868DF
S315080067F0704700BF206C0020014B1868704700BF27
S31508006800246C002008B518F0F9FD034B1A68034BF1
S315080068101A6018F001FE08BD206C0020246C0020C8
S31508006820F8B5074611F0E6FE174B1B6893B14FF013
S31508006830FF3600252C4604E01B68144A12689A4263
S315080068400CD001345A68AA4200D91546B242F3D28E
S315080068501646F1E74FF0FF3600252C4611F07CFF6F
S315080068607D60BE60FC6018F0C9FD094B1B683B6083
S31508006870084B1B687B61084B1B68BB61074B1B6891
S315080068803B6118F0C9FDF8BD306C0020181C0020CB
S31508006890206C0020286C00202C6C0020246C002022
S315080068A010B588B00446164B1B6893B1144B1A46AC
S315080068B01B68A342FBD351685018A0420DD06168EB
S315080068C0601883420ED02360944200D0146008B04A
S315080068D010BD01A8FFF7A4FFE8E76068014451600E
S315080068E01446ECE707480068834206D05B681944FB
S315080068F0616013681B682360E6E72060E4E700BF71
S31508006900306C0020181C002038B5044611F072FEC1
S315080069103E4B1B68EBB13E4B1B681C421CD1631EE9
S3150800692013F10A0F0BD804F1080214F0070F05D06B
S3150800693022F00703083393425AD91A4682B911F04E
S315080069400BFF002578F034FE15F0070F56D12846C0
S3150800695038BDFFF7EBFEDEE711F0FEFE0025F1E796
S315080069602C4B1B68934202D32B490C6805E011F0A7
S31508006970F3FE0025E6E721461C466368934202D2E9
S315080069802368002BF7D1214B1B68A34212D00D6850
S31508006990083523680B6063689B1A102B12D9A01858
S315080069A010F0070F0AD018F01DFE1C491C48CDF040
S315080069B0CDFEFEE711F0D0FE0025C3E74360626016
S315080069C0FFF76EFF626813490B689B1A0B6015493F
S315080069D009688B4201D213490B600D4B1B681343A0
S315080069E0636000232360104A13680133136000E0D4
S315080069F0002511F0B1FE002DA6D1A3E718F0F2FD8F
S31508006A000A490748CDF0A2FEFEE700BF181C002081
S31508006A101C6C0020206C0020306C00207C570D0870
S31508006A2040570D08246C0020286C0020B8570D0824
S31508006A3038B501FB00F419B1B4FBF1F181420AD172
S31508006A402046FFF761FF054618B122460021CDF022
S31508006A5085FB284638BD0025FBE7000080B338B51E
S31508006A600446A0F1080550F8043C164A1268134279
S31508006A7009D050F8081C69B118F0B4FD124913483A
S31508006A80CDF064FEFEE718F0ADFD11490F48CDF0D4
S31508006A905DFEFEE723EA020340F8043C11F0AAFD76
S31508006AA054F8041C0B4A13680B4413602846FFF776
S31508006AB0F7FE094A13680133136011F04DFE38BD1D
S31508006AC0704700BF1C6C00205C570D0840570D0826
S31508006AD010570D08206C00202C6C0020F8B50546D0
S31508006AE00C46FFF755FED8B10746A4B1A04201D11E
S31508006AF02E461AE021460120FFF79AFF0646A0B166
S31508006B003A46A74228BF22462946CDF000FB28462A
S31508006B10FFF7A4FF09E02846FFF7A0FF002604E0D8
S31508006B2021460120FFF784FF06463046F8BD08B522
S31508006B30FFF7EAFE08BD08B5FFF790FF08BD08B5E0
S31508006B40FFF7CCFF08BD08B50846FFF7F0FF08BDFC
S31508006B5008B50846FFF7EFFF08BD08B50846114611
S31508006B60FFF7EDFF08BD08B505F06CFF0EF0C4FF92
S31508006B7077F0BEF834F068F932F096F908BD10B52A
S31508006B8082B00022ADF8062003689C680DF1060362
S31508006B90A047192802D020B1002000E0012002B049
S31508006BA010BD0120FBE7052B01D8002070472F20D8
S31508006BB070470000014B0360704700BF545A0D0828
S31508006BC0024A0260024A0260704700BF785A0D08FE
S31508006BD0545A0D08024A0260024A0260704700BF12
S31508006BE0645A0D0858590D08024A0260024A0260A2
S31508006BF0704700BF345A0D086C590D08034A0260E5
S31508006C00034A0260034A0260704700BFA0830E0869
S31508006C10EC820E08005A0D08024A0260024A026017
S31508006C20704700BFC8860E08205A0D0808B50248E6
S31508006C307BF05CFA08BD00BF34A4012008B5024801
S31508006C407BF05BFA08BD00BF34A4012008B501F04B
S31508006C504DFE08BD038848F20102934204D048F26B
S31508006C600202934212D0704790F90820012AF6D101
S31508006C7010B5094877F048F848F046FB03685C69A0
S31508006C800023064A40F6B831A04710BD90F90930EE
S31508006C90012BE8D1ECE700BFF8570D084D6C00084A
S31508006CA0012800D0704708B54FF6FF73994200D007
S31508006CB008BD0948094B0360094B0360002343607C
S31508006CC08360C3600374436103764376054A0649C5
S31508006CD0CCF0FBF8ECE700BFF46E0020C8590D08AD
S31508006CE048420E0800000020A510080810B5044602
S31508006CF0034B03603821CCF0EDF8204610BD00BFE9
S31508006D00545A0D0810B50446044B0360044B03603F
S31508006D103821CCF0DFF8204610BD00BF785A0D08A0
S31508006D20545A0D0810B50446044B0360044B03601F
S31508006D300421CCF0CFF8204610BD00BF645A0D08D8
S31508006D4058590D0810B50446044B0360044B0360FC
S31508006D500821CCF0BFF8204610BD00BF345A0D08F4
S31508006D606C590D0808B5104B0360D0F8F4317BB99F
S31508006D70D0F8483173B9D0F804316BB9D0F89830E7
S31508006D8063B9436D63B9036963B9084B036008BD0A
S31508006D90CCF09AFFCCF098FFCCF096FFCCF094FF9D
S31508006DA0CCF092FFCCF090FF38750E08DC580D0831
S31508006DB038B504460C4B036043688BB1437C4BB92A
S31508006DC0C5683DB135B12B681B68284698472846E3
S31508006DD075F09EFA0023E36063742374237263607C
S31508006DE0024B2360204638BD00010E08C8590D081D
S31508006DF0406818B108B576F01FFF08BD0320704734
S31508006E00406858B100B583B04FF0000C8DF807C044
S31508006E1032B176F0E3FE03B05DF804FB0320704759
S31508006E200BB12F20F7E70DF10702F2E770B582B034
S31508006E300446A54BD3E88F3F13F0010F3FD0A34B71
S31508006E40D3E88F3F13F0010F47D0A14BD3E88F3F0C
S31508006E5013F0010F4FD09F4BD3E88F3F13F0010F6C
S31508006E6067D09D4BD3E88F3F13F0010F00F0CF801A
S31508006E709A4BD3E88F3F13F0010F00F0DC80984B54
S31508006E80D3E88F3F13F0010F00F0EB802369002B46
S31508006E9000F0F680236B002B00F0F780636B002B65
S31508006EA000F006818F4D2169284688F0F1FD2846B5
S31508006EB087F0FAFD002800F0598102B070BD8248BB
S31508006EC0CCF00AF80028BAD07F48CCF011F8864AE8
S31508006ED086498748CBF0F9FFB1E77C48CBF0FCFF41
S31508006EE00028B2D07948CCF003F87F4A8149824815
S31508006EF0CBF0EBFFA9E77648CBF0EEFF0028AAD047
S31508006F007E4D7F4B2B607F4B2B6000236B602B7273
S31508006F10EB602B616B61AB61EB612B6285F824300A
S31508006F206B48CBF0E5FF704A77492846CBF0CDFF92
S31508006F3091E76848CBF0D0FF002892D06948734B98
S31508006F40036003238380C38000258560704B03603C
S31508006F50C56014230093022300F1280200F12C01D6
S31508006F60103045F0DBFE2B46002B01DB013BFBE72F
S31508006F70684A142300930223111DA2F1180045F054
S31508006F80CDFE0023002B01DB013BFBE7624A2823E9
S31508006F9000930223111DA2F1180045F0BFFE00233D
S31508006FA0002B01DB013BFBE75C4A14230093022319
S31508006FB0111DA2F1180045F0B1FE0023002B01DBDC
S31508006FC0013BFBE7564A482300930223111DA2F111
S31508006FD0180045F0A3FE0023002B01DB013BFBE76D
S31508006FE0504A2C2300930223111DA2F1180045F0E4
S31508006FF095FE0023002B01DB013BFBE73548CBF070
S3150800700077FF394A48493748CBF05FFF29E73248C6
S31508007010CBF062FF00283FF42BAF444D444B2B6066
S31508007020444B2B602C48CBF063FF2F4A4249284635
S31508007030CBF04BFF1CE72948CBF04EFF00283FF466
S315080070401EAF3E4D3E4B2B603E4B2B603E4B2B609E
S315080070502248CBF04DFF244A3C492846CBF035FF61
S315080070600DE71F48CBF038FF00283FF40FAF1C4848
S31508007070CBF03EFF1C4A36493648CBF026FF05E7DB
S315080070801B4B354A5A60236104E722691A4B5B6831
S3150800709033B1032000287FF410AF174B2363FDE6B6
S315080070A0154B0020187258745A60D8601874F1E7A6
S315080070B02569124B5B68002B50D0032000287FF40B
S315080070C0FCAE0E4B6363EDE6EC6E0020E86E002026
S315080070D0BC6E0020506C0020486C00203C6C0020E0
S315080070E0386C0020546C002000000020E96B000872
S315080070F01C000020B16D000808000020C06E0020AA
S315080071008C590D0848780E08B1710008DC580D082E
S3150800711038750E08C06C0020046D0020706D0020C4
S31508007120B46D0020606E0020656D00084C6C002070
S3150800713058590D08645A0D08D56B0008406C002094
S31508007140005A0D08EC820E08A0830E08FD6B000895
S31508007150196C000804000020F04501200F4E336822
S315080071609B6A3046984775600020A7E70C4BE36199
S31508007170236983B10B4A5360002000287FF49DAE33
S31508007180084B63614DF036F82062074B6362074B84
S31508007190A361002091E62F20EFE700BFC06E002014
S315080071A0546C0020406C0020040000204C6C002029
S315080071B010B50446124B0360436823B1104B9B6A13
S315080071C098470023636000222262E06918B175F0CF
S315080071D09FF80023E3610022A261606918B175F087
S315080071E097F80023636100222261E06818B175F000
S315080071F08FF80023E360034B2360204610BD00BFD1
S3150800720048780E088C590D0810B5134B0360D0F852
S31508007210F431ABB90446D0F848319BB9D0F80431FB
S3150800722093B9D0F898308BB9436D8BB903698BB98C
S315080072300A4B03604FF41A71CBF04CFE204610BD82
S31508007240CCF042FDCCF040FDCCF03EFDCCF03CFD50
S31508007250CCF03AFDCCF038FD38750E08DC580D0830
S3150800726010B50446144B0360436823B1124B9B6A5E
S3150800727098470023636000222262E06918B175F01E
S3150800728047F80023E3610022A261606918B175F02E
S315080072903FF80023636100222261E06818B175F0A7
S315080072A037F80023E360054B236028212046CBF0FE
S315080072B011FE204610BD00BF48780E088C590D08EF
S315080072C038B504460E4B036043688BB1437C4BB913
S315080072D0C5683DB135B12B681B68284698472846CE
S315080072E075F016F80023E3606374237423726360F1
S315080072F0044B236014212046CBF0ECFD204638BD14
S3150800730000010E08C8590D0808B50A4876F0FCFCB5
S3150800731009487BF0CAFF00B108BD012106487BF089
S31508007320E7F80028F8D1054876F0EEFC04487AF02C
S31508007330BBFEF1E720580D089093012040580D0830
S3150800734034A4012030B585B00446414941480AF0C5
S315080073500FFE414D284676F0D7FC21463F4876F089
S31508007360D3FC284676F0D0FC31F0C8FA034600B1C3
S315080073700433184647F04CFF31F0C0FA47F04CFE8C
S31508007380374876F0C1FC0021084645F049FC08B1AB
S3150800739005B030BD334B1B78002B41D000200028A8
S315080073A0F6D1214630487AF045FBFFF7ADFF0028B5
S315080073B0EED12E4876F080FF2D4BD3E88F3F13F0A1
S315080073C0010F36D02B4C204679F02CFF2A4D2C6322
S315080073D02846FFF72BFD0024019402940394274BBB
S315080073E00193274B029327487AF0D4FE039001AB0A
S315080073F0AB622946244891F0FDFF1C4D284676F0DD
S315080074006CFF22462149284676F076FE204876F01B
S315080074107BFC284677F01CF80028B9D10020B7E78E
S31508007420104D284677F06CF8B0FA80F35B092B709C
S31508007430B5E70F48CBF050FD0028C3D00C48CBF079
S3150800744057FD144A14490C48CBF03FFDBAE700BF74
S315080074507DCC040875CC04085C580D0890580D08B6
S315080074609C580D08F8450120849301200046012008
S31508007470F06E0020F46E0020240000202D6C000819
S315080074803D6C000890930120E0C70120556C000868
S31508007490AC580D0800000020C16B000808B576F04E
S315080074A031F908BDB0F5803F2CBF00200120704798
S315080074B04068E0B170B584B01D4600238DF80F30E2
S315080074C0BAB100230293019302AB00932B8876F09E
S315080074D067FB0446192800D030B9029E3046FFF7EC
S315080074E0E1FF68B900262E80204604B070BD03204F
S315080074F070472B880BB12F20F7E70DF10F02E0E755
S31508007500B6B2F0E710B50446054B0360054B0360B9
S31508007510054B03600821CBF0DDFC204610BD00BFFB
S31508007520A0830E08EC820E08005A0D0810B5044612
S31508007530044B0360044B03600421CBF0CBFC2046CC
S3150800754010BD00BFC8860E08205A0D0808B54FF6AC
S31508007550FF710120FFF7A4FB08BD0000024A026084
S31508007560024A0260704700BF245C0D08105C0D08D3
S3150800757038B50C4600280CBF012500250CD1074953
S31508007580074876F0C1FB2946064800F079FC14B98D
S31508007590054B01225A7138BD0449F1E7885A0D088E
S315080075A08C5A0D08306F0020486F0020845A0D0849
S315080075B008B5034A02211D2045F0A8FC08BD00BFF6
S315080075C0A05A0D0808B5034A02211D2045F09EFC65
S315080075D008BD00BFB05A0D0808B5044A02211D208F
S315080075E045F094FC024BFF221A7008BDC05A0D08DC
S315080075F05C00002010B5002214460388022B04D034
S3150800760033B140F203746CB110BD02798168FAE7B0
S31508007610094800F010FA10B100210122F3E7002111
S315080076200A46F0E7044800F0BBFA0028ECD1034804
S3150800763076F06AFBE8E700BF606F0020DC5A0D08A9
S3150800764001B300B585B00846002300930193029361
S3150800765003938DF804200C4B994205D00B4B9842A6
S315080076600AD005B05DF804FB012AF7D1084B03934D
S315080076706846FEF7FFFFF4E7064B03936846FEF7F6
S31508007680F9FFEEE7704700BFD4790D08BC790D08FD
S31508007690F57500089D65000808B528B1012807D0CA
S315080076A00A4B5B7943B908BD094876F02DFBF7E725
S315080076B0084876F029FBF3E700220749074876F0E1
S315080076C02FFE024B00225A71EDE700BF486F0020DB
S315080076D0085B0D08145B0D08E176000800460120DA
S315080076E010B5094800F0A7F9044626F08FFE0023D6
S315080076F02246012126F03EFF00B910BD0146034887
S3150800770076F002FBF9E700BF606F0020205B0D08EA
S3150800771010B50446044B0360044B03600821CBF004
S31508007720D9FB204610BD00BF245C0D08105C0D086F
S31508007730012800D070474FF6FF739942FAD130B549
S3150800774085B00F4D0023039302930E4B019302233A
S3150800775000930D4B0D4A0121284623F049FF0C4C96
S3150800776022460C492846CBF0B0FB0B480B4B03606E
S315080077700B4B036022460B49CBF0A7FB05B030BD87
S31508007780106F0020A9770008C5750008B1750008B4
S31508007790000000202DB60208486F0020105C0D0876
S315080077A0245C0D085D75000870B50446037D224A01
S315080077B013700B2B10D0204B1B78FE2B23D015D81B
S315080077C0022B32D847F0A0FD03685D6923461B4AA1
S315080077D041F28831A84770BD837D194A02211D20D0
S315080077E045F094FBA27D144B1A70E4E7FF2B1CD1DD
S315080077F047F08AFD03689B692246104998470E4B55
S31508007800FF221A70E7E747F07FFD03689B690B4D77
S3150800781022462946984747F077FD03685E6923465E
S315080078202A464FF47A71B047D5E7064A02211D2049
S3150800783045F06CFBCFE700BF5C000020D975000857
S31508007840385B0D088C5B0D0870B51649FEF732FDDE
S31508007850C0B9154800F0B2F80446D8B9124E134A12
S315080078601349304600F0E4F8124D1349284600F053
S315080078701BFB304600F0DFF80146284600F000FB07
S31508007880204670BD04460D4876F03EFA2046FEF7BF
S3150800789049FFDEE70A4876F037FA2046FEF742FF48
S315080078A0DCE700BF106F0020606F002099760008A3
S315080078B071750008306F0020B47A0D08A45B0D08B6
S315080078C0C45B0D0830B585B004681148FFF7BCFFE6
S315080078D0A8B9FEF7B1FE0F4876F016FA0A226946ED
S315080078E0204610F0B1F90128F8D169460848FEF794
S315080078F003FF00226946204610F0A6F9F3E705467D
S31508007900054876F001FA2846FEF70CFFE1E700BFC6
S31508007910486F0020F45B0D08DC5B0D0808B50249CA
S31508007920FEF784FC08BD00BFC578000808B54FF609
S31508007930FF710120FFF7FCFE08BD000000B585B009
S3150800794011F036FF0123ADF800300190037D3BB1FD
S31508007950074B03936846FEF78DFE05B05DF804FBFA
S31508007960437D13B1034B0393F4E7034B0393F1E70A
S31508007970157C0008397C0008D17A0008012800D057
S3150800798070474FF6FF739942FAD110B582B0074C8B
S3150800799000230093064A0121204627F081F8054A6C
S315080079A005492046CBF091FA02B010BD506F002071
S315080079B01D7B000800000020C5EA020830B585B026
S315080079C00446164B0093034600220121144811F081
S315080079D029FD144B1860C8B1134D284676F06CFC87
S315080079E026F014FD0DF10F02012126F025FD28468B
S315080079F076F073FC9DF80F3073B10323A370002053
S31508007A00207520732061607505B030BD074876F093
S31508007A107BF940F20470F7E70123EFE73D790008A8
S31508007A20305C0D08786F0020004601203C5C0D088C
S31508007A304160826070478078032814BF00200120C7
S31508007A407047000000B583B0002200921346032158
S31508007A500748006811F002FD10B103B05DF804FB99
S31508007A60044876F051F940F20670FEF75BFEF4E73B
S31508007A70786F00205C5C0D0830B583B005460C466F
S31508007A80104B186811F078FE60B964230093002340
S31508007A90224604210B48006811F0E0FC012808D1B1
S31508007AA003B030BD084876F02FF92846FFF7CAFF1D
S31508007AB0EBE7064876F028F940F20570FEF732FE45
S31508007AC0EEE700BF786F002068550D08785C0D0852
S31508007AD038B54468A378C3B90120A0700546A368E1
S31508007AE00BB128469847237B8BB185B923694FF498
S31508007AF07A7103FB01F12046FFF7BEFF01232375C8
S31508007B002169054876F000F901E0022B00D038BD5E
S31508007B100323A3700025E2E79C5C0D0808B5037AE9
S31508007B20427AF3B92AB1012A0BD0022A11D00021D0
S31508007B301AE0164A02211D2045F0E8F94FF448716B
S31508007B4012E0134A02211D2045F0E0F94FF448716E
S31508007B500AE0104A02211D2045F0D8F94FF4485191
S31508007B6002E0012B06D000210B4801234375FFF7DD
S31508007B7083FF08BD0AB10021F6E7084A02211D2045
S31508007B8045F0C4F940F2DC51EEE700BFD45C0D08BD
S31508007B90205D0D08585D0D08606F0020CC5D0D084E
S31508007BA0F8B504460E4615468378012B01D0427D6A
S31508007BB002B15DB1032B01D00020F8BD012D01D023
S31508007BC00020FAE7637D03BB002700E00227237D38
S31508007BD003B177B1637D03B18FB90A212046FFF758
S31508007BE04BFFA770636893B1314628469847012032
S31508007BF0E3E7002323752046FFF724FFEAE720463C
S31508007C00FFF720FF00236375E7E70020D5E701208B
S31508007C10D3E7000010B54468237D03B910BD0023DF
S31508007C202375044876F070F8012211462046FFF7BE
S31508007C30B7FFF3E7385E0D0810B54468637D03B9EE
S31508007C4010BD00236375044876F05EF801221146DC
S31508007C502046FFF7A5FFF3E75C5E0D0808B54FF66B
S31508007C60FF710120FFF78AFE08BD00002DE9F041EB
S31508007C7084B00E4690461D4644688768A3B20093B2
S31508007C80230C2B4A02211D2045F040F9062C0BD067
S31508007C90082C14D0B4F5407F1FD0072C2BD0032C0A
S31508007CA037D004B0BDE8F081002FF1D12A78B2FAB6
S31508007CB082F2520902211F48FFF772FFF1E72B787B
S31508007CC0CDF80C8002930196BBB200933B0C1A4A7E
S31508007CD002211D2045F01AF9E3E72B78CDF80C8030
S31508007CE002930196BBB200933B0C144A02211D2055
S31508007CF045F00CF9D5E72B78CDF80C800293019660
S31508007D00BBB200933B0C0E4A02211D2045F0FEF83B
S31508007D10C7E72B78CDF80C8002930196BBB2009387
S31508007D203B0C084A02211D2045F0F0F8B9E700BFD0
S31508007D30705E0D08606F0020905E0D08D85E0D0815
S31508007D40205F0D08745F0D0870470000024A026044
S31508007D50024A0260704700BF00DB0D0820600D086C
S31508007D60012800D0704708B54FF6FF73994200D036
S31508007D7008BD034A03490448CBF0A7F8F8E700BF53
S31508007D80000000204D7D00086000002010B5044664
S31508007D90044B0360044B03600821CBF09BF8204694
S31508007DA010BD00BF00DB0D0820600D0810B5FEF7FA
S31508007DB0DAFE1B48FFF7C6FA50BB1A4C1A4BD3F823
S31508007DC08411204647F008FA204647F011FA174C66
S31508007DD0204676F071FA8CF065FD84F055FA204657
S31508007DE076F07BFA124875F08FFF1248FFF796FD7A
S31508007DF090B9114875F088FF04F030FE44F024FF6E
S31508007E000E4875F081FFAC20FEF78CFC002010BDF3
S31508007E10AC20FEF787FCD0E7AC20FEF783FCE8E74A
S31508007E20B85F0D0860000020E0F701200046012039
S31508007E30C85F0D08486F0020DC5F0D08F85F0D0865
S31508007E4070B50446044D2B689E6801F004FA024694
S31508007E5021462846B04770BD486F002008B54FF642
S31508007E60FF710120FFF77CFF08BD08B511F0CAFDB8
S31508007E7008BD006918B108B511F055FD08BD704771
S31508007E8008B50023C360836000220023C0E90023ED
S31508007E90006910B111B111F03CFD08BD11F03EFDAD
S31508007EA0FBE700000000000008B59FED077B80EDAA
S31508007EB0007B00228260C26001611146FFF7E0FF85
S31508007EC008BD00BFAFF300800000000000000000FE
S31508007ED0836823B370B582B00446C368ABB1104B50
S31508007EE019680B68DB6868469847009E019D2069FB
S31508007EF011F01EFD58B1A168236862685B1842F14B
S31508007F000002B34272EB050303D302B070BDE16809
S31508007F10F2E72046FFF7ADFF26606560F5E7704794
S31508007F20E402002008B58160C260FFF7D1FF08BDF2
S31508007F3008B50A46FFF7F6FF08BD38B141B101603A
S31508007F40028100228280C28001207047002070478B
S31508007F5000207047C28892B283889BB29A4216D094
S31508007F60C28892B283889BB29A4209D203898288D0
S31508007F7092B29B1AC08880B210FA83F080B270471A
S31508007F80C3889BB2808880B2181A80B270470020D6
S31508007F90704710B50489FFF7DDFF201A80B210BDBF
S31508007FA0F8B548B30F461546044659B303899342B4
S31508007FB02ED3FFF7EEFFA8421DD32689E3889BB28E
S31508007FC0F61AB6B2B54229D92368E0883246394648
S31508007FD013FA80F0CCF09BF8AA1BB9192068CCF0EC
S31508007FE096F8E28815FA82F5228995FBF2F302FBE8
S31508007FF01355ADB2E580F8BD0D4B0E4A96210E48D5
S31508008000CBF06AFE0D4B0B4A97210B48CBF064FE6A
S315080080100B4B084A98210848CBF05EFE2368E08897
S315080080202A46394613FA80F0CCF071F8D9E700BF32
S3150800803048600D0850600D0880600D08FC600D084A
S315080080400C610D0870B516461D46DCB20E4B1A7843
S31508008050A41AE4B20D48FFF79CFFA2B2904209D2D7
S315080080600B4B2A4631460B48006812F0B5F87BF0F0
S3150800807029F970BD044C218831440448FFF790FF64
S3150800808000232380ECE700BF887100207C6F002066
S315080080904580000878010020F8B550B30F4615460C
S315080080A0044661B3038993422FD3FFF753FFA842CF
S315080080B031D92689A3889BB2F61AB6B2B5422FD90A
S315080080C02368A188324613FA81F13846CCF01FF8A6
S315080080D0AA1B2168B819CCF01AF8A38815FA83F3F5
S315080080E0228993FBF2F102FB11339BB2A380E8B21B
S315080080F0F8BD104B104AB5211048CBF0EDFD104BDA
S315080081000D4AB6210D48CBF0E7FD0E4B0A4AB721BA
S315080081100A48CBF0E1FD2046FFF71CFF0546C8E7F5
S315080081202368A1882A4613FA81F13846CBF0EFFF77
S31508008130D3E700BF48600D082C610D0880600D0864
S3150800814064610D086C610D0838B500F0DEFC4FF46B
S31508008150807212491248FFF7F0FE124D124C2B4658
S3150800816080221249206812F037F82B4680221049DF
S31508008170206812F031F80F4B4FF40062C3F88021E3
S315080081801A600D4800F500520423D36400F58052A6
S315080081901365052112F0A2F838BD00BF88700020CB
S315080081A07C6F00204580000878010020886F002039
S315080081B00870002000E100E00000015B08B57BF0D4
S315080081C081F8024B0422DA6408BD00BF0020015B77
S315080081D058B110B50C46014654B12246074B1868EB
S315080081E011F09AFF38B920B210BD4FF0FF30704732
S315080081F04FF0FF30F8E74FF0FF30F5E77801002041
S31508008200002830D070B584B00C46054600292DD01C
S315080082101848FFF79FFEA04207D32246294615486D
S31508008220FFF73AFF00B204B070BD02F062FF0646DF
S3150800823001AB02AA03A91048006811F03CFF0F4BD6
S315080082401B88029A934203D3304602F058FFE4E7AC
S31508008250D21A92B2039919440648FFF7A1FE074BB2
S31508008260029A1A80F0E74FF0FF3070474FF0FF3060
S31508008270D9E700BF7C6F00207801002088710020B4
S3150800828070B504460A694B6952EA03001ED088682D
S31508008290C96810EB000C41EB010E1CEB000C41EB1E
S315080082A00E0E4FEA4E1545EADC654FEA4C161CEBF6
S315080082B0060C4EEB050E1CEB000041EB0E01CBF055
S315080082C073FB012323706070204670BD0023237062
S315080082D06370F9E7D0E9020170472D2070472D2019
S315080082E0704701207047012070470000024A02606B
S315080082F0024A0260704700BF28070E0880620D0810
S3150800830070474FF4806070470023836070470023EE
S3150800831043607047044A026020324260034A426062
S31508008320034A0260704700BFB0630D089C620D08DF
S3150800833054620D080346064A40F8042C203240F8D9
S315080083400429044A4260044A43F8042C704700BFD3
S31508008350B0630D089C620D0854620D08024A02605B
S31508008360024A0260704700BF4CC80D0868630D08D2
S31508008370024A0260024A0260704700BFACC70D0895
S31508008380BC620D0810B50446064B036020334360F3
S31508008390054B4360054B03601021CAF09BFD204640
S315080083A010BD00BFB0630D089C620D0854620D082D
S315080083B010B50446084B40F8043C203344F8043909
S315080083C0064B6360064B40F8043C10212046CAF071
S315080083D081FD204610BD00BFB0630D089C620D08E4
S315080083E054620D0810B50446054B0360006B18B1BE
S315080083F073F08EFF00232363024B2360204610BDD3
S31508008400D4400E08F8610D0810B50446054B036004
S31508008410406B08B147F088F900236363024B236079
S31508008420204610BD50BD0D082C620D0810B5044637
S31508008430174B03606433436000F51C7048F090F9ED
S3150800844014F5EC7205D004F5147300E0183B9A4253
S31508008450FCD1104BE3672033C4F880300E4BC4F8C8
S3150800846080300E4BE36704F13800A36D13B1002288
S31508008470A265984704F10800A36A13B10022A26214
S315080084809847074B6360074B2360204610BD00BF23
S3150800849090C40D08B0630D089C620D0854620D085F
S315080084A068620D080C630D0838B505460446194B75
S315080084B040F8043C643344F8043900F51B7048F06E
S315080084C04FF915F5EA7205D004F5147300E0183B68
S315080084D09A42FCD1104BE3672033C4F880300F4B27
S315080084E0C4F880300E4BE36704F13800A36D13B16E
S315080084F00022A265984704F10800A36A13B1002276
S31508008500A2629847074B6360074B45F8043C204630
S3150800851038BD00BF90C40D08B0630D089C620D08F5
S3150800852054620D0868620D080C630D080E4BD3E8FB
S315080085308F3F13F0010F01D00C48704710B50A4859
S31508008540CAF0CAFC08B9094810BD084C084B236094
S31508008550084B23600448CAF0CBFC074A0749204663
S31508008560CAF0B3FCEFE700BF8C71002090710020C1
S3150800857080620D0828070E0800000020ED8200081A
S3150800858010B50446054A01210C2044F0BFFCE068FA
S3150800859010B103689B68984710BD00BF88610D0835
S315080085A010B50446054A01210C2044F0AFFCA0682A
S315080085B010B103689B68984710BD00BF88610D0815
S315080085C030B583B0C068D8B10D4614461A68019212
S315080085D000221A6001AA214629F0B2FB019808B1C7
S315080085E047F0A2F8002301930C4B1B680093A3885D
S315080085F06BB12B8943F040032B81002003B030BDBB
S31508008600074A01210C2044F081FC0020F6E7E388A4
S31508008610002BEED12378402BEBD1EEE7E8630D086B
S315080086209C610D0830B583B08068D8B10D461446F4
S315080086301A68009200221A606A46214629F080FBD1
S31508008640009808B147F070F8002300930C4B1B689C
S315080086500193A3886BB12B8943F040032B8100203B
S3150800866003B030BD074A01210C2044F04FFC00201E
S31508008670F6E7E388002BEED12378402BEBD1EEE723
S31508008680E8630D089C610D08F0B587B006460C46F0
S31508008690224A0321152044F039FCB568002D2DD057
S315080086A00023ADF810301E4B1B68039323893BB398
S315080086B01C4A1268039253B30123ADF81030277B86
S315080086C0606846F087FF6368059304AB009305ABC3
S315080086D03A46A168284644F0B5FF0446059808B10D
S315080086E047F022F8002305932CB1B06818B144F07E
S315080086F0D5FD0023B360204607B0F0BD0320FBE795
S315080087006289022AD4D1227B142AD1D1D7E7638978
S31508008710002BD1D1237B402BCED1D0E7D0610D08D9
S31508008720EC630D08E8630D08012800D070474FF682
S31508008730FF739942FAD170B58AB04C4B4C4A1A600D
S315080087404C4A5A604C4A1A6064325A6003F108026D
S31508008750DA609A6000229A62DB6248491963CDF8AA
S3150800876004D0CDF800D0089203F13801D963996393
S315080087709A65DB65424919669A66DA661A6783F866
S3150800878074209A673F49D9673F49C3F880103F4923
S31508008790D9672031C3F8801083F8AC20C3F8B82015
S315080087A0C3F8BC20C3F8C020C3F8C420C3F8C82146
S315080087B0C3F8CC2183F8D021C3F8D421042203F5C9
S315080087C0EC7303E0002103F8181B013A002AF9DAD2
S315080087D026480024C0F850420523C0F8543280F8D1
S315080087E05842C0F87442C0F87842294BC0F8703233
S315080087F080F87C42274E32462749CAF066FB324645
S3150800880026492748CAF061FB324626492648CAF057
S315080088105CFB264D264B2B606C602C722846254B3C
S3150800882040F8103B91F084FFC5F8D040C5F8D44015
S31508008830C5F8D840C5F8DC4032461F492846CAF074
S3150800884044FB1E481E4B036000220023C0E9022396
S31508008850C0E904231B4B03608461C4610463446359
S3150800886032461949CAF031FB0AB070BDB072002011
S315080088700C630D0868620D0890C40D084943030887
S31508008880C12D030854620D089C620D08B0630D08DB
S3150800889060130E08000000202D8400085D83000880
S315080088A0680000207183000870000020987100207D
S315080088B02C620D0850BD0D08098400087872002046
S315080088C0F8610D08D4400E08E583000810B5044683
S315080088D0044B0360044B03600421CAF0FBFA2046EC
S315080088E010BD00BF28070E0880620D08F0B583B0DA
S315080088F00F4F38462AF0ACF80E4901F54053D3F825
S3150800890084310D4A53600D4E0D4D00953346384659
S315080089102AF0AAFD0B4B33610B4C224639463046EA
S315080089202CF0D2F8094B636325626C6003B0F0BD86
S31508008930B0720020E0C70120680000207000002007
S31508008940987100208051010078720020E4610D08BA
S3150800895010B50446194B03606433436000F51C7078
S3150800896047F0FEFE14F5EC7205D004F5147300E02A
S31508008970183B9A42FCD1124BE3672033C4F8803087
S31508008980104BC4F88030104BE36704F13800A36D30
S3150800899013B10022A265984704F10800A36A13B12F
S315080089A00022A2629847094B6360094B23604FF483
S315080089B022712046CAF08EFA204610BD90C40D08D2
S315080089C0B0630D089C620D0854620D0868620D08B4
S315080089D00C630D0838B5054604461B4B40F8043CA5
S315080089E0643344F8043900F51B7047F0B9FE15F5F1
S315080089F0EA7205D004F5147300E0183B9A42FCD1DC
S31508008A00124BE3672033C4F88030114BC4F880302A
S31508008A10104BE36704F13800A36D13B10022A26579
S31508008A20984704F10800A36A13B10022A262984786
S31508008A30094B6360094B45F8043C4FF42271204604
S31508008A40CAF048FA204638BD90C40D08B0630D0830
S31508008A509C620D0854620D0868620D080C630D08C7
S31508008A6010B50446044B0360044B03600821CAF0A2
S31508008A7031FA204610BD00BF4CC80D0868630D08C2
S31508008A8010B50446044B0360044B03601C21CAF06E
S31508008A9021FA204610BD00BFACC70D08BC620D0800
S31508008AA010B50446074B0360406B08B146F03CFE20
S31508008AB000236363044B2360E0212046CAF00AFAC8
S31508008AC0204610BD50BD0D082C620D0810B5044691
S31508008AD0074B0360006B18B173F01AFC002323637D
S31508008AE0044B236038212046CAF0F4F9204610BD0D
S31508008AF0D4400E08F8610D0808B54FF6FF7101203D
S31508008B00FFF712FE08BD0F20704708B5012304229F
S31508008B100021184602F032FD002008BD08B50121E3
S31508008B203A2001F041FA10F06DFE11F0DBFE08BDA7
S31508008B3008B501213A2001F037FA08BD0D4B1B682C
S31508008B40B3F1FF3F06D04FF4801202FA03F30A4A44
S31508008B5013667047094B1B785BB9094B4FF40072D3
S31508008B605A6603F5A6235B681BB9034B4FF48012BC
S31508008B701A667047DC0000200090004454750020F7
S31508008B8000900050084B1B68B3F1FF3F0AD1074B12
S31508008B901B783BB9064B5B6813F0010F02D0024BFA
S31508008BA000221A60704700BFDC00002054750020C0
S31508008BB000C005504FF000639B6A03F17842B2F596
S31508008BC0C04F07D21A680B4B9A4207D0002303708E
S31508008BD08360704700230370836070470123037026
S31508008BE04FF000639A6A926842609B6A9B69836049
S31508008BF0704700BF07B0CD5E4FF0005340F2022227
S31508008C001A804FF20F025A80BFF34F8F0549CA6880
S31508008C1002F4E062044B1343CB60BFF34F8F00BFEF
S31508008C20FDE700BF00ED00E00400FA054FF0006321
S31508008C309B6A03F17843B3F5C04F19D230B585B0B6
S31508008C4005460C4601238DF804300023029303934E
S31508008C5001A8FFF7AFFF039B13F4806F06D04FF010
S31508008C6000639B6A1B6C21462846984705B030BDB1
S31508008C70704700003A4B1B78002B59D130B583B0AA
S31508008C80044600230193009300284FD00125344B56
S31508008C901D7002F02EFA334B1860C5F0F5FA324B08
S31508008CA05A6E22619A6E626103F580524FF48043D0
S31508008CB093662E4B5968A1612D499960196E2160FA
S31508008CC0596E6160196CA160596CE1602949086C9C
S31508008CD01864496C596455661B6E13F4005F2BD0F3
S31508008CE0254BDB6813F0010FFAD1FFF727FF234B5B
S31508008CF004221A664FF400721A6600F0CDF9B0F134
S31508008D00FF3F1FD11D4C082323664FF4805323666B
S31508008D104FF0006323664FF400236366694601A893
S31508008D20FFF784FF019B2366009B636603B030BD93
S31508008D300B4B02221A707047114BDB6813F0010FB8
S31508008D40FAD1D2E700F0A8F940F201139842D9D037
S31508008D500A4B4FF400521A664FF480421A66D1E75E
S31508008D60557500205875002000800050008000448A
S31508008D7055CEAC0000C000540000044000900044EA
S31508008D80000004501F4B1B78012B03D01D4B0122FA
S31508008D901A70704710B5044620B300F07DF9B0F19B
S31508008DA0FF3F20D12268184B1A6662685A66A26885
S31508008DB01A64E2685A64A36913F0010F02D0124BD1
S31508008DC000229A60FFF7DEFE2269104B5A66626936
S31508008DD09A66C5F075FA0E4B186802F090F9094BB9
S31508008DE000221A7010BD00F057F940F2011398429C
S31508008DF0D8D0084B01225A66074BDB6813F0010FDF
S31508008E00FAD1CFE755750020008000440080005055
S31508008E1058750020009000400000044038B54FF017
S31508008E2000639B6A03F17843B3F5C04F18D20E4B23
S31508008E301B781BB1022B01D0002413E00B4D2846EA
S31508008E40FFF718FF4FF000639B6ADB6998470446F3
S31508008E502846FFF797FF2CB9034B01221A7001E049
S31508008E604FF48174204638BD5475002038750020AB
S31508008E7038B54FF000639B6A03F17842B2F5C04FEC
S31508008E8014D204461B6B03F17843B3F5C04F0DD2D9
S31508008E90074D2846FFF7EEFE4FF000639B6A1B6BF3
S31508008EA05B68204698472846FFF76CFF38BD00BF29
S31508008EB05C75002008B54FF000639B6A03F17842A1
S31508008EC0B2F5C04F08D21B6B03F17842B2F5C04F1A
S31508008ED005D29B68984701E04FF4817008BD4FF4AE
S31508008EE08170FBE730B583B001904FF000639B6A51
S31508008EF003F17842B2F5C04F16D21B6B03F17843E3
S31508008F00B3F5C04F15D20C4D2846FFF7B3FE4FF008
S31508008F1000639B6A1B6B9B69012101A8984704465D
S31508008F202846FFF72FFF01E04FF48174204603B06F
S31508008F3030BD4FF48174F9E75C7500202DE9F041E6
S31508008F404FF000639B6A03F17844B4F5C04F17D21B
S31508008F5007460E4615461B6BBBB1DFF83480404604
S31508008F60FFF788FE4FF000639B6A1B6B5B6A2A4615
S31508008F7031463846984704464046FFF703FF01E066
S31508008F804FF401742046BDE8F0814FF40174F9E707
S31508008F905C75002070B54FF000639B6A03F1784258
S31508008FA0B2F5C04F18D205460C461B6B03F1784341
S31508008FB0B3F5C04F14D20C4E3046FFF75BFE4FF0A8
S31508008FC000639B6A1B6B9B6A2146284698470446A2
S31508008FD03046FFF7D7FE01E04FF40174204670BD16
S31508008FE04FF40174FAE700BF5C75002030B5ADF5A3
S31508008FF00F7D4FF000639B6A03F17843B3F5C04FCA
S3150800900015D20C464FF40E726946FFF797FF0546D0
S3150800901078B921466846FFF7BDFF40F2012398421A
S31508009020F7D040F20323984203D0054601E04FF4F7
S31508009030017528460DF50F7D30BD0000F8B50D46C3
S315080090404FF000639B6A03F17841B1F5C04F19D21E
S31508009050044616461B6B03F17843B3F5C04F15D289
S315080090600C4F3846FFF706FE4FF000639B6A1B6BF2
S315080090709B6B324629462046984704463846FFF7F2
S3150800908081FE01E040F201142046F8BD40F20114C9
S31508009090FAE700BF5C7500204FF000639B6A03F196
S315080090A07842B2F5C04F29D21B6B03F17843B3F56A
S315080090B0C04F26D200B585B001238DF804300023B1
S315080090C00293039301A8FFF775FD039B13F4803FF2
S315080090D01AD0029BC3F307421B0E18D0012B08D0E7
S315080090E04FF000639B6A1B6B1B6C984705B05DF8D5
S315080090F004FB0A2AF4D840F20110F7E740F20110FF
S31508009100704740F20110704740F20110EEE740F256
S315080091100110EBE770B54FF000639B6A03F17842E4
S31508009120B2F5C04F18D205460C461B6B03F17843BF
S31508009130B3F5C04F14D20C4E3046FFF79BFD4FF0E7
S3150800914000639B6A1B6BDB6B2146284698470446DF
S315080091503046FFF717FE01E040F20114204670BDC5
S3150800916040F20114FAE700BF5C7500202DE9F041D2
S3150800917090B017461D464FF000639B6A03F178428C
S31508009180B2F5C04F4ED206460C461B6B03F1784328
S31508009190B3F5C04F4BD201A8FFF76AFE059BD3F87B
S315080091A00C801FFA88F3002B44D00EA93046FFF72F
S315080091B081FEC8BB0E9E63190F9A93423DD81FFACB
S315080091C088F8B4FBF8F208FB1242F2B1C8F1000CB9
S315080091D00CEA04004044B3FBF8F108FB113179B1FD
S315080091E003EA0C018844A8EB0001304411B1FFF7EB
S315080091F091FFC8B92A4639463019FFF71FFF13E011
S31508009200A2EB080808EB0501EFE73019B5FBF8F300
S3150800921008FB135323B1C8F1000129404144E5E78F
S315080092202946E3E74FF4817010B0BDE8F0814FF4AA
S315080092308170F9E740F20140F6E740F20240F3E7B1
S3150800924003680B600160704708B543680BB198471F
S3150800925008BD2220FCE708B543690BB1984708BD4D
S31508009260FF20FCE70A681378022B00D1704710B577
S3150800927008461379517903EB43031B011433064C53
S315080092801B59CB4013F0010F0CBF012300231370A9
S31508009290FEF7D6FD10BD00BF30C0035030B583B011
S315080092A00546046801213A2000F07EFE00230122CB
S315080092B06179207902F062F92379627903EB430335
S315080092C01B0114330F495B58D34013F0010F0CBF31
S315080092D0012300232370A379022B02D0002003B0B8
S315080092E030BD00F057FA2A460749607900F07AFA45
S315080092F002466179207901230193009302F0AAF8C6
S31508009300ECE700BF30C00350659200080368187880
S315080093107047000002681378022B12D0137951792E
S3150800932003EB43031B01143312481B58CB4003F0CD
S31508009330010003469179012904D011B980F0010092
S31508009340107070475188490089B20B4343F47F4334
S3150800935043F0C0034FF6E0718B4205D04FF6DF713C
S315080093608B4204D05380704701211170F6E7002123
S315080093701170F7E730C0035008B503681A78022A57
S3150800938000D008BD00225A80FFF788FFF9E710B51C
S3150800939082B004682378022B04D0A379022B03D069
S315080093A00223237002B010BD0021607900F00AFA8A
S315080093B0617920790023019300930A4602F04AF85E
S315080093C0EEE70000F0B585B00C4694469DF83410DB
S315080093D0664A1278002A00F0BD800546BCF1070FE0
S315080093E000F2BA800A9A002A00F0B8800B9A002A7E
S315080093F000F0B6800E9AB2F5006F00F3B38001282C
S315080094005BD05B4A02EB0C12127B002A00F0AC80A0
S3150800941000220092019202920392564A02EB4C1ED7
S31508009420002C4FD14FEA4C1600209051CEF804007C
S31508009430CEF80800CEF80C009EF8020040F01000A6
S315080094408EF802009EF8030040F030008EF8030004
S3150800945021B9C1B241F003018EF8031000930E9BA7
S31508009460013B444A4FEA4C1002EB4C11165A63F37F
S315080094700E1616520A9B8B600B9B4B60CB789DF899
S315080094803C2062F38303CB70012D36D0109B002B52
S3150800949056D0374A4FEA0C1102EB0C13109850506D
S315080094A0119A5A6000249C605D737246694660464C
S315080094B002F002F9204605B0F0BD0C9A002AA0D1A8
S315080094C02D48F8E72B4F4FEA4C1607EB4C120020B5
S315080094D0B85150609060D060907840F0100090705D
S315080094E0D07840F00300D0700029B7D107EB4C12B2
S315080094F0C1B241F03001D170B0E70E460A7B42F0A6
S3150800950001020A73D2B242F002020A73CA6804213F
S3150800951061F39F02F26006F1100796E80F0087E8EC
S315080095200F00F2696FF0030161F39F02F2610C9B71
S315080095307361012CAAD10B9AB2610C9A7260A5E7E5
S31508009540002DA6D10B4B03EB4C139A786FF304123C
S315080095509A709EE70948AEE70748ACE70648AAE7C7
S315080095600548A8E70448A6E70548A4E7F8760020D2
S3150800957078750020F8750020018000F0028000F060
S31508009580078000F0134B1B78FBB110B50446F0B109
S3150800959001F0AFFD0023072B13DC0F4A02EB031281
S315080095A0127B0AB10133F6E723600B4A190102EB75
S315080095B0031301241C730024545001F0A0FD204617
S315080095C002E001F09CFD054810BD054870470548B6
S315080095D0FAE700BFF876002078750020048000F0CE
S315080095E0028000F0018000F000B583B0144B1B68C0
S315080095F0019300238DF8043001F07BFD114B1B7895
S3150800960033B9104B01221A7001F079FD002309E0E5
S3150800961001F075FD0C480FE00C4A02EB031200211D
S3150800962011730133072BF7DD04238DF807300DEB93
S31508009630030002F00FF8002003B05DF804FB00BF3A
S31508009640F0630D08F8760020038000F07875002096
S3150800965000B589B084460E9807900D9806909DF837
S31508009660300005900B9804909DF828000390002080
S315080096700290019300920B4662460121FFF7A2FE73
S3150800968009B05DF804FB00000C4B1B7873B110B5EC
S315080096900C4607280CD869B1094B03EB00131B7B52
S315080096A053B102F053F82060002010BD05487047FA
S315080096B00548FAE70448F8E70448F6E7F87600208C
S315080096C078750020028000F0018000F0078000F025
S315080096D0F8B5194B1F6D5B6D1F4002D40125002498
S315080096E002E0FEE701346D00072C24D83D42F9D08C
S315080096F0124B1D652301124AD358002BF2D002EBF8
S315080097000416B1680131B16072682046984780F046
S315080097100100C0B2737B012BE4D10028E2D0094BCB
S3150800972003EB44131A7B6FF341021A731A7F6FF324
S3150800973041021A77D6E7F8BD00000450002004500D
S3150800974078750020F875002010B5044602E0202040
S3150800975007E09047DCB194FAA4F00028F7D0B0FAF5
S3150800976080F00123834024EA0304094B03EB00132A
S315080097705A68002AEED0064B03EB00131B7B002B1E
S31508009780E7D0034B03EB001399689047E2E710BD57
S31508009790FC76002008B5192001F0B4FC28B1084B66
S315080097A04FF00072C3F880211A601A2001F0AAFC53
S315080097B028B1034B4FF08062C3F880211A6008BDB8
S315080097C000E100E038B505460C4601F092FC044B72
S315080097D003EB05135C6000221A7301F090FC38BD98
S315080097E0FC760020F8B505460F46164601F081FCC2
S315080097F005F0FC0C104BD3F824140023032B0CD8CB
S31508009800EC1804F0030444EA0C0421FA04F212F0FA
S31508009810010F03D00133DBB2F0E7FF24FF2C06D09B
S31508009820064B03EB04135F609E6001221A7301F076
S3150800983066FC2046F8BD00BF00C00350FC76002039
S3150800984008B5084BD3F82404D3F82024104000F0B8
S31508009850553020F0502003F50053C3F82004FFF7D5
S3150800986073FF08BD00C0035008B5084BD3F824049D
S31508009870D3F82024104000F0AA3020F0A02003F5E9
S315080098800053C3F82004FFF75FFF08BD00C003506C
S3150800989008B5034B1968034B1868C8F04BFD08BD9B
S315080098A0E4000020E0000020B0F1FF3F01D010B92D
S315080098B07047024870470248704700BF21E000F031
S315080098C024E000F08908002301E0043001338B42CC
S315080098D005D20268B2F1FF3FF7D000207047012099
S315080098E07047704738B50446CBF0AAFDFFF7DCFF92
S315080098F0054650B9074B9B680A3303F01F0301213D
S3150800990099402046FFF7DEFF08B1284638BD024DCC
S31508009910FBE700BF0080E00F0EE000F0F8B5054653
S315080099200E4694002246CBF093FDFFF7BDFF07468F
S3150800993028B9224631462846CAF0D9FB08B938461E
S31508009940F8BD014FFBE700BF10E000F008B503467D
S31508009950084613F0030F02D111F0030F0AD0920044
S315080099601946CAF0D4FB002008BD53F8041B40F87A
S31508009970041B013A002AF8D1F5E7000010B582B0B9
S31508009980044601A802F022F89DF806302380012239
S31508009990E2700020A070054B9B680A3303F01F0392
S315080099A002FA03F3636002B010BD00BF0080E00F47
S315080099B008B501F0F9FE08BD08B501F0E5FE00207E
S315080099C008BD000008B501F08DFB014B186008BD05
S315080099D0707C002008B5024B186801F087FB08BDAB
S315080099E0707C002070470000024B4FF480321A67E3
S315080099F0704700BF0090005038B505460C460C4B22
S31508009A00D3F8803003F00303012B08D0022B0AD0C9
S31508009A100023184605B1286004B1236038BD11F04B
S31508009A205BF80E23F6E711F0A5F80723F2E700BF67
S31508009A300080005038B505460C46164BD3F8203141
S31508009A4003F00703013B052B20D8DFE803F0030BDF
S31508009A50130F171B11F03AF8052305B1286004B156
S31508009A60236038BD11F068F80323F6E711F082F891
S31508009A700723F2E711F07AF80223EEE711F026F849
S31508009A800623EAE711F058F80423E6E70023184608
S31508009A90E3E700BF0080005038B505460C46164B74
S31508009AA0D3F8283103F00703013B052B20D8DFE85C
S31508009AB003F003131B0F0B1711F008F8052305B164
S31508009AC0286004B1236038BD11F000F80623F6E7D4
S31508009AD011F050F80723F2E711F02EF80323EEE70A
S31508009AE011F02AF80423EAE711F040F80223E6E722
S31508009AF000231846E3E700BF0080005070B582B027
S31508009B0006460D4600230193104BD3F8804104F016
S31508009B100304022C16D0032C0FD0012C07D00024E6
S31508009B200EB1019B336005B12C6002B070BD0021F7
S31508009B3001A8FFF77FFF1024F2E711F01BF8019048
S31508009B400724EDE711F012F80190E9E700800050CC
S31508009B5030B583B005460C4600230193144BD3F861
S31508009B60203203F00703013B032B1ED8DFE803F07E
S31508009B70020E1318002101A8FFF78EFF12230DB15C
S31508009B80019A2A6004B1236003B030BD10F0F2FFD9
S31508009B9001900723F3E711F031F801900A23EEE765
S31508009BA011F032F801900923E9E70023E7E700BF3F
S31508009BB00080005038B505460C460F4BD3F84031A7
S31508009BC003F00303022B0ED0032B10D0012B06D073
S31508009BD00023184605B1286004B1236038BD11F08A
S31508009BE00DF80A23F6E711F00FF80923F2E711F04A
S31508009BF008F80C23EEE700BF0080005030B583B0AC
S31508009C0005460C46002301934FF0E0231B6913F029
S31508009C10040F0CD010F07AFF01900D2300930DB1BC
S31508009C20019B2B600CB1009B236003B030BD6946D5
S31508009C3001A8FFF7BFFFF2E730B583B005460C462B
S31508009C4000230193144BD3F8603203F00703013B5A
S31508009C50032B1FD8DFE803F0020E1914002101A810
S31508009C60FFF7E8FE10230DB1019A2A6004B12360BC
S31508009C7003B030BD002101A8FFF79CFF1123F2E7CE
S31508009C8010F078FF01900723EDE710F06FFF0190C1
S31508009C900223E8E70023E6E70080005030B583B0EA
S31508009CA005460C4600230193144BD3F8943203F06F
S31508009CB00703013B032B1FD8DFE803F0020E191434
S31508009CC0002101A8FFF7B6FE10230DB1019A2A60FC
S31508009CD004B1236003B030BD002101A8FFF76AFF75
S31508009CE01123F2E710F046FF01900723EDE710F085
S31508009CF03DFF01900223E8E70023E6E700800050D5
S31508009D0030B583B005460C46002301930C4BD3F8B7
S31508009D10703203F00303012B09D0022B0DD1152352
S31508009D200DB1019A2A6004B1236003B030BD002149
S31508009D3001A8FFF73FFF1123F2E70023F0E700BF72
S31508009D400080005038B505460C46124BD3F8003251
S31508009D5003F00703013B032B18D8DFE803F0020AD8
S31508009D600E1210F04BFF0A2305B1286004B12360D8
S31508009D7038BD10F049FF0923F6E710F042FF0C231F
S31508009D80F2E710F0C3FE800A0F23EDE7002318461A
S31508009D90EAE700BF0080005038B505460C46124B6E
S31508009DA0D3F8083203F00703013B032B18D8DFE882
S31508009DB003F0020A0E1210F021FF0A2305B12860EB
S31508009DC004B1236038BD10F01FFF0923F6E710F031
S31508009DD018FF0C23F2E710F099FE800A0F23EDE72F
S31508009DE000231846EAE700BF0080005038B505464C
S31508009DF00C460F4BD3F8403203F00303022B0ED068
S31508009E00032B10D0012B06D00023184605B1286075
S31508009E1004B1236038BD10F0F1FE0A23F6E710F00E
S31508009E20F3FE0923F2E710F0ECFE0C23EEE700BF81
S31508009E300080005038B505460C460F4BD3F8603104
S31508009E4003F00303022B0ED0032B10D0012B06D0F0
S31508009E500023184605B1286004B1236038BD10F008
S31508009E60CDFE0A23F6E710F0CFFE0923F2E710F03D
S31508009E70C8FE0C23EEE700BF0080005038B5054643
S31508009E800C46104BD3F8000100F00300032815D840
S31508009E90DFE800F002080C10012305B1286004B1C0
S31508009EA0236038BD10F048FE0323F6E710F0ACFE39
S31508009EB00923F2E710F058FE0823EEE700231846B8
S31508009EC0EBE700BF00800050B0F5207F20D00ED809
S31508009ED0B0F5007F16D020D810B1B0F5C07F04D1F8
S31508009EE00F4B186FC0F3033018E0002016E0B0F5EA
S31508009EF0607F05D10A4BD3F88000C0F301100DE04E
S31508009F0000200BE0064BD3F89000C0F3046005E090
S31508009F10034B186FC0F3802000E000200130704723
S31508009F200080005038B505460C46174B4FF4803272
S31508009F309A660020FFF7C8FF05FB00F0134BDA69A5
S31508009F4002F4803241F67131D9635B6823F4401319
S31508009F506CB90F49884207D800210B430B494B605F
S31508009F600AB10022CA6338BD4FF48011F5E7002C08
S31508009F7007DD0849884201D80021EEE74FF4801131
S31508009F80EBE74FF44011E8E700900050000003505B
S31508009F90005A6202002D310108B510F0C9FD0021F2
S31508009FA0FFF7C0FF08BD0000430905D0012B0ED0FE
S31508009FB0022B0ED0002200E0002200F01F0051B153
S31508009FC002F58052012303FA00F010607047034A35
S31508009FD0F3E7034AF1E702F50052F3E7648000501D
S31508009FE06880005010B582B0002301930093B0F545
S31508009FF0807F00F20781B0F5807F00F27A81DFE882
S3150800A00010F04A0178017801780178017801780121
S3150800A010780178017801780178017801780178016A
S3150800A020780178017801780178017801780178015A
S3150800A030780178017801780178017801780178014A
S3150800A04078014A017B014A017B0151015101510105
S3150800A050510151017B0121013B01A201A7013B01ED
S3150800A0607B017B017B017801780178017801780111
S3150800A0707801780178017B017B017B01B1016801D8
S3150800A0807B017801780178017801780178017801F7
S3150800A09078017801780178017801780151014A013F
S3150800A0A04A014A015D013B013B01AC017001930184
S3150800A0B09801780178017801780178011201780110
S3150800A0C078017801780178017801780178017801BA
S3150800A0D078017801780178017801780178017801AA
S3150800A0E0780178017801780178017801780178019A
S3150800A0F0780178017801780178017801780178018A
S3150800A100780175017801780178017801780178017C
S3150800A1107801780178017801780178017801780169
S3150800A1207801780178017801780178017801780159
S3150800A1307801780178017801780178017801780149
S3150800A1407801780178017801780178017801780139
S3150800A1507801780178017801780178017801780129
S3150800A1607801780178017801780178017801780119
S3150800A1707801780178017801780178017801780109
S3150800A18078017801780178017801780178017801F9
S3150800A19078017801780178017801780178017801E9
S3150800A1A078017801780178017801780178017801D9
S3150800A1B078017801780178017801780178017801C9
S3150800A1C078017801780178017801780178017801B9
S3150800A1D078017801780178017801780178017801A9
S3150800A1E07801780178017801780178017801780199
S3150800A1F07801780178017801780178017801780189
S3150800A20078019D01B0F5C06F00F09D8010D9B0F5BA
S3150800A210206F00F0A2804AD9B0F5406F00F089801F
S3150800A220B0F5486F5AD1002101A8FFF737FD60E065
S3150800A230B0F5607F6BD00AD9B0F5A06F74D0B0F5D1
S3150800A240B06F2CD1002101A8FFF758FC51E0B0F5FA
S3150800A250007F0AD110F040FC04464FF40070FFF767
S3150800A26033FEB4FBF0F4019443E011D9B0F5207F36
S3150800A27042D0B0F5407F3CD110F048FC04464FF47C
S3150800A2802070FFF721FEB4FBF0F46408019430E077
S3150800A290B0F5C07F2DD110F039FC019029E0B0F55A
S3150800A2A0806F26D1002101A8FFF7C4FB21E0B0F595
S3150800A2B0F06F57D007D9B0F5106F1AD1002101A851
S3150800A2C0FFF76AFD15E0B0F5D06F41D0B0F5E06F45
S3150800A2D00FD1002101A8FFF789FD0AE0B0F5286F24
S3150800A2E007D1002101A8FFF70BFD02E010F0F4FBEF
S3150800A2F00190019802B010BD10F008FC04464FF416
S3150800A3002070FFF7E1FDB4FBF0F40194F1E70021BA
S3150800A3106846FFF771FB009C4FF46070FFF7D4FDA9
S3150800A320B4FBF0F40194E4E7002101A8FFF710FC60
S3150800A330DFE7002101A8FFF7AFFBDAE7002101A854
S3150800A340FFF75CFCD5E7002101A8FFF733FCD0E74F
S3150800A350002101A8FFF7F6FCCBE7002101A8FFF7CB
S3150800A3606BFCC6E7002101A8FFF764FDC1E7000002
S3150800A37008B58020FFF736FE034B984203D8034BF7
S3150800A3804FF480321A6708BD005A620200A00050D6
S3150800A39000B583B000230193B0F5807F00F04A81B1
S3150800A3A018D9B0F5F06F00F04A8140F2DB80B0F5BD
S3150800A3B0206F00F0538140F20481B0F5406F00F041
S3150800A3C04881B0F5486F40F00C8101A90020FFF7DD
S3150800A3D065FCDFE0802800F2DD802428C0F0DA8002
S3150800A3E024385C2800F2D68001A353F820F000BF79
S3150800A3F02BA600082BA600082BA600082BA60008EB
S3150800A4002BA6000895A5000821A6000895A5000812
S3150800A410B9A5000849A6000895A5000895A500084D
S3150800A42095A5000895A5000895A5000895A5000816
S3150800A43095A5000895A5000895A5000895A5000806
S3150800A44095A5000895A5000895A5000895A50008F6
S3150800A45095A500083FA6000879A5000895A5000857
S3150800A46095A5000895A5000895A5000895A50008D6
S3150800A47095A5000895A5000895A5000895A50008C6
S3150800A48095A5000895A5000895A5000895A50008B6
S3150800A49095A500082BA6000895A5000895A500080F
S3150800A4A095A50008D9A5000895A5000895A5000852
S3150800A4B05DA60008E9A50008A9A5000853A6000896
S3150800A4C095A5000895A5000895A5000895A5000876
S3150800A4D095A50008CBA3000895A5000895A5000832
S3150800A4E095A5000895A5000895A5000895A5000856
S3150800A4F095A5000895A5000895A5000895A5000846
S3150800A50095A5000895A5000895A5000895A5000835
S3150800A51095A5000895A5000895A5000895A5000825
S3150800A52095A5000895A5000895A5000895A5000815
S3150800A53095A5000895A5000895A5000895A5000805
S3150800A54095A5000895A5000895A5000895A50008F5
S3150800A55095A5000895A5000895A5000895A50008E5
S3150800A560F3A50008B0F5B06F5AD00AD9B0F5D06F88
S3150800A5706AD0B0F5E06F1CD101A90020FFF736FCC0
S3150800A58008E0B0F5607F04D101A90020FFF734FA8E
S3150800A59000E003D2019803B05DF804FBB0F5806FC4
S3150800A5A043D0B0F5A06FF5D101A90020FFF7D0FA86
S3150800A5B0F0E7B0F5C06FEDD101A90020FFF7FAFA70
S3150800A5C0E8E7B0F5086F04D101A90020FFF756FCAB
S3150800A5D0E0E7B0F5106FDDD101A90020FFF7DCFB3D
S3150800A5E0D8E7B0F5286FD5D101A90020FFF788FB79
S3150800A5F0D0E71D4B1B6F03F00703013B032BC9D89C
S3150800A600DFE803F00B02050805230193C2E70323DD
S3150800A6100193BFE708230193BCE702230193B9E737
S3150800A62001A90020FFF76AFAB4E701A90020FFF79D
S3150800A63001FAAFE701A90020FFF7E0FAAAE701A9A6
S3150800A6400020FFF7F7FBA5E701A90020FFF77AFB33
S3150800A650A0E701A90020FFF71FFA9BE701A9002040
S3150800A660FFF7EAFA96E700BF0080005008B5FFF743
S3150800A6708FFE092810D012D30A38012812D80C4B9D
S3150800A6804FF480025A6603F5D8335B6A13F0010F5C
S3150800A6900BD04FF4FA7001E0064B188808BD4FF648
S3150800A6A0FF70FBE74FF6FF70F8E74FF6FF70F5E728
S3150800A6B0009000500601002038B504468020FFF7B8
S3150800A6C067FE032800F0A380594B4FF480125A66A0
S3150800A6D0584B45F60E02C3F8802003F580524FF01A
S3150800A6E0A061916203F500534FF480329A62514B90
S3150800A6F09B6D13F4803FFAD1226863681B0543EA11
S3150800A7000263227B43EA0243627B43EA0233A27B6B
S3150800A71043EA8213E27B1343464A1361936903F0C3
S3150800A7200043216943EA8163616943EA0163217E43
S3150800A73043EA0143617E43EA0123A17E0B43936109
S3150800A740136A23F00F03E269002A40D111460B432E
S3150800A750E17E43EA81031343364A1362E369002B19
S3150800A76037D1916A344B0B4094F8201043EA4113D1
S3150800A77094F8211043EA011394F8241043EAC1031C
S3150800A78043F4803393622B4B9A6D2C4B9343FAD147
S3150800A790284A02F580514FF080738B62136923F4BF
S3150800A7A07003A06843EA005313614FF000438B61BE
S3150800A7B094F822301BB9224B4FF080729A6294F8B3
S3150800A7C02330EBB91E4B4FF480329A6218E0082109
S3150800A7D0BDE7022B1CD0174A916A174B0B4094F819
S3150800A7E0201043EA411394F8221043EA016394F8CF
S3150800A7F0241043EAC10394F8231043EA0143936201
S3150800A80094F825301BB10B4B0E4AC3F8802038BD8F
S3150800A810084D00232B61AB6100F064FC6A6B82F47F
S3150800A820085303F47F4353406B6300F05FFCD2E7A1
S3150800A830009000500040005AC7FFFEFE03000100CA
S3150800A8400060005AF1A7FFFF014B93F9000070471B
S3150800A8500401002010B443784F2B28BF4F231A4613
S3150800A8601C4B4FF40001596603F5B8334FF4D15128
S3150800A870596203F5805102244C6003F50053012107
S3150800A8805960154B1B6913F4803FFAD1037842EAE5
S3150800A8900323114A5361416883681B0143EA012374
S3150800A8A0017B43EA4103417B0B439360817BC37B76
S3150800A8B01B0143EA4113017C43EA4103417C0B43F4
S3150800A8C05360837C1BB113466FF4D1525A625DF80C
S3150800A8D0044B70470090005000000250014B18804E
S3150800A8E0704700BF0601002008B5002903DD0121D5
S3150800A8F0FFF718FB08BD0021FFF714FBFAE7000075
S3150800A900B0F5207F5DD02DD8B0F5007F4ED061D848
S3150800A91010B1B0F5C07F24D110B54C1EFFF73CFB33
S3150800A92000F060F8FFF760F82B4B196F21F47041BF
S3150800A93041EA0431196710F0E9F8284BD3F8843056
S3150800A94013F0100FF9D1254BD3F88410C1F38111F8
S3150800A950C1F10201FFF7C8FF00F04CF8FFF708FD48
S3150800A96010BD7047B0F5607F1FD11D4BD3F8FC2092
S3150800A97012F0807206D01846D3F8FC3023F08073A4
S3150800A980C0F8FC3001391448D0F8803023F0300381
S3150800A99043EA0111C0F88010E2B1114AD2F8FC303E
S3150800A9A043F08073C2F8FC307047704701390A4A91
S3150800A9B0D2F8903023F0F85343EA0161C2F89010B8
S3150800A9C070470139044A136F23F4806343EA8121EF
S3150800A9D011677047704700BF008000500040005064
S3150800A9E000ED00E008B502214FF42070FFF788FF5C
S3150800A9F008BD000008B54FF4C070FFF7F3FA054B21
S3150800AA00984205D902214FF42070FFF779FF08BD57
S3150800AA100121F8E780F0FA0270B50C46B0F5807FA0
S3150800AA2000F02F8229D9B0F5F06F00F0938240F23A
S3150800AA30EB80B0F5206F00F01A8340F26081B0F524
S3150800AA40406F00F0EC82B0F5486F40F07E81023C22
S3150800AA500F2C00F22B83DFE814F0390329032903AE
S3150800AA60290329033303290329032903290329036E
S3150800AA7029032903290335033703802800F20F81A8
S3150800AA802428C0F00C8124385C2800F2088101A330
S3150800AA9053F820F047AE000847AE000847AE000856
S3150800AAA047AE000847AE00089FAC00081FAE000876
S3150800AAB09FAC0008D9AC000889AF00089FAC000815
S3150800AAC09FAC00089FAC00089FAC00089FAC00082C
S3150800AAD09FAC00089FAC00089FAC00089FAC00081C
S3150800AAE09FAC00089FAC00089FAC00089FAC00080C
S3150800AAF09FAC00089FAC000855AF000821AC0008C1
S3150800AB009FAC00089FAC00089FAC00089FAC0008EB
S3150800AB109FAC00089FAC00089FAC00089FAC0008DB
S3150800AB209FAC00089FAC00089FAC00089FAC0008CB
S3150800AB309FAC00089FAC000847AE00089FAC000811
S3150800AB409FAC00089FAC000831AD00089FAC000818
S3150800AB509FAC00086FB0000851AD0008AFAC000804
S3150800AB601FB000089FAC00089FAC00089FAC000807
S3150800AB709FAC00089FAC00084FAA00089FAC0008CD
S3150800AB809FAC00089FAC00089FAC00089FAC00086B
S3150800AB909FAC00089FAC00089FAC00089FAC00085B
S3150800ABA09FAC00089FAC00089FAC00089FAC00084B
S3150800ABB09FAC00089FAC00089FAC00089FAC00083B
S3150800ABC09FAC00089FAC00089FAC00089FAC00082B
S3150800ABD09FAC00089FAC00089FAC00089FAC00081B
S3150800ABE09FAC00089FAC00089FAC00089FAC00080B
S3150800ABF09FAC00089FAC00089FAC00089FAC0008FB
S3150800AC009FAC000871AD0008B0F5B06F00F0078181
S3150800AC1019D9B0F5D06F00F0B781B0F5E06F58D10B
S3150800AC200B2C00F21A820A2C80F01B82092C40F0A9
S3150800AC301A820222AD49D1F8403223F003031343A6
S3150800AC40C1F840322BE0B0F5607F27D1A84BD3F886
S3150800AC50FC2012F0807206D01946D3F8FC3023F097
S3150800AC608073C1F8FC30072C00F0C3810E2C00F06D
S3150800AC70C281062C00F0BB8100209C49D1F88030A7
S3150800AC8023F003030343C1F8803042B1984AD2F84F
S3150800AC90FC3043F08073C2F8FC3000E000D270BD8F
S3150800ACA0B0F5806F00F0CF80B0F5A06FF7D1073C04
S3150800ACB00B2C00F2A281DFE814F0AA01A001AE0174
S3150800ACC0AC01AC01A001A001A001A001A001A00156
S3150800ACD0B001B0F5C06FE2D10B2C00F231810A2C1D
S3150800ACE080F03281092C40F0318102227F49D1F867
S3150800ACF0403123F003031343C1F84031CFE7B0F5E1
S3150800AD00086F12D1082900F06E81092900F06D81BB
S3150800AD10032900F066810021744AD2F8003123F035
S3150800AD2003030B43C2F80031B9E7B0F5106FB6D18B
S3150800AD30093C062C00F24381DFE814F0430149017F
S3150800AD4049014501410141014701B0F5286FA6D1E6
S3150800AD50112C00F0BD81152C40F0BC810221634AFC
S3150800AD60D2F8703223F003030B43C2F8703296E729
S3150800AD708B1E062B05D8DFE803F04C3A044F040473
S3150800AD80490000252E460121022000F01DFAFFF792
S3150800AD9003F9FFF727FEFEF727FE544A136F23F041
S3150800ADA00703334313670FF0B1FE524BD3F88430D1
S3150800ADB013F0100FF9D14F4BD3F88410C1F381115A
S3150800ADC0C1F10201FFF790FD0121002000F042FACF
S3150800ADD0FFF710FEFFF7CCFA002D7FF460AF032CC7
S3150800ADE07FF45DAF444B4FF480329A6257E7434B8A
S3150800ADF04FF480125A66424B9D6AC5F3006503F507
S3150800AE0080534FF480329A620E46BCE7002504262A
S3150800AE10B9E700250126B6E700250226B3E7072C81
S3150800AE200DD0102C0DD0022C00D000242F4AD2F8B9
S3150800AE30803123F003031C43C2F880412FE7032423
S3150800AE40F4E70124F2E7023C052C04D8DFE804F015
S3150800AE5009050D0F0B0700210AE0022108E004216D
S3150800AE6006E0032104E0052102E0062100E00121B5
S3150800AE701E4AD2F8203123F007030B43C2F82031CB
S3150800AE800DE7A1F10904082C3FF609AF01A353F811
S3150800AE9024F000BFB9AE0008B9AE00089FAC0008A0
S3150800AEA0B9AE00080DAF00089FAC00089FAC0008BB
S3150800AEB09FAC0008B9AE00080C4B596E03F58053D9
S3150800AEC04FF480325A660F4A536A43F001035362BD
S3150800AED011F4803F03D10C4B4FF480325A664FF081
S3150800AEE0E022136923F004031361D8E600800050BA
S3150800AEF000ED00E0004000500060005A009000504D
S3150800AF000040005A00C0075000A00050724B596E0E
S3150800AF1003F580534FF480325A66704A536A23F019
S3150800AF200103536211F4803F03D16D4B4FF4803215
S3150800AF305A664FF0E022136943F004031361AEE644
S3150800AF400C2C05D10322D1E60122CFE60022CDE65C
S3150800AF500022CBE60B2C0DD80A2C0FD2092C0FD1C8
S3150800AF6002225D49D1F8603123F003031343C1F887
S3150800AF70603194E60C2C05D10322F2E70122F0E7B2
S3150800AF800022EEE70022ECE7093C062C05D8DFE8AC
S3150800AF9004F0060C0C0804040A00002106E002214D
S3150800AFA004E0032102E0042100E001214A4AD2F824
S3150800AFB0003223F007030B43C2F800326FE6002184
S3150800AFC006E0022104E0032102E0042100E0012159
S3150800AFD0414AD2F8083223F007030B43C2F8083275
S3150800AFE05DE6012198E6032196E6022194E6032010
S3150800AFF043E6022041E601203FE60021364AD2F820
S3150800B000203223F007030B43C2F8203247E6022119
S3150800B010F4E70321F2E70421F0E70121EEE7023C19
S3150800B020052C04D8DFE804F0090B0D0F05070021ED
S3150800B0300AE0052108E0042106E0032104E00221D4
S3150800B04002E0062100E00121234AD2F8283123F044
S3150800B05007030B43C2F8283121E60C2C05D103223D
S3150800B060E8E50122E6E50022E4E50022E2E5023C05
S3150800B0700F2C09D8DFE804F0180808080812080891
S3150800B08008080808080814160021134AD2F860327E
S3150800B09023F007030B43C2F8603200E60421F4E705
S3150800B0A00121F2E70221F0E70321EEE700210A4A2F
S3150800B0B0D2F8943223F007030B43C2F89432EEE534
S3150800B0C00421F4E70121F2E70221F0E70321EEE784
S3150800B0D0012144E6002142E60080005000C00750E6
S3150800B0E000A00050EFF3108072B6704700B962B640
S3150800B0F07047EFF31180302383F31188704780F38C
S3150800B100118870474209064B53F8223000F01F0099
S3150800B11023FA00F080F0010000F00100704700BF3C
S3150800B12000E100E0EFF3108313F0010F36D110B5FC
S3150800B1300446FFF7E7FF00B110BD002C22DB04F13F
S3150800B140604404F5614494F800231209EFF311836F
S3150800B15013B1B2EB131F23D2124B5B68C3F3080378
S3150800B160002BE9D0103BD9B25BB2002B10DB03F100
S3150800B170604303F5614393F800331B099A42DBD316
S3150800B1800120D9E704F00F04074B1A5D1209DDE721
S3150800B19001F00F01044B5B5C1B09EFE701207047C8
S3150800B1A00120C9E700ED00E014ED00E0704700005B
S3150800B1B0034AD36E23F0300301790B43D3667047F5
S3150800B1C00040005070470000F8B50446204BD3F8FD
S3150800B1D0843013F0100FF9D11D4BD3F88430C3F324
S3150800B1E081139C422DD00FF077FC0646012C11D016
S3150800B1F0FFF778FF0546164F07F500534FF0007224
S3150800B2005A662046FFF7DEFF621E4FF480639340BE
S3150800B2103B6706E00121FFF767FBE9E70C4BD3F82C
S3150800B22084300B4B5B6E13F0007F05D1084BD3F8C7
S3150800B230843013F0200FF1D02846FFF757FF022C71
S3150800B24000D0F8BD00213046FFF74EFBF9E700BFF6
S3150800B2500040005010B50C46034650B1094A127812
S3150800B26012B1094A934208D921460220FFF7ACFFDA
S3150800B27010BD0FF031FC0346F0E721460120FFF729
S3150800B280A3FFF5E7247D0020005A620208B51D4B8E
S3150800B2904FF000425A6603F50B235A6C02F001027E
S3150800B2A04AF6CD31196490B9174B5B6B13F0010F51
S3150800B2B0FAD1154B5B6813F0010F1BD0134B012114
S3150800B2C05960114B1B6B13F0010FFAD012E00E4BAD
S3150800B2D01B6B13F0080FFAD10B4B03F50051202016
S3150800B2E0886203F5805301215960074B9B6A13F066
S3150800B2F0200FFAD012B1044B054A1A64BCF018FCA8
S3150800B30008BD00BF00900050004009500060095079
S3150800B3103254FFFF10B51A4B4FF000425A6603F538
S3150800B3200B235C6C04F001044AF6CD321A644378A8
S3150800B3305B0043F00103134AD363134B5B6B13F0B3
S3150800B3400B0FFAD1104A536823F4F873817843EA4D
S3150800B35001135360C178437943EA01239360017965
S3150800B360837943EA012313610078FFF78FFF14B14D
S3150800B370054B064A1A64BCF0DBFB012010BD00BF72
S3150800B3800090005000400050004009503254FFFF22
S3150800B39010B50F2800D90F20124B5C6E03F58053A9
S3150800B3A04FF000425A6603F50B235A6C02F001026D
S3150800B3B04AF6CD3119640C4B5B6B13F0800FFAD14A
S3150800B3C009490B6A23F00F03184308620AB1074AB2
S3150800B3D00A64002C03DB064B4FF000425A66BCF0A9
S3150800B3E0A7FB10BD00800050004009503254FFFFF3
S3150800B3F000A0005010B5134B5C6E03F580534FF058
S3150800B40000425A6603F50B235A6C02F001024AF60B
S3150800B410CD3119640C4B5B6B13F0800FFAD10A49D6
S3150800B4200B6A23F4F85343EA002008620AB1074A74
S3150800B4300A64002C03DB064B4FF000425A66BCF048
S3150800B44077FB10BD00800050004009503254FFFFC2
S3150800B45000A000502DE9F84F0C4615461E469DF8EB
S3150800B46028809DF82C70072A44D84FEA82090323BE
S3150800B47003FA09FA00FA09F9FFF734FE384AD2F84E
S3150800B480001489EA010303EA0A034B40C2F80034B0
S3150800B490FFF72CFE4FF0000A072D43D8A9004FF0FE
S3150800B4A0030909FA01F904F003048C40FFF71AFEB0
S3150800B4B02B4BD3F80824544004EA09045440C3F833
S3150800B4C00844FFF713FE002E44D0264A0123AB405A
S3150800B4D01360B8F1000F3FD0234A1360012202FA25
S3150800B4E005F5224AC2F82054C7B3A2F6DC32136027
S3150800B4F0BDE8F88FA2F1080A4FEA8A09032303FA7E
