S0260000636869702D65667233322D6C696768742D7377697463682D6578616D706C652E7333373E
S315080060000000042071BF01086DBF0108F5B6070836
S315080060109DD700086DBF01086DBF01086DBF010857
S315080060206DBF01086DBF01086DBF0108410C02086C
S315080060306DBF01088C000020E10B0208ED84010801
S3150800604035A200086DBF01086DBF01086DBF0108C4
S315080060506DBF01086DBF01086DBF01086DBF01085E
S315080060606DBF01086DBF01086DBF01086DBF01084E
S315080060706DBF0108B19500086DBF01086DBF010825
S315080060806DBF01086DBF01086DBF01086DBF01082E
S315080060906DBF01085DAB00086DBF01086DBF010843
S315080060A06DBF0108F5AC0008CDAC00086DBF01084E
S315080060B06DBF01087DD50C0875DF0C082DDF0C08AF
S315080060C029DF0C0849D70C0871DF0C0831DF0C08EA
S315080060D049DF0C0835DF0C08D5DF0C08B5DF0C08DE
S315080060E06DBF01086DBF01086DBF01086DBF0108CE
S315080060F09DC301086DBF01086DBF01086DBF01088A
S315080061006DBF01086DBF01086DBF01086DBF0108AD
S315080061106DBF01086DBF01086DBF01086DBF01089D
S315080061206DBF01086DBF01086DBF01086DBF01088D
S315080061306DBF01086DBF01086DBF01086DBF01087D
S315080061406DBF01083DC501086DBF010823E20008BF
S3150800615029BD0C086DBF0108E19B0C08E79B0C08DC
S315080061606DBF01086DBF01086DBF01086DBF01084D
S3150800617010B5054C237833B9044B13B1044800E035
S3150800618000BF0123237010BD380A0020000000005C
S31508006190C8E50E0808B5034B1BB10349034800E0E0
S315080061A000BF08BD000000003C0A0020C8E50E0834
S315080061B0A3F5803A704700BF174B002B08BF134B57
S315080061C09D46FFF7F5FF00218B460F461348144AF4
S315080061D0121ACBF077FB0E4B002B00D098470D4BCD
S315080061E0002B00D098470020002104000D000D4820
S315080061F0002802D00C4800E000BFCBF0D7FA2000F8
S31508006200290002F0CFFFCBF047F900BF00000800D5
S31508006210000000000000000000000420380A0020EA
S3150800622050170220000000000000000010B584B0DE
S315080062300C4600230093164B164A10210A2012F02A
S315080062403DFE154B186090B1144B0293144B019305
S3150800625001230093104B4FF480621249204613F035
S31508006260C7FC114B186050B1002004B010BD0F4890
S3150800627075F0FEF840F2017000F054FAE4E70C48B5
S3150800628075F0F6F840F2027000F04CFAECE700BF41
S31508006290E40B0020440B0020340B00207C0A00206D
S315080062A0340C0020EC2B0D08380B0020C82B0D08E9
S315080062B0F02B0D0830B5A7B004460D4600293AD094
S315080062C02A4B1D602A4B00932346002201212948A8
S315080062D014F088FC284B1860002833D0274B00930D
S315080062E0234601220A21264814F07CFC254B186017
S315080062F080B32549254875F0BBF802F0B2FF24495A
S31508006300244802F0CDFF73F035FB0368D3F88430D8
S31508006310984705AB03938123049331F029F803A921
S3150800632030F0D0FFF0B903AB93E803008FF038F8EC
S31508006330002027B030BD184875F09AF82F2000F0D5
S31508006340F1F9BDE7154875F093F840F2047000F0CE
S31508006350E9F9C3E7124875F08BF840F2047000F0CB
S31508006360E1F9C6E70F4875F083F8E1E7780A0020F7
S31508006370D9660008282C0D083C0B00208564000807
S315080063804C2C0D08740A0020742C0D08802C0D085E
S3150800639020520D08580A00200C2C0D08302C0D0828
S315080063A0582C0D08A02C0D0810B52C4875F03FFB8D
S315080063B0C0B92B4B1B78022B35D02A4B1B680BB167
S315080063C0DB7D5BBB284B1B78002B37D0274B1B7814
S315080063D0002B33D0264B1B784BB30121254802F0FE
S315080063E04BFF20E0244C204679F001FB1E4B187029
S315080063F0204679F0ABFA1D4B1870204679F008FB59
S315080064001B4B18701D4878F0D1FE003818BF0120C4
S315080064101B4B1870114875F014FBCAE7FA2211468F
S31508006420144802F07BFF134802F04EFF10BD3222DB
S3150800643040F2B6310F4802F071FFF4E7104B1B78B3
S315080064402BB1642211460B4802F068FFEBE740F2D5
S31508006450B6323221074802F061FFE4E770450120B1
S31508006460341C0020780A0020400B0020540A002023
S31508006470700A0020580A002000930120F492012097
S31508006480410B002008B5FFF78FFF08BD00B583B0A4
S3150800649000220092134603210948006814F0BEFB47
S315080064A028B1084B00221A7003B05DF804FB0648B1
S315080064B074F0DEFF40F2067000F034F9F1E700BF31
S315080064C03C0B0020420B0020B82C0D0810B582B0FA
S315080064D00446114B186814F02FFD78B9642300930D
S315080064E00023224604210C48006814F097FB012873
S315080064F00AD10A4B01221A7002B010BD084874F07E
S31508006500B7FFFFF7C3FFE9E7064874F0B1FF40F2AB
S31508006510057000F007F9ECE73C0B0020420B002061
S31508006520D02C0D08EC2C0D080388012B2BD110B5A7
S31508006530154B1B781BB1154A1278012A05D01BB1D9
S31508006540124B1B78022B17D010BD40F6B8311048F5
S3150800655074F08EFF40F6B830FFF7B8FF0B4B0222F7
S315080065601A700C4C0021204602F086FE4FF4FA7190
S31508006570204602F0D9FEE7E7044B00221A700648C7
S3150800658090F054FAE0E77047420B0020341C0020D4
S31508006590082D0D08580A002050C7012010B50379A8
S315080065A0012B0CD01E4B1B781BB11E4A1278012AF0
S315080065B015D01BB11B4B1B78022B27D010BD184BCF
S315080065C01B78002BFAD1174B1B78002BF6D140F617
S315080065D0B830FFF77BFF134B01221A70EEE7FFF77F
S315080065E055FF104B00221A700F4879F000FA48B987
S315080065F00E4C0121204678F0C1FD0021204678F096
S31508006600C5FDDBE70A4874F033FFD7E7FFF73EFF1F
S31508006610044B00221A70074874F02AFFCEE700BF21
S31508006620420B0020341C002000930120F492012024
S31508006630482D0D08882D0D0810B582B00B4B1C6827
S3150800664013F0C0FB0246002300930121204614F0F4
S31508006650E5FA012801D102B010BD054874F008FF1B
S3150800666040F2057000F05EF8F5E700BF740A0020F6
S31508006670A82D0D0810B582B0144B1B6813B3044639
S315080066801AF05EFA80B10023019301AA21460F4849
S31508006690006812F0EBFD019B6BB14FF0E0234FF061
S315080066A08052C3F8042D06E000230122214607483C
S315080066B0006812F0E3FC08B102B010BD044874F09B
S315080066C0D7FEF9E7034874F0D3FEF5E7340B00204C
S315080066D0C02D0D08F02D0D0800B585B00123ADF8C5
S315080066E000300190034B03936846FFF7C3FF05B0DC
S315080066F05DF804FB2965000808B5CB6813B10846A0
S31508006700984708BD014874F0B3FEFAE7182E0D083D
S3150800671008B50146024874F0ABFE1AF04BFAFEE7DC
S31508006720482E0D0808B5FFF7F3FF0000124A12F0CD
S31508006730070F1ED0D11D21F00701C1F5A043134450
S315080067400A460E480260002141601344083B23F0C4
S3150800675007030B48036059601960991A5160136062
S31508006760084B1960084B1960084B4FF000421A6035
S3150800677070474FF4A043E4E73C1C0020506C00200F
S31508006780381C0020446C0020406C00203C6C002023
S3150800679010B500B3044613F00DFB54F8043C0F4A39
S315080067A01268134209D054F8081C69B11AF002FAA3
S315080067B00B490C48CBF07EFBFEE71AF0FBF90A49B9
S315080067C00848CBF077FBFEE723EA0203A3F10804A7
S315080067D013F0A2FB00E00024204610BD3C6C00200C
S315080067E0C42E0D08A82E0D08782E0D08014B186822
S315080067F0704700BF406C0020014B1868704700BF07
S31508006800446C002008B51AF0E5F8034B1A68034BE8
S315080068101A601AF0EDF808BD406C0020446C0020A0
S31508006820F8B5074613F0C6FA174B1B6893B14FF035
S31508006830FF3600252C4604E01B68144A12689A4263
S315080068400CD001345A68AA4200D91546B242F3D28E
S315080068501646F1E74FF0FF3600252C4613F05CFB91
S315080068607D60BE60FC601AF0B5F8094B1B683B609A
S31508006870084B1B687B61084B1B68BB61074B1B6891
S315080068803B611AF0B5F8F8BD506C0020381C0020A2
S31508006890406C0020486C00204C6C0020446C0020A2
S315080068A010B588B00446164B1B6893B1144B1A46AC
S315080068B01B68A342FBD351685018A0420DD06168EB
S315080068C0601883420ED02360944200D0146008B04A
S315080068D010BD01A8FFF7A4FFE8E76068014451600E
S315080068E01446ECE707480068834206D05B681944FB
S315080068F0616013681B682360E6E72060E4E700BF71
S31508006900506C0020381C002038B5044613F052FAA3
S315080069103E4B1B68EBB13E4B1B681C421CD1631EE9
S3150800692013F10A0F0BD804F1080214F0070F05D06B
S3150800693022F00703083393425AD91A4682B913F04C
S31508006940EBFA002576F0E8F915F0070F56D1284638
S3150800695038BDFFF7EBFEDEE713F0DEFA0025F1E7B8
S315080069602C4B1B68934202D32B490C6805E013F0A5
S31508006970D3FA0025E6E721461C466368934202D20D
S315080069802368002BF7D1214B1B68A34212D00D6850
S31508006990083523680B6063689B1A102B12D9A01858
S315080069A010F0070F0AD01AF005F91C491C48CBF05D
S315080069B081FAFEE713F0B0FA0025C3E74360626088
S315080069C0FFF76EFF626813490B689B1A0B6015493F
S315080069D009688B4201D213490B600D4B1B681343A0
S315080069E0636000232360104A13680133136000E0D4
S315080069F0002513F091FA002DA6D1A3E71AF0DAF8CC
S31508006A000A490748CBF056FAFEE700BF381C0020B3
S31508006A103C6C0020406C0020506C0020E42E0D08D1
S31508006A20A82E0D08446C0020486C0020202F0D0865
S31508006A3038B501FB00F419B1B4FBF1F181420AD172
S31508006A402046FFF761FF054618B122460021CAF025
S31508006A5039FF284638BD0025FBE7000080B338B566
S31508006A600446A0F1080550F8043C164A1268134279
S31508006A7009D050F8081C69B11AF09CF81249134855
S31508006A80CBF018FAFEE71AF095F811490F48CBF043
S31508006A9011FAFEE723EA020340F8043C13F08AF9E8
S31508006AA054F8041C0B4A13680B4413602846FFF776
S31508006AB0F7FE094A13680133136013F02DFA38BD3F
S31508006AC0704700BF3C6C0020C42E0D08A82E0D0888
S31508006AD0782E0D08406C00204C6C0020F8B5054651
S31508006AE00C46FFF755FED8B10746A4B1A04201D11E
S31508006AF02E461AE021460120FFF79AFF0646A0B166
S31508006B003A46A74228BF22462946CAF0B4FE284676
S31508006B10FFF7A4FF09E02846FFF7A0FF002604E0D8
S31508006B2021460120FFF784FF06463046F8BD08B522
S31508006B30FFF7EAFE08BD08B5FFF790FF08BD08B5E0
S31508006B40FFF7CCFF08BD08B50846FFF7F0FF08BDFC
S31508006B5008B50846FFF7EFFF08BD08B50846114611
S31508006B60FFF7EDFF08BD08B507F07EFB10F0A4FBA4
S31508006B7074F072FC32F0A4FE30F0D0FE08BD10B5F9
S31508006B8082B00022ADF8062003689C680DF1060362
S31508006B90A047192802D020B1002000E0012002B049
S31508006BA010BD0120FBE7052B01D8002070472F20D8
S31508006BB070470000014B0360704700BFBC310D08E9
S31508006BC0024A0260024A0260704700BFE0310D08BF
S31508006BD0BC310D08024A0260024A0260704700BFD3
S31508006BE0CC310D08C0300D08024A0260024A026024
S31508006BF0704700BF9C310D08D4300D08034A026067
S31508006C00034A0260034A0260704700BFC0520E087A
S31508006C1008520E0868310D08024A0260024A0260EC
S31508006C20704700BFE8550E0888310D0808B50248B8
S31508006C3078F010FE08BD00BFA4A3012008B50248DD
S31508006C4078F00FFE08BD00BFA4A3012008B502F026
S31508006C50FDFF08BD038848F20102934204D048F2BA
S31508006C600202934212D0704790F90820012AF6D101
S31508006C7010B5094874F0FCFB47F05EF903685C69D7
S31508006C800023064A40F6B831A04710BD90F90930EE
S31508006C90012BE8D1ECE700BF602F0D084D6C00080A
S31508006CA0012800D0704708B54FF6FF73994200D007
S31508006CB008BD0948094B0360094B0360002343607C
S31508006CC08360C3600374436103764376054A0649C5
S31508006CD0C9F0AFFCECE700BF146F002030310D0897
S31508006CE058110E08000000200DE8070810B50446E4
S31508006CF0034B03603821C9F0A1FC204610BD00BF34
S31508006D00BC310D0810B50446044B0360044B036000
S31508006D103821C9F093FC204610BD00BFE0310D08AC
S31508006D20BC310D0810B50446044B0360044B0360E0
S31508006D300421C9F083FC204610BD00BFCC310D08E4
S31508006D40C0300D0810B50446044B0360044B0360BD
S31508006D500821C9F073FC204610BD00BF9C310D0800
S31508006D60D4300D0808B5104B0360D0F8F4317BB960
S31508006D70D0F8483173B9D0F804316BB9D0F89830E7
S31508006D8063B9436D63B9036963B9084B036008BD0A
S31508006D90CAF04EFBCAF04CFBCAF04AFBCAF048FBE5
S31508006DA0CAF046FBCAF044FB50440E0844300D08AE
S31508006DB038B504460C4B036043688BB1437C4BB92A
S31508006DC0C5683DB135B12B681B68284698472846E3
S31508006DD072F052FE0023E3606374237423726360C7
S31508006DE0024B2360204638BD38D00D0830310D08D7
S31508006DF0406818B108B574F0D3FA08BD0320704787
S31508006E00406858B100B583B04FF0000C8DF807C044
S31508006E1032B174F097FA03B05DF804FB03207047AB
S31508006E200BB12F20F7E70DF10702F2E770B582B034
S31508006E300446A54BD3E88F3F13F0010F3FD0A34B71
S31508006E40D3E88F3F13F0010F47D0A14BD3E88F3F0C
S31508006E5013F0010F4FD09F4BD3E88F3F13F0010F6C
S31508006E6067D09D4BD3E88F3F13F0010F00F0CF801A
S31508006E709A4BD3E88F3F13F0010F00F0DC80984B54
S31508006E80D3E88F3F13F0010F00F0EB802369002B46
S31508006E9000F0F680236B002B00F0F780636B002B65
S31508006EA000F006818F4D2169284686F0A5F9284607
S31508006EB085F0AEF9002800F0598102B070BD82480D
S31508006EC0C9F0BEFB0028BAD07F48C9F0C5FB864A80
S31508006ED086498748C9F0ADFBB1E77C48C9F0B0FBE5
S31508006EE00028B2D07948C9F0B7FB7F4A8149824861
S31508006EF0C9F09FFBA9E77648C9F0A2FB0028AAD0EB
S31508006F007E4D7F4B2B607F4B2B6000236B602B7273
S31508006F10EB602B616B61AB61EB612B6285F824300A
S31508006F206B48C9F099FB704A77492846C9F081FB36
S31508006F3091E76848C9F084FB002892D06948734BEA
S31508006F40036003238380C38000258560704B03603C
S31508006F50C56014230093022300F1280200F12C01D6
S31508006F60103044F0F3FC2B46002B01DB013BFBE71A
S31508006F70684A142300930223111DA2F1180044F055
S31508006F80E5FC0023002B01DB013BFBE7624A2823D3
S31508006F9000930223111DA2F1180044F0D7FC002328
S31508006FA0002B01DB013BFBE75C4A14230093022319
S31508006FB0111DA2F1180044F0C9FC0023002B01DBC7
S31508006FC0013BFBE7564A482300930223111DA2F111
S31508006FD0180044F0BBFC0023002B01DB013BFBE758
S31508006FE0504A2C2300930223111DA2F1180044F0E5
S31508006FF0ADFC0023002B01DB013BFBE73548C9F05C
S315080070002BFB394A48493748C9F013FB29E7324868
S31508007010C9F016FB00283FF42BAF444D444B2B60B8
S31508007020444B2B602C48C9F017FB2F4A4249284687
S31508007030C9F0FFFA1CE72948C9F002FB00283FF40B
S315080070401EAF3E4D3E4B2B603E4B2B603E4B2B609E
S315080070502248C9F001FB244A3C492846C9F0E9FA06
S315080070600DE71F48C9F0ECFA00283FF40FAF1C489B
S31508007070C9F0F2FA1C4A36493648C9F0DAFA05E781
S315080070801B4B354A5A60236104E722691A4B5B6831
S3150800709033B1032000287FF410AF174B2363FDE6B6
S315080070A0154B0020187258745A60D8601874F1E7A6
S315080070B02569124B5B68002B50D0032000287FF40B
S315080070C0FCAE0E4B6363EDE60C6F0020086F0020E4
S315080070D0DC6E0020706C0020686C00205C6C002060
S315080070E0586C0020746C002000000020E96B000832
S315080070F01C000020B16D000808000020E06E00208A
S31508007100F4300D0860470E08B171000844300D08C8
S3150800711050440E08E06C0020246D0020906D00207D
S31508007120D46D0020806E0020656D00086C6C002010
S31508007130C0300D08CC310D08D56B0008606C0020F6
S3150800714068310D0808520E08C0520E08FD6B00087B
S31508007150196C000804000020604501200F4E3368B2
S315080071609B6A3046984775600020A7E70C4BE36199
S31508007170236983B10B4A5360002000287FF49DAE33
S31508007180084B63614BF04EFE2062074B6362074B68
S31508007190A361002091E62F20EFE700BFE06E0020F4
S315080071A0746C0020606C0020040000206C6C0020C9
S315080071B010B50446124B0360436823B1104B9B6A13
S315080071C098470023636000222262E06918B172F0D2
S315080071D053FC0023E3610022A261606918B172F0D2
S315080071E04BFC0023636100222261E06818B172F04B
S315080071F043FC0023E360034B2360204610BD00BF19
S3150800720060470E08F4300D0810B5134B0360D0F82C
S31508007210F431ABB90446D0F848319BB9D0F80431FB
S3150800722093B9D0F898308BB9436D8BB903698BB98C
S315080072300A4B03604FF41A71C9F000FA204610BDD4
S31508007240CAF0F6F8CAF0F4F8CAF0F2F8CAF0F0F89C
S31508007250CAF0EEF8CAF0ECF850440E0844300D08AF
S3150800726010B50446144B0360436823B1124B9B6A5E
S3150800727098470023636000222262E06918B172F021
S31508007280FBFB0023E3610022A261606918B172F07A
S31508007290F3FB0023636100222261E06818B172F0F3
S315080072A0EBFB0023E360054B236028212046C9F049
S315080072B0C5F9204610BD00BF60470E08F4300D081A
S315080072C038B504460E4B036043688BB1437C4BB913
S315080072D0C5683DB135B12B681B68284698472846CE
S315080072E072F0CAFB0023E36063742374237263603D
S315080072F0044B236014212046C9F0A0F9204638BD66
S3150800730038D00D0830310D0808B50A4874F0B0F8C1
S31508007310094879F07EFB00B108BD0121064878F0DE
S315080073209BFC0028F8D1054874F0A2F8044878F0C8
S315080073306FFAF1E7882F0D0800930120A82F0D0892
S31508007340A4A3012030B585B00446414941480CF054
S31508007350EFF9414D284674F08BF821463F4874F002
S3150800736087F8284674F084F830F002F8034600B12E
S315080073700433184646F064FD2FF0FAFF46F064FC25
S31508007380374874F075F80021084644F061FA08B1E8
S3150800739005B030BD334B1B78002B41D000200028A8
S315080073A0F6D12146304877F0F9FEFFF7ADFF002801
S315080073B0EED12E4874F034FB2D4BD3E88F3F13F0F3
S315080073C0010F36D02B4C204677F0E0FA2A4D2C6375
S315080073D02846FFF72BFD0024019402940394274BBB
S315080073E00193274B0293274878F088FA039001AB5C
S315080073F0AB62294624488FF0B1FB1C4D284674F031
S3150800740020FB22462149284674F02AFA204874F0BF
S315080074102FF8284674F0D0FB0028B9D10020B7E72A
S31508007420104D284674F020FCB0FA80F35B092B70E7
S31508007430B5E70F48C9F004F90028C3D00C48C9F0CD
S315080074400BF9144A14490C48C9F0F3F8BAE700BF17
S31508007450ADB80408A5B80408C42F0D08F82F0D0800
S3150800746004300D0868450120F4920120704501207A
S31508007470106F0020146F0020240000202D6C0008D7
S315080074803D6C00080093012050C70120556C000888
S3150800749014300D0800000020C16B000808B573F011
S315080074A0E5FC08BDB0F5803F2CBF002001207047E1
S315080074B04068E0B170B584B01D4600238DF80F30E2
S315080074C0BAB100230293019302AB00932B8873F0A1
S315080074D01BFF0446192800D030B9029E3046FFF734
S315080074E0E1FF68B900262E80204604B070BD03204F
S315080074F070472B880BB12F20F7E70DF10F02E0E755
S31508007500B6B2F0E710B50446054B0360054B0360B9
S31508007510054B03600821C9F091F8204610BD00BF4D
S31508007520C0520E0808520E0868310D0810B50446F8
S31508007530044B0360044B03600421C9F07FF820461E
S3150800754010BD00BFE8550E0888310D0808B54FF67E
S31508007550FF710120FFF7A4FB08BD0000024A026084
S31508007560024A0260704700BF30330D081C330D080D
S3150800757008B5034A02211D2044F0E0FA08BD00BF01
S31508007580EC310D0808B5034A02211D2044F0D6FA4D
S3150800759008BD00BFFC310D0808B5044A02211D20AC
S315080075A044F0CCFA024BFF221A7008BD0C320D08C3
S315080075B05C00002008B5038803B108BD102072F0EE
S315080075C033FA024630B10023036043608360C36028
S315080075D00123038006239360084B1B7843B10023DD
S315080075E006490B7053600649064874F04DFAE4E7FD
S315080075F00123536001490B70F5E700BF306F002087
S315080076002D8000087045012001B300B585B00846F5
S31508007610002300930193029303938DF804200C4BE7
S31508007620994205D00B4B98420AD005B05DF804FB89
S31508007630012AF7D1084B03936846FFF71BF8F4E7CE
S31508007640064B03936846FFF715F8EEE7704700BF49
S3150800765058510D0840510D08B57500089D6500087C
S3150800766010B50446044B0360044B03600821C8F0B8
S31508007670E5FF204610BD00BF30330D081C330D084A
S31508007680012800D070474FF6FF739942FAD130B5FA
S3150800769085B00F4D0023039302930E4B01930223EB
S315080076A000930D4B0D4A0121284624F083FD0C4C0E
S315080076B022460C492846C8F0BCFF0B480B4B036012
S315080076C00B4B036022460B49C8F0B3FF05B030BD2B
S315080076D0346F0020F9760008857500087175000872
S315080076E000000020F1C10208506F00201C330D086D
S315080076F030330D085D75000870B50446244A02212A
S315080077001D2044F01BFA237D224A13700B2B10D040
S31508007710204B1B78FE2B23D015D8022B32D846F0E7
S315080077200BFC03685D6923461B4A41F28831A8476A
S3150800773070BDA37D194A02211D2044F0FFF9A27DE0
S31508007740144B1A70E4E7FF2B1CD146F0F5FB0368CF
S315080077509B692246104998470E4BFF221A70E7E7A5
S3150800776046F0EAFB03689B690B4D22462946984773
S3150800777046F0E2FB03685E6923462A464FF47A71AF
S31508007780B047D5E7064A02211D2044F0D7F9CFE7CE
S3150800779028320D085C0000209975000840320D0853
S315080077A094320D0810B50C49FEF784FD28B900F08F
S315080077B04FFC044648B9204610BD0446074873F0F6
S315080077C057FE2046FEF7AEFFF1E7054873F050FE78
S315080077D02046FEF7A7FFEEE7346F0020AC320D080F
S315080077E0CC320D0830B585B004681148FFF7DAFFCA
S315080077F0B0B9FEF721FF0F4873F03AFE4FF0FF329B
S315080078006946204611F000FE0128F7D16946084866
S31508007810FEF772FF00226946204611F0F5FDF3E7F0
S315080078200546054873F024FE2846FEF77BFFE0E789
S31508007830506F002000330D08E8320D0808B50249DC
S31508007840FEF7F4FC08BD00BFE577000808B54FF65B
S31508007850FF710120FFF714FF08BD00002DE9F04174
S3150800786084B00F4616461D464468D0F80880A3B271
S315080078700093230C144A02211D2044F05FF9072CBB
S3150800788004D0032C11D004B0BDE8F0812B78039600
S31508007890029301971FFA88F300934FEA18430B4A9D
S315080078A002211D2044F04AF9EDE72B78039602934E
S315080078B001971FFA88F300934FEA1843044A0221F6
S315080078C01D2044F03BF9DEE73C330D085C330D0818
S315080078D0B0330D0870470120704704207047000038
S315080078E09FED037B80ED007B00220272704700BF8C
S315080078F000000000000000009FED037B80ED007B88
S3150800790000220272704700BF00000000000000005D
S3150800791010B5044620220021C9F0D4FF00232361B4
S315080079206361A361204610BD002070470000000077
S315080079309FED037B80ED007B704700BFAFF30080AF
S315080079400000000000000000012070470120704779
S31508007950024A0260024A0260704700BF60D60D08FC
S3150800796054350D08704710B540680468A468A047E8
S3150800797010BD08B540680368DB68984708BD08B5B8
S3150800798083683BB100225A6283681B8913F0400F53
S3150800799000D18260406803681B69984708BD08B52E
S315080079A0406803685B69984708BD704770470000E0
S315080079B000228260024AC260024A8260704700BFA3
S315080079C0897A0008E179000800228260024AC260CA
S315080079D0024A8260704700BF757A0008FB79000882
S315080079E0012A02D1016000207047022AFBD0032A2F
S315080079F0F9D0012AF7D10160F5E7012A02D1016021
S31508007A0000207047022AFBD0032AF9D0012AF7D1B1
S31508007A100160F5E7012A02D1016000207047022AB9
S31508007A2005D0032AF9D0012AF7D10160F5E70B68DA
S31508007A300360F2E7012A02D1016000207047022A9A
S31508007A4005D0032AF9D0012AF7D10160F5E70B68BA
S31508007A500360F2E7012A02D1016000207047022A7A
S31508007A6005D0032AF9D0012AF7D10160F5E70B689A
S31508007A700360F2E708B50B68024A0121002044F0CA
S31508007A805DF808BDF4330D0808B5034A0221002045
S31508007A9044F054F808BD00BF10340D0808B510B1FD
S31508007AA071F0EAFF08BD024A012144F047F8F9E7F8
S31508007AB028340D0810B584B0094B0193094B02937D
S31508007AC003F5F653D3F884310393074C01A92046EE
S31508007AD020F020FB054BE363054B636304B010BD40
S31508007AE0E8EA012090D80120BC8D0020819000088A
S31508007AF09D7A00080E4BD3E88F3F13F0010F01D093
S31508007B000C48704710B50A48C8F09AFD08B90948E4
S31508007B1010BD084C084B2360084B23600448C8F086
S31508007B209BFD074A07492046C8F083FDEFE700BFDB
S31508007B30586F00205C6F002054350D0860D60D087C
S31508007B40000000205179000808B5C9F071FC000052
S31508007B5008B5094BD3E88F3F13F0010F09D1064842
S31508007B60C8F06EFD28B1054846F02EF80248C8F060
S31508007B7073FDC9F05DFC00BF606F0020646F0020D4
S31508007B8008B50369B3F1FF3F02D00133036108BDAD
S31508007B90C9F04EFC10B582B00446194B036001903B
S31508007BA0DB68984703E0101F03689B689847A2683C
S31508007BB0231D9A4203D01046002AF4D1F4E723681D
S31508007BC01B692046984723699BB923460D4A43F803
S31508007BD0042B5A689A420ED1616871B15A6862B12B
S31508007BE04A6061681160002262605A60204602B0ED
S31508007BF010BDC9F01DFCC9F01BFCC9F019FC00BF7B
S31508007C0018350D08DC340D0808B5036913B1013BB6
S31508007C10036108BDC9F00CFC10B504460B4B0360A4
S31508007C2083686BB100225A62806844F071F820B903
S31508007C30A3681B8913F0400F02D0A06844F05FF9CF
S31508007C400023A360024B2360204610BD90350D0823
S31508007C5070350D0810B504460D4B036083686BB18B
S31508007C6000225A62806844F053F820B9A3681B8939
S31508007C7013F0400F02D0A06844F041F90023A36036
S31508007C80044B23600C212046C8F0D8FC204610BDC2
S31508007C9090350D0870350D0810B582B004461B4B9B
S31508007CA003600190DB68984703E0101F03689B6830
S31508007CB09847A268231D9A4203D01046002AF4D199
S31508007CC0F4E723681B69204698472369BBB923460E
S31508007CD00F4A43F8042B5A689A4212D1616891B147
S31508007CE05A6882B14A6061681160002262605A600F
S31508007CF018212046C8F0A2FC204602B010BDC9F0E3
S31508007D0097FBC9F095FBC9F093FB00BF18350D0822
S31508007D10DC340D0810B504460C4B40F8243B836848
S31508007D2013B103220146984704F11400836813B17E
S31508007D30032201469847201D836813B10322014692
S31508007D409847034B2360204610BD00BFCC350D086D
S31508007D50B0350D0810B504460E4B40F8243B836831
S31508007D6013B103220146984704F11400836813B13E
S31508007D70032201469847201D836813B10322014652
S31508007D809847054B236038212046C8F057FC204603
S31508007D9010BD00BFCC350D08B0350D0870B50646C8
S31508007DA00C68002C36D02546294B45F8803B294BD4
S31508007DB0C4F88030A86808B146F0CEFA0023AB6054
S31508007DC0686808B146F0C8FA00236B60224BC4F80D
S31508007DD08030A06C08B146F0BFFA0023A364251DC5
S31508007DE01E4B6360AB686BB100225A62A86843F009
S31508007DF08FFF20B9AB681B8913F0400F02D0A86823
S31508007E0044F07DF80023AB60154B63602360204681
S31508007E1071F032FE3468D4B12046124B40F8243B48
S31508007E20836813B103220146984704F11400836856
S31508007E3013B1032201469847201D836813B1032214
S31508007E4001469847084B2360204671F015FE70BD21
S31508007E506CB20D08FCDF0D08B8340D0890350D0816
S31508007E6070350D08CC350D08B0350D0870B50646C9
S31508007E700C68002C36D02546294B45F8803B294B03
S31508007E80C4F88030A86808B146F066FA0023AB60EB
S31508007E90686808B146F060FA00236B60224BC4F8A4
S31508007EA08030A06C08B146F057FA0023A364251D5C
S31508007EB01E4B6360AB686BB100225A62A86843F038
S31508007EC027FF20B9AB681B8913F0400F02D0A868BA
S31508007ED044F015F80023AB60154B63602360204619
S31508007EE071F0CAFD3468D4B12046124B40F8243BE1
S31508007EF0836813B103220146984704F11400836886
S31508007F0013B1032201469847201D836813B1032243
S31508007F1001469847084B2360204671F0ADFD70BDB9
S31508007F206CB20D08FCDF0D08B8340D0890350D0845
S31508007F3070350D08CC350D08B0350D0870B50646F8
S31508007F400C68002C36D02546294B45F8803B294B32
S31508007F50C4F88030A86808B146F0FEF90023AB6083
S31508007F60686808B146F0F8F900236B60224BC4F83C
S31508007F708030A06C08B146F0EFF90023A364251DF4
S31508007F801E4B6360AB686BB100225A62A86843F067
S31508007F90BFFE20B9AB681B8913F0400F02D0A86852
S31508007FA043F0ADFF0023AB60154B636023602046AA
S31508007FB071F062FD3468D4B12046124B40F8243B78
S31508007FC0836813B103220146984704F114008368B5
S31508007FD013B1032201469847201D836813B1032273
S31508007FE001469847084B2360204671F045FD70BD51
S31508007FF06CB20D08FCDF0D08B8340D0890350D0875
S3150800800070350D08CC350D08B0350D0810B5044689
S31508008010044B0360044B03600421C8F00FFB2046A1
S3150800802010BD00BF60D60D0854350D0808B530B12F
S31508008030034682680188044820F0DCF908BD034A33
S31508008040012143F07BFDF9E7BC8D00205C340D0867
S3150800805008B500220249034873F016FD002008BD42
S31508008060B57A00087045012000B583B00191836890
S315080080702BB1C36801A9984703B05DF804FBC8F0A3
S3150800808021FB08B590F8343003B108BD012380F808
S31508008090343011461430FFF7E7FFF6E710B5846869
S315080080A014B1C468A04710BDC8F00CFB11461A46A7
S315080080B090F8343093B900B583B0012380F8343092
S315080080C0049B33B18E211430FFF7CEFF03B05DF861
S315080080D004FB01AB0430FFF7E1FFF7E7704738B55B
S315080080E00446002383608B6833B10D460222984705
S315080080F0EB68E360AB68A360204638BD38B5044634
S31508008100002383608B6833B10D4602229847EB68DB
S31508008110E360AB68A360204638BD00000022826099
S315080081200160024AC260024A826070473D7F0008C9
S31508008130157A0008002282600160024AC260024A7B
S31508008140826070476D7E0008357A000800228260DA
S315080081500160024AC260024A826070479D7D00083B
S31508008160557A000838B50446002383608B6833B116
S315080081700D4602229847EB68E360AB68A360204689
S3150800818038BD08B5014602986DF0A2FC08BD00008E
S315080081902DE9F043A1B0064688469946ADF8182061
S315080081A00023ADF81A300623079302230893012308
S315080081B08DF82430382071F037FC0446002830D07A
S315080081C0289918A8FFF78BFF299914A8FFF796FF97
S315080081D0002512957F4B236020467F4B40F8043BD1
S315080081E018A9FFF77CFF14A904F11400FFF786FF0E
S315080081F010A904F12400FFF7B5FF84F83450129B48
S315080082001BB1032210A908469847169B1BB10322E7
S3150800821014A9084698471A9B1BB1032218A90846B1
S315080082209847002305930594002C57D021460AA8A1
S31508008230FFF774FF04F124051CAF0AA93846FFF7B7
S3150800824091FF02AB97E8030083E8030095E8030073
S3150800825087E8030093E8030085E803001E9BAA68E5
S315080082601E92AB601F9BEA681F92EB601E9B1BB1B8
S3150800827003223946384698470C9B1BB103220AA9A4
S31508008280084698472A9B1D78942071F0CDFB07462F
S3150800829020B12B463246214633F09CFC002304933A
S315080082A00497EFB1002206A9384633F01DFF0546AC
S315080082B0002878D0ADB92B9B1B788DF8383013B1D0
S315080082C02B9B5B680F930EAA4146384634F006F896
S315080082D0054630B900250595049502E00B253EE0D4
S315080082E00B25049C002C38D0002C36D026463B4B58
S315080082F046F8803B3A4BC4F88030B06808B146F07F
S315080083002BF80023B360706808B146F025F80023FF
S315080083107360344BC4F88030A06C08B146F01CF882
S315080083200023A364261D304B6360B3686BB100223B
S315080083305A62B06843F0ECFC20B9B3681B8913F0A5
S31508008340400F02D0B06843F0DAFD0023B360274B34
S3150800835063602360204671F08FFB00230493059C1D
S31508008360DCB1D4B120461C4B40F8243B836813B1DA
S3150800837003220146984704F11400836813B10322C7
S3150800838001469847201D836813B103220146984782
S31508008390104B2360204671F06FFB00230593284697
S315080083A021B0BDE8F083384633F008FE80B1CDF839
S315080083B0009001224FF0FF33FFF7E3FE0546002841
S315080083C07FF478AF2A99384633F0EFFE054671E711
S315080083D003256FE7B0350D08CC350D086CB20D08CE
S315080083E0FCDF0D08B8340D0890350D0870350D08FA
S315080083F02DE9F0438FB004460D4616461F460DF18B
S31508008400140816994046FFF76AFE0DF124091799D4
S315080084104846FFF773FE00238DF83430189B039304
S315080084200DAB0293CDF80490CDF800803B4632465A
S3150800843029462046FFF7ACFE04460B9B1BB10322D8
S31508008440494648469847079B1BB1032205A9084693
S31508008450984720460FB0BDE8F083000070B590B08D
S3150800846005461E4602230024ADF82840ADF82A40EA
S3150800847006200B900C938DF83430ADF82A205D4B0E
S31508008480049305AB059306938DF81C4008945A4B44
S315080084900493ADF824208DF81C10942071F0C4FACA
S315080084A0044620B100232A46194633F093FB0023DD
S315080084B003930394CCB100228DF83C200AA92046E8
S315080084C033F012FE0546002854D07DB904A80E9054
S315080084D0049BDB6898470EA9204633F0ABFE054699
S315080084E00E9803681B69984700E00B25002C38D0C6
S315080084F0002C36D02646414B46F8803B404BC4F804
S315080085008030B06808B145F027FF0023B360706873
S3150800851008B145F021FF002373603A4BC4F8803058
S31508008520A06C08B145F018FF0023A364261D364B3E
S315080085306360B3686BB100225A62B06843F0E8FB27
S3150800854020B9B3681B8913F0400F02D0B06843F016
S31508008550D6FC0023B3602D4B63602360204671F080
S315080085608BFA00230393244B049304A80290DB6838
S31508008570984718E0204633F021FD70B10096012295
S315080085804FF0FF33FFF7FDFD054600289DD10FA9E3
S31508008590204633F00AFE054697E7032595E7101FA0
S315080085A003689B689847069A05AB9A4203D010461B
S315080085B0002AF4D1F4E7049B1B6904A89847089B92
S315080085C093B90C4B0493069A05AB9A420ED1059AB9
S315080085D072B1069B63B15360059A1A60002305932E
S315080085E00693284610B070BDC8F022FFC8F020FFD9
S315080085F0C8F01EFFDC340D0818350D086CB20D08DE
S31508008600FCDF0D08B8340D0890350D0870350D08D7
S3150800861008B5014602986DF044FA08BD2DE9F04305
S31508008620A1B00646884699460123ADF818200022CF
S31508008630ADF81A200622079208938DF824303820C0
S3150800864071F0F2F90446002830D0289918A8FFF7E7
S3150800865046FD299914A8FFF751FD00251295804B70
S31508008660236020467F4B40F8043B18A9FFF737FDE7
S3150800867014A904F11400FFF741FD10A904F1240020
S31508008680FFF770FD84F83450129B1BB1032210A922
S3150800869008469847169B1BB1032214A90846984713
S315080086A01A9B1BB1032218A908469847002305936D
S315080086B00594002C57D021460AA8FFF73BFD04F184
S315080086C024051CAF0AA93846FFF74CFD02AB97E80C
S315080086D0030083E8030095E8030087E8030093E8AE
S315080086E0030085E803001E9BAA681E92AB601F9BC9
S315080086F0EA681F92EB601E9B1BB103223946384677
S3150800870098470C9B1BB103220AA9084698472A9B3F
S315080087101D78942071F088F9074620B12B46324619
S31508008720214633F057FA002304930497EFB1002249
S3150800873006A9384633F0D8FC0546002878D0ADB9E6
S315080087402B9B1B788DF8383013B12B9B5B680F93E6
S315080087500EAA4146384633F0C1FD054630B9002514
S315080087600595049502E00B253EE00B25049C002C9C
S3150800877038D0002C36D026463B4B46F8803B3B4B40
S31508008780C4F88030B06808B145F0E6FD0023B36050
S31508008790706808B145F0E0FD00237360344BC4F8F7
S315080087A08030A06C08B145F0D7FD0023A364261DD0
S315080087B0304B6360B3686BB100225A62B06843F00D
S315080087C0A7FA20B9B3681B8913F0400F02D0B06826
S315080087D043F095FB0023B360274B63602360204674
S315080087E071F04AF900230493059CDCB1D4B1204604
S315080087F01C4B40F8243B836813B103220146984773
S3150800880004F11400836813B1032201469847201D1A
S31508008810836813B1032201469847114B236020460B
S3150800882071F02AF900230593284621B0BDE8F083A4
S31508008830384633F0C3FB80B1CDF8009001224FF0E3
S31508008840FF33FFF7E5FE054600287FF478AF2A993F
S31508008850384633F0AAFC054671E703256FE700BFE3
S31508008860B0350D08CC350D086CB20D08FCDF0D08C7
S31508008870B8340D0890350D0870350D082DE9F0430C
S315080088808FB004460D4616461F460DF11408169974
S315080088904046FFF724FC0DF1240917994846FFF7CF
S315080088A02DFC00238DF83430189B03930DAB0293EF
S315080088B0CDF80490CDF800803B463246294620463E
S315080088C0FFF7ACFE04460B9B1BB1032249464846FC
S315080088D09847079B1BB1032205A9084698472046D7
S315080088E00FB0BDE8F083000070B590B005461E468F
S315080088F00024ADF82840ADF82A4006230B9301233F
S315080089000C9302238DF83430ADF82A205D4B04937E
S3150800891005AB059306938DF81C4008945A4B0493AF
S31508008920ADF824208DF81C10942071F07DF80446CB
S3150800893020B100232A46194633F04CF90023039345
S315080089400394CCB100228DF83C200AA9204633F0C6
S31508008950CBFB0546002854D07DB904A80E90049B8D
S31508008960DB6898470EA9204633F064FC05460E9846
S3150800897003681B69984700E00B25002C38D0002CAB
S3150800898036D02646414B46F8803B414BC4F88030EA
S31508008990B06808B145F0E0FC0023B360706808B120
S315080089A045F0DAFC002373603A4BC4F88030A06CBB
S315080089B008B145F0D1FC0023A364261D364B63603D
S315080089C0B3686BB100225A62B06843F0A1F920B9C6
S315080089D0B3681B8913F0400F02D0B06843F08FFAD2
S315080089E00023B3602D4B63602360204671F044F882
S315080089F000230393244B049304A80290DB6898474A
S31508008A0018E0204633F0DAFA70B1009601224FF0EA
S31508008A10FF33FFF7FDFD054600289DD10FA9204627
S31508008A2033F0C3FB054697E7032595E7101F036850
S31508008A309B689847069A05AB9A4203D01046002AC7
S31508008A40F4D1F4E7049B1B6904A89847089B93B9DB
S31508008A500C4B0493069A05AB9A420ED1059A72B14D
S31508008A60069B63B15360059A1A6000230593069323
S31508008A70284610B070BDC8F0DBFCC8F0D9FCC8F0B9
S31508008A80D7FC00BFDC340D0818350D086CB20D088C
S31508008A90FCDF0D08B8340D0890350D0870350D0843
S31508008AA008B5014602986CF0E5FF08BD2DE9F043CC
S31508008AB0A1B0064688469946ADF818200023ADF8B9
S31508008AC01A3006220792089301238DF8243038209D
S31508008AD070F0AAFF0446002830D0289918A8FFF796
S31508008AE0FEFA299914A8FFF709FB00251295804B71
S31508008AF0236020467F4B40F8043B18A9FFF7EFFA9E
S31508008B0014A904F11400FFF7F9FA10A904F12400D6
S31508008B10FFF728FB84F83450129B1BB1032210A9D7
S31508008B2008469847169B1BB1032214A9084698477E
S31508008B301A9B1BB1032218A90846984700230593D8
S31508008B400594002C57D021460AA8FFF7FFFA04F12E
S31508008B5024051CAF0AA93846FFF704FB02AB97E8C1
S31508008B60030083E8030095E8030087E8030093E819
S31508008B70030085E803001E9BAA681E92AB601F9B34
S31508008B80EA681F92EB601E9B1BB1032239463846E2
S31508008B9098470C9B1BB103220AA9084698472A9BAB
S31508008BA01D78942070F040FF074620B12B463246C8
S31508008BB0214633F00FF8002304930497EFB10022FF
S31508008BC006A9384633F090FA0546002878D0ADB99C
S31508008BD02B9B1B788DF8383013B12B9B5B680F9352
S31508008BE00EAA4146384633F079FB054630B90025CA
S31508008BF00595049502E00B253EE00B25049C002C08
S31508008C0038D0002C36D026463B4B46F8803B3B4BAB
S31508008C10C4F88030B06808B145F09EFB0023B36005
S31508008C20706808B145F098FB00237360344BC4F8AC
S31508008C308030A06C08B145F08FFB0023A364261D85
S31508008C40304B6360B3686BB100225A62B06843F078
S31508008C505FF820B9B3681B8913F0400F02D0B068DB
S31508008C6043F04DF90023B360274B63602360204629
S31508008C7070F002FF00230493059CDCB1D4B12046B2
S31508008C801C4B40F8243B836813B1032201469847DE
S31508008C9004F11400836813B1032201469847201D86
S31508008CA0836813B1032201469847114B2360204677
S31508008CB070F0E2FE00230593284621B0BDE8F08354
S31508008CC0384633F07BF980B1CDF8009001224FF099
S31508008CD0FF33FFF7E5FE054600287FF478AF2A99AB
S31508008CE0384633F062FA054671E703256FE700BF99
S31508008CF0B0350D08CC350D086CB20D08FCDF0D0833
S31508008D00B8340D0890350D0870350D082DE9F04377
S31508008D108FB004460D4616461F460DF114081699DF
S31508008D204046FFF7DCF90DF1240917994846FFF785
S31508008D30E5F900238DF83430189B03930DAB0293A5
S31508008D40CDF80490CDF800803B46324629462046A9
S31508008D50FFF7ACFE04460B9B1BB103224946484667
S31508008D609847079B1BB1032205A908469847204642
S31508008D700FB0BDE8F0832DE9F041A4B015461C46B6
S31508008D8001282FD0022804D0002854D024B0BDE8EA
S31508008D90F081B1F80C8006AE4FF000013046FEF7C0
S31508008DA007FE0AAF4FF000013846FEF70DFE002316
S31508008DB08DF838300EAB02930197009605AB424604
S31508008DC021462846FFF714FB0C9B1BB103223946A4
S31508008DD038469847089B002BD8D0032206A9084690
S31508008DE09847D3E7B1F80C8010AE4FF00001304633
S31508008DF0FEF7DEFD14AF4FF000013846FEF7E4FD3E
S31508008E0000238DF8603018AB02930197009605ABE6
S31508008E10424621462846FFF731FD169B1BB1032221
S31508008E20394638469847129B002BAFD0032210A923
S31508008E3008469847AAE7B1F80C801AAE4FF0000129
S31508008E403046FEF7B5FD1EAF4FF000013846FEF777
S31508008E50BBFD00238DF8883022AB0293019700965C
S31508008E6005AB424621462846FFF750FF209B1BB11B
S31508008E7003223946384698471C9B002B86D0032286
S31508008E801AA90846984781E770B590B005461E4668
S31508008E900024ADF82840ADF82A4006230B930C941D
S31508008EA002238DF83430ADF82A205D4B049305ABC8
S31508008EB0059306938DF81C4008945A4B0493ADF815
S31508008EC024208DF81C10942070F0AEFD044620B1C5
S31508008ED000232A46194632F07DFE002303930394A5
S31508008EE0CCB100228DF83C200AA9204633F0FCF8C4
S31508008EF00546002854D07DB904A80E90049BDB686B
S31508008F0098470EA9204633F095F905460E9803684A
S31508008F101B69984700E00B25002C38D0002C36D06A
S31508008F202646414B46F8803B404BC4F88030B06833
S31508008F3008B145F011FA0023B360706808B145F02E
S31508008F400BFA002373603A4BC4F88030A06C08B162
S31508008F5045F002FA0023A364261D364B6360B36806
S31508008F606BB100225A62B06842F0D2FE20B9B368EB
S31508008F701B8913F0400F02D0B06842F0C0FF0023EF
S31508008F80B3602D4B63602360204670F075FD0023A7
S31508008F900393244B049304A80290DB68984718E0CF
S31508008FA0204633F00BF870B1009601224FF0FF33DC
S31508008FB0FFF776FD054600289DD10FA9204633F018
S31508008FC0F4F8054697E7032595E7101F03689B689D
S31508008FD09847069A05AB9A4203D01046002AF4D160
S31508008FE0F4E7049B1B6904A89847089B93B90C4BA4
S31508008FF00493069A05AB9A420ED1059A72B1069B5E
S3150800900063B15360059A1A600023059306932846B0
S3150800901010B070BDC8F00CFAC8F00AFAC8F008FA21
S31508009020DC340D0818350D086CB20D08FCDF0D0888
S31508009030B8340D0890350D0870350D0800B583B0A5
S3150800904001280CD0022803D080B103B05DF804FBD8
S3150800905001AB0A8A49780948FFF700FAF5E701AB38
S315080090600A8A49780548FFF73FFCEEE701AB0A8A0A
S3150800907049780248FFF708FFE7E700BF20E3012029
S31508009080F0B583B04AB105460C4616460378032B5D
S3150800909009D0012B12D003B0F0BD204A01210020CF
S315080090A042F04CFDF7E7127B002AF2D0B368062B94
S315080090B0F1D101467068FFF7C1FFECE7307B002865
S315080090C0E9D1B368062BE6D11CB3E3681BB1236864
S315080090D09B6A20469847E0B1776823689B692046D3
S315080090E0984706462368DB692146684698479DF8EF
S315080090F0003083B101AB324629463846FFF73BFEBE
S315080091009DF80030002BC6D0019803681B69984764
S31508009110C1E7C8F08DF9C8F08BF900BF88340D088F
S3150800912000B583B0019183682BB1C36801A998473C
S3150800913003B05DF804FBC7F0C5FA08B52430FFF79D
S31508009140EFFF08BD024A0260024A0260704700BF8C
S31508009150E8A90D084C360D08012800D0704708B557
S315080091604FF6FF73994200D008BD034A03490448E5
S31508009170C7F05FFAF8E700BF000000204591000835
S315080091806000002010B50446044B0360044B0360DE
S315080091900821C7F053FA204610BD00BFE8A90D08FC
S315080091A04C360D0810B5FDF7DEFC1B48FEF7CAF86D
S315080091B050BB1A4C1A4BD3F88411204644F024FEAF
S315080091C0204644F02DFE174C204672F029FC88F004
S315080091D01DFF80F00DFC204672F033FC124872F039
S315080091E047F91248FEF72AFB90B9114872F040F980
S315080091F005F046F842F040FB0E4872F039F9AC200B
S31508009200FDF790FA002010BDAC20FDF78BFAD0E7E9
S31508009210AC20FDF787FAE8E7E0350D086000002086
S3150800922050F7012070450120F4350D08506F0020D5
S3150800923008360D0824360D0870B50446044D2B680B
S315080092409E6801F04EFA024621462846B04770BD90
S31508009250506F002008B54FF6FF710120FFF77CFF1D
S3150800926008BD08B511F0C8FF08BD006918B108B5F2
S3150800927011F053FF08BD704708B50023C36083602B
S3150800928000220023C0E90023006910B111B111F0D2
S315080092903AFF08BD11F03CFFFBE7000000000000A4
S315080092A008B59FED077B80ED007B00228260C260D7
S315080092B001611146FFF7E0FF08BD00BFAFF300806C
S315080092C00000000000000000836823B370B582B078
S315080092D00446C368ABB1104B19680B68DB6868466F
S315080092E09847009E019D206911F01CFF58B1A1689E
S315080092F0236862685B1842F10002B34272EB050309
S3150800930003D302B070BDE168F2E72046FFF7ADFF70
S3150800931026606560F5E770470003002008B58160A0
S31508009320C260FFF7D1FF08BD08B50A46FFF7F6FF8A
S3150800933008BD38B141B10160028100228280C28035
S31508009340012070470020704700207047C28892B2FB
S3150800935083889BB29A4216D0C28892B283889BB2FF
S315080093609A4209D20389828892B29B1AC08880B22F
S3150800937010FA83F080B27047C3889BB2808880B2A7
S31508009380181A80B270470020704710B50489FFF795
S31508009390DDFF201A80B210BDF8B548B30F46154652
S315080093A0044659B3038993422ED3FFF7EEFFA8422A
S315080093B01DD32689E3889BB2F61AB6B2B54229D9D7
S315080093C02368E0883246394613FA80F0C8F053FA23
S315080093D0AA1BB9192068C8F04EFAE28815FA82F570
S315080093E0228995FBF2F302FB1355ADB2E580F8BD71
S315080093F00D4B0E4A96210E48C8F022F80D4B0B4A23
S3150800940097210B48C8F01CF80B4B084A98210848C6
S31508009410C8F016F82368E0882A46394613FA80F019
S31508009420C8F029FAD9E700BF74360D087C360D084E
S31508009430AC360D082C370D083C370D0870B51646A6
S315080094401D46DCB20E4B1A78A41AE4B20D48FFF793
S315080094509CFFA2B2904209D20B4B2A4631460B48D2
S31508009460006812F0B3FA77F0E1FA70BD044C21886F
S3150800947031440448FFF790FF00232380ECE700BF40
S31508009480787100206C6F00203D9400087801002058
S31508009490F8B550B30F461546044661B3038993429F
S315080094A02FD3FFF753FFA84231D92689A3889BB249
S315080094B0F61AB6B2B5422FD92368A188324613FAEE
S315080094C081F13846C8F0D7F9AA1B2168B819C8F03F
S315080094D0D2F9A38815FA83F3228993FBF2F102FBEA
S315080094E011339BB2A380E8B2F8BD104B104AB521E0
S315080094F01048C7F0A5FF104B0D4AB6210D48C7F016
S315080095009FFF0E4B0A4AB7210A48C7F099FF204623
S31508009510FFF71CFF0546C8E72368A1882A4613FA01
S3150800952081F13846C8F0A7F9D3E700BF74360D08AD
S315080095305C370D08AC360D0894370D089C370D08B6
S3150800954038B500F092FC4FF4807211491148FFF7C4
S31508009550F0FE114D114C2B4680221149206812F05D
S3150800956035FA2B4680220F49206812F02FFA0E4B47
S315080095704FF40052C3F880211A600C48821804235D
S31508009580D36400F580521365052112F0A1FA38BD9F
S31508009590787000206C6F00203D9400087801002048
S315080095A0786F0020F86F002000E100E000000A5004
S315080095B008B577F03BFA024B0422DA6408BD00BF0F
S315080095C000200A5058B110B50C46014654B122463F
S315080095D0074B186812F09AF938B920B210BD4FF047
S315080095E0FF3070474FF0FF30F8E74FF0FF30F5E7F0
S315080095F078010020002830D070B584B00C460546A6
S3150800960000292DD01848FFF7A1FEA04207D322460D
S3150800961029461548FFF73CFF00B204B070BD03F0B9
S3150800962074F9064601AB02AA03A91048006812F0AD
S315080096303CF90F4B1B88029A934203D3304603F03A
S315080096406AF9E4E7D21A92B2039919440648FFF771
S31508009650A3FE074B029A1A80F0E74FF0FF307047D7
S315080096604FF0FF30D9E700BF6C6F0020780100206B
S315080096707871002070B504460A694B6952EA0300FE
S315080096801ED08868C96810EB000C41EB010E1CEB74
S31508009690000C41EB0E0E4FEA4E1545EADC654FEA23
S315080096A04C161CEB060C4EEB050E1CEB000041EBB2
S315080096B00E01C7F02DFD012323706070204670BD92
S315080096C0002323706370F9E7D0E9020170472D2063
S315080096D070472D2070474FF48060704700238360E1
S315080096E07047002343607047044A02602032426094
S315080096F0034A4260034A0260704700BFA4390D0856
S3150800970070350D0884380D080346064A40F8042CBF
S31508009710203240F80429044A4260044A43F8042CDB
S31508009720704700BFA4390D0870350D0884380D0838
S31508009730024A0260024A0260704700BF2C970D0871
S315080097405C390D08024A0260024A0260704700BF8F
S315080097508C960D08B0380D0810B50446064B036004
S3150800976020334360054B4360054B03601021C6F068
S3150800977065FF204610BD00BFA4390D0870350D08D9
S3150800978084380D0810B50446084B40F8043C2033CD
S3150800979044F80439064B6360064B40F8043C102134
S315080097A02046C6F04BFF204610BD00BFA4390D0861
S315080097B070350D0884380D0810B50446054B03604E
S315080097C0006B18B170F058F900232363024B23602D
S315080097D0204610BDE40F0E0828380D0810B50446BB
S315080097E0054B0360406B08B144F0B6FD0023636384
S315080097F0024B2360204610BDAC8C0D085C380D0862
S3150800980010B50446174B03606433436000F51C70BB
S3150800981045F0BEFD14F5EC7205D004F5147300E0AE
S31508009820183B9A42FCD1104BE3672033C4F88030CA
S315080098300E4BC4F880300E4BE36704F13800A36D75
S3150800984013B10022A265984704F10800A36A13B170
S315080098500022A2629847074B6360074B23602046A5
S3150800986010BD00BF70930D08A4390D0870350D089A
S3150800987084380D0898380D0800390D0838B505469E
S315080098800446194B40F8043C643344F8043900F59F
S315080098901B7045F07DFD15F5EA7205D004F51473C5
S315080098A000E0183B9A42FCD1104BE3672033C4F81A
S315080098B080300F4BC4F880300E4BE36704F1380054
S315080098C0A36D13B10022A265984704F10800A36AA4
S315080098D013B10022A2629847074B6360074B45F80D
S315080098E0043C204638BD00BF70930D08A4390D0806
S315080098F070350D0884380D0898380D0800390D089C
S3150800990010B50446054A01210C2042F017F9E06813
S3150800991010B103689B68984710BD00BFB8370D089B
S3150800992010B50446054A01210C2042F007F9A06843
S3150800993010B103689B68984710BD00BFB8370D087B
S3150800994030B583B0C068D8B10D4614461A6801927E
S3150800995000221A6001AA214627F094FC019808B152
S3150800996044F0FAFC002301930C4B1B680093A38870
S315080099706BB12B8943F040032B81002003B030BD27
S31508009980074A01210C2042F0D9F80020F6E7E388BF
S31508009990002BEED12378402BEBD1EEE7DC390D080E
S315080099A0CC370D0830B583B08068D8B10D4614465B
S315080099B01A68009200221A606A46214627F062FC5D
S315080099C0009808B144F0C8FC002300930C4B1B68B0
S315080099D00193A3886BB12B8943F040032B810020A8
S315080099E003B030BD074A01210C2042F0A7F8002039
S315080099F0F6E7E388002BEED12378402BEBD1EEE790
S31508009A00DC390D08CC370D08F0B587B006460C468C
S31508009A10224A0321152042F091F8B568002D2DD071
S31508009A200023ADF810301E4B1B68039323893BB304
S31508009A301C4A1268039253B30123ADF81030277BF2
S31508009A40606844F0DFFB6368059304AB009305ABDD
S31508009A503A46A168284642F00DFC0446059808B126
S31508009A6044F07AFC002305932CB1B06818B142F093
S31508009A702DFA0023B360204607B0F0BD0320FBE7AC
S31508009A806289022AD4D1227B142AD1D1D7E76389E5
S31508009A90002BD1D1237B402BCED1D0E700380D083F
S31508009AA0E0390D08DC390D08012800D070474FF65B
S31508009AB0FF739942FAD170B58AB04C4B4C4A1A607A
S31508009AC04C4A5A604C4A1A6064325A6003F10802DA
S31508009AD0DA609A6000229A62DB6248491963CDF817
S31508009AE004D0CDF800D0089203F13801D963996300
S31508009AF09A65DB65424919669A66DA661A6783F8D3
S31508009B0074209A673F49D9673F49C3F880103F498F
S31508009B10D9672031C3F8801083F8AC20C3F8B82081
S31508009B20C3F8BC20C3F8C020C3F8C420C3F8C821B2
S31508009B30C3F8CC2183F8D021C3F8D421042203F535
S31508009B40EC7303E0002103F8181B013A002AF9DA3E
S31508009B5026480024C0F850420523C0F8543280F83D
S31508009B605842C0F87442C0F87842294BC0F870329F
S31508009B7080F87C42274E32462749C6F05AFD3246BF
S31508009B8026492748C6F055FD324626492648C6F0D6
S31508009B9050FD264D264B2B606C602C722846254BB3
S31508009BA040F8103B8EF078F9C5F8D040C5F8D44097
S31508009BB0C5F8D840C5F8DC4032461F492846C6F0E5
S31508009BC038FD1E481E4B036000220023C0E902230D
S31508009BD0C0E904231B4B03608461C46104634463C6
S31508009BE032461949C6F025FD0AB070BD98720020A4
S31508009BF000390D0898380D0870930D086936030862
S31508009C00B521030884380D0870350D08A4390D08E8
S31508009C1064E20D080000002001980008319700084A
S31508009C206800002045970008700000208071002019
S31508009C305C380D08AC8C0D08DD97000860720020B2
S31508009C4028380D08E40F0E08B9970008F0B583B058
S31508009C500F4F384628F0F6F80E4901F54053D3F869
S31508009C6084310D4A53600D4E0D4D009533463846E6
S31508009C7028F0F4FD0B4B33610B4C2246394630462F
S31508009C802AF0A0F8094B636325626C6003B0F0BD47
S31508009C909872002050C7012068000020700000203C
S31508009CA080710020805101006072002014380D0870
S31508009CB010B50446194B03606433436000F51C7005
S31508009CC045F066FB14F5EC7205D004F5147300E054
S31508009CD0183B9A42FCD1124BE3672033C4F8803014
S31508009CE0104BC4F88030104BE36704F13800A36DBD
S31508009CF013B10022A265984704F10800A36A13B1BC
S31508009D000022A2629847094B6360094B23604FF40F
S31508009D1022712046C6F092FC204610BD70930D08AD
S31508009D20A4390D0870350D0884380D0898380D08C3
S31508009D3000390D0838B5054604461B4B40F8043C67
S31508009D40643344F8043900F51B7045F021FB15F51A
S31508009D50EA7205D004F5147300E0183B9A42FCD168
S31508009D60124BE3672033C4F88030114BC4F88030B7
S31508009D70104BE36704F13800A36D13B10022A26506
S31508009D80984704F10800A36A13B10022A262984713
S31508009D90094B6360094B45F8043C4FF42271204691
S31508009DA0C6F04CFC204638BD70930D08A4390D0842
S31508009DB070350D0884380D0898380D0800390D08D7
S31508009DC010B50446044B0360044B03600821C6F033
S31508009DD035FC204610BD00BF2C970D085C390D08D0
S31508009DE010B50446044B0360044B03601C21C6F0FF
S31508009DF025FC204610BD00BF8C960D08B0380D080E
S31508009E0010B50446074B0360406B08B144F0A4FA4A
S31508009E1000236363044B2360E0212046C6F00EFC52
S31508009E20204610BDAC8C0D085C380D0810B50446EC
S31508009E30074B0360006B18B16FF01EFE0023236307
S31508009E40044B236038212046C6F0F8FB204610BD97
S31508009E50E40F0E0828380D0808B54FF6FF710120E3
S31508009E60FFF722FE08BD0F2070470E20704708B581
S31508009E7001213A2001F060FB11F08EF808BD08B503
S31508009E8001213A2001F058FB08BD0000BFF34F8FAF
S31508009E900549CA6802F4E062044B1343CB60BFF37A
S31508009EA04F8F00BFFDE700BF00ED00E00400FA0594
S31508009EB00D4B1B68B3F1FF3F06D04FF4801202FA30
S31508009EC003F30A4A13667047094B1B785BB9094BBB
S31508009ED04FF400725A6603F5A6235B681BB9034B59
S31508009EE04FF480121A667047DC0000200090004488
S31508009EF04575002000900050084B1B68B3F1FF3FE2
S31508009F000AD1074B1B783BB9064B5B6813F0010F68
S31508009F1002D0024B00221A60704700BFDC00002006
S31508009F204575002000C005504FF000639B6A03F199
S31508009F307842B2F5C04F07D21A680B4B9A4207D03F
S31508009F4000230370836070470023037083607047A3
S31508009F50012303704FF000639A6A926842609B6A15
S31508009F609B698360704700BF07B0CD5E08B54FF0A8
S31508009F70005340F202221A804FF20F025A80FFF76E
S31508009F8085FF4FF000639B6A03F17843B3F5C04F32
S31508009F9019D230B585B005460C4601238DF8043034
S31508009FA000230293039301A8FFF7BEFF039B13F454
S31508009FB0806F06D04FF000639B6A1B6C21462846CB
S31508009FC0984705B030BD7047494B1B78002B66D1C2
S31508009FD010B582B0044600230193009300285CD094
S31508009FE0434B01221A7002F090FC424B1860C1F0F4
S31508009FF0FFFC414B1B78002B55D0404B5A6E226113
S3150800A0009A6E626103F580524FF4804393663C4B27
S3150800A0105968A1613B499960196E2160596E616062
S3150800A020196CA160596CE1603749086C1864496C71
S3150800A0305964012151661B6E13F4005F44D0334BFB
S3150800A040DB6813F0010FFAD1FFF732FF304B042219
S3150800A0501A664FF400721A6600F064FAB0F1FF3F10
S3150800A06038D12B4C082323664FF4805323664FF0D0
S3150800A070006323664FF400236366694601A8FFF769
S3150800A08080FF019B2366009B63661B4B1B7823B1ED
S3150800A090204A116821665268626602B010BD144BE8
S3150800A0A002221A70704700F039FE0028A5D108234D
S3150800A0B0184A194919480068C5F00AFE00289CD1B3
S3150800A0C00D4B01221A7098E7154BDB6813F0010F48
S3150800A0D0FAD1B9E700F026FA40F201139842C0D047
S3150800A0E00B4B4FF400521A664FF480421A66B8E7D3
S3150800A0F046750020487500204475002000800050F1
S3150800A1000080004455CEAC0000C000540000044056
S3150800A110009000443C75002000710800E000002013
S3150800A120000004501F4B1B78012B03D01D4B012246
S3150800A1301A70704710B5044620B300F0F3F9B0F171
S3150800A140FF3F20D12268184B1A6662685A66A268D1
S3150800A1501A64E2685A64A36913F0010F02D0124B1D
S3150800A16000229A60FFF7C8FE2269104B5A66626998
S3150800A1709A66C1F059FC0E4B186802F0CCFB094BE5
S3150800A18000221A7010BD00F0CDF940F20113984272
S3150800A190D8D0084B01225A66074BDB6813F0010F2B
S3150800A1A0FAD1CFE7467500200080004400800050B1
S3150800A1B048750020009000400000044038B54FF074
S3150800A1C000639B6A03F17843B3F5C04F26D2154B5B
S3150800A1D01B781BB1022B01D0002421E0124D284622
S3150800A1E0FFF7F2FE11490120C1F88001104B03F573
S3150800A1F000544FF48032E260086003F580531A6118
S3150800A2004FF000639B6ADB69984704462846FFF7C8
S3150800A21089FF2CB9034B01221A7001E04FF48174AF
S3150800A220204638BD457500202075002000E100E075
S3150800A230008000442C4B1B7803B9FEE700B583B0B9
S3150800A24000230093019308236A4628492848006892
S3150800A250C5F03EFD48BB274BD3F840311F2B1AD912
S3150800A260244BD3F84021203A012303FA02F2019B3A
S3150800A2701343019308236A461C491D480068C5F024
S3150800A280DDFC4FF0005340F20B221A804FF20F020A
S3150800A2905A80FFF7FBFD174BD3F84021012303FA39
S3150800A2A002F2009B13430093E4E7134A9042E8D175
S3150800A2B0104BD3F840311F2B0ED90E4BD3F8402143
S3150800A2C0203A01239340019308236A460749084820
S3150800A2D00068C5F0B3FCD4E7064BD3F84021012348
S3150800A2E093400093F0E700BF467500200071080010
S3150800A2F0E0000020008000440BE000F038B54FF085
S3150800A30000639B6A03F17842B2F5C04F14D2044643
S3150800A3101B6B03F17843B3F5C04F0DD2074D2846A2
S3150800A320FFF752FE4FF000639B6A1B6B5B68204683
S3150800A33098472846FFF7F6FE38BD00BF4C75002043
S3150800A34008B54FF000639B6A03F17842B2F5C04F37
S3150800A35008D21B6B03F17842B2F5C04F05D29B6851
S3150800A360984701E04FF4817008BD4FF48170FBE710
S3150800A37030B583B001904FF000639B6A03F17842D1
S3150800A380B2F5C04F16D21B6B03F17843B3F5C04F35
S3150800A39015D20C4D2846FFF717FE4FF000639B6A4F
S3150800A3A01B6B9B69012101A8984704462846FFF7BD
S3150800A3B0B9FE01E04FF48174204603B030BD4FF476
S3150800A3C08174F9E74C7500202DE9F0414FF00063E0
S3150800A3D09B6A03F17844B4F5C04F17D207460E4678
S3150800A3E015461B6BBBB1DFF834804046FFF7ECFD22
S3150800A3F04FF000639B6A1B6B5B6A2A4631463846F8
S3150800A400984704464046FFF78DFE01E04FF4017475
S3150800A4102046BDE8F0814FF40174F9E74C75002039
S3150800A42070B54FF000639B6A03F17842B2F5C04FEE
S3150800A43018D205460C461B6B03F17843B3F5C04F9B
S3150800A44014D20C4E3046FFF7BFFD4FF000639B6AEF
S3150800A4501B6B9B6A21462846984704463046FFF7F9
S3150800A46061FE01E04FF40174204670BD4FF401749B
S3150800A470FAE700BF4C75002030B5ADF50F7D4FF0FB
S3150800A48000639B6A03F17843B3F5C04F15D20C46B7
S3150800A4904FF40E726946FFF797FF054678B92146CD
S3150800A4A06846FFF7BDFF40F201239842F7D040F215
S3150800A4B00323984203D0054601E04FF40175284668
S3150800A4C00DF50F7D30BD0000F8B50D464FF0006361
S3150800A4D09B6A03F17841B1F5C04F19D20446164676
S3150800A4E01B6B03F17843B3F5C04F15D20C4F3846B2
S3150800A4F0FFF76AFD4FF000639B6A1B6B9B6B324646
S3150800A50029462046984704463846FFF70BFE01E0E1
S3150800A51040F201142046F8BD40F20114FAE700BFE4
S3150800A5204C7500204FF000639B6A03F17842B2F540
S3150800A530C04F29D21B6B03F17843B3F5C04F26D21F
S3150800A54000B585B001238DF80430002302930393E8
S3150800A55001A8FFF7E9FC039B13F4803F1AD0029B7E
S3150800A560C3F307421B0E18D0012B08D04FF0006327
S3150800A5709B6A1B6B1B6C984705B05DF804FB0A2A9F
S3150800A580F4D840F20110F7E740F20110704740F2A4
S3150800A5900110704740F20110EEE740F20110EBE7B8
S3150800A5A070B54FF000639B6A03F17842B2F5C04F6D
S3150800A5B018D205460C461B6B03F17843B3F5C04F1A
S3150800A5C014D20C4E3046FFF7FFFC4FF000639B6A2F
S3150800A5D01B6BDB6B21462846984704463046FFF737
S3150800A5E0A1FD01E040F20114204670BD40F20114BD
S3150800A5F0FAE700BF4C7500202DE9F04190B01746E8
S3150800A6001D464FF000639B6A03F17842B2F5C04FCE
S3150800A6104ED206460C461B6B03F17843B3F5C04F82
S3150800A6204BD201A8FFF76AFE059BD3F80C801FFAE8
S3150800A63088F3002B44D00EA93046FFF781FEC8BB2D
S3150800A6400E9E63190F9A93423DD81FFA88F8B4FBF9
S3150800A650F8F208FB1242F2B1C8F1000C0CEA040049
S3150800A6604044B3FBF8F108FB113179B103EA0C0158
S3150800A6708844A8EB0001304411B1FFF791FFC8B92F
S3150800A6802A4639463019FFF71FFF13E0A2EB0808E0
S3150800A69008EB0501EFE73019B5FBF8F308FB135390
S3150800A6A023B1C8F1000129404144E5E72946E3E71B
S3150800A6B04FF4817010B0BDE8F0814FF48170F9E76E
S3150800A6C040F20140F6E740F20240F3E703680B6008
S3150800A6D00160704708B543680BB1984708BD22204A
S3150800A6E0FCE708B543690BB1984708BDFF20FCE7AE
S3150800A6F00A681378022B00D1704710B508461379FB
S3150800A700517903EB43031B011433064C1B59CB4009
S3150800A71013F0010F0CBF012300231370FEF78CFD05
S3150800A72010BD00BF30C0035030B583B0054604687D
S3150800A73001213A2000F000FF0023012261792079E7
S3150800A74002F028FB2379627903EB43031B011433D8
S3150800A7500F495B58D34013F0010F0CBF01230023A8
S3150800A7602370A379022B02D0002003B030BD00F07D
S3150800A77057FA2A460749607900F07AFA024661795B
S3150800A780207901230193009302F070FAECE700BFE9
S3150800A79030C00350F1A60008036818787047000017
S3150800A7A002681378022B12D01379517903EB43030D
S3150800A7B01B01143312481B58CB4003F00100034613
S3150800A7C09179012904D011B980F001001070704701
S3150800A7D05188490089B20B4343F47F4343F0C003D1
S3150800A7E04FF6E0718B4205D04FF6DF718B4204D0ED
S3150800A7F05380704701211170F6E700211170F7E7C1
S3150800A80030C0035008B503681A78022A00D008BD7C
S3150800A81000225A80FFF788FFF9E710B582B004686E
S3150800A8202378022B04D0A379022B03D002232370AA
S3150800A83002B010BD0021607900F00AFA617920792A
S3150800A8400023019300930A4602F010FAEEE700008F
S3150800A850F0B585B00C4694469DF83410664A1278D1
S3150800A860002A00F0BD800546BCF1070F00F2BA8049
S3150800A8700A9A002A00F0B8800B9A002A00F0B680DF
S3150800A8800E9AB2F5006F00F3B38001285BD05B4ADD
S3150800A89002EB0C12127B002A00F0AC800022009218
S3150800A8A0019202920392564A02EB4C1E002C4FD19B
S3150800A8B04FEA4C1600209051CEF80400CEF8080056
S3150800A8C0CEF80C009EF8020040F010008EF8020048
S3150800A8D09EF8030040F030008EF8030021B9C1B29B
S3150800A8E041F003018EF8031000930E9B013B444A86
S3150800A8F04FEA4C1002EB4C11165A63F30E16165219
S3150800A9000A9B8B600B9B4B60CB789DF83C2062F3CF
S3150800A9108303CB70012D36D0109B002B56D0374AB7
S3150800A9204FEA0C1102EB0C1310985050119A5A600A
S3150800A93000249C605D7372466946604602F0C8FA58
S3150800A940204605B0F0BD0C9A002AA0D12D48F8E79C
S3150800A9502B4F4FEA4C1607EB4C120020B8515060AB
S3150800A9609060D060907840F010009070D07840F0F9
S3150800A9700300D0700029B7D107EB4C12C1B241F0E1
S3150800A9803001D170B0E70E460A7B42F001020A7325
S3150800A990D2B242F002020A73CA68042161F39F0226
S3150800A9A0F26006F1100796E80F0087E80F00F269D3
S3150800A9B06FF0030161F39F02F2610C9B7361012C36
S3150800A9C0AAD10B9AB2610C9A7260A5E7002DA6D19E
S3150800A9D00B4B03EB4C139A786FF304129A709EE7AD
S3150800A9E00948AEE70748ACE70648AAE70548A8E7D6
S3150800A9F00448A6E70548A4E7E8760020687500201D
S3150800AA00E8750020018000F0028000F0078000F061
S3150800AA10134B1B78FBB110B50446F0B101F075FF76
S3150800AA200023072B13DC0F4A02EB0312127B0AB131
S3150800AA300133F6E723600B4A190102EB03130124DD
S3150800AA401C730024545001F066FF204602E001F012
S3150800AA5062FF054810BD054870470548FAE700BF7C
S3150800AA60E876002068750020048000F0028000F077
S3150800AA70018000F000B583B0144B1B6801930023D6
S3150800AA808DF8043001F041FF114B1B7833B9104B98
S3150800AA9001221A7001F03FFF002309E001F03BFF95
S3150800AAA00C480FE00C4A02EB031200211173013324
S3150800AAB0072BF7DD04238DF807300DEB030002F0B2
S3150800AAC0D5F9002003B05DF804FB00BFE4390D0892
S3150800AAD0E8760020038000F06875002000B589B08C
S3150800AAE084460E9807900D9806909DF830000590BC
S3150800AAF00B9804909DF8280003900020029001937B
S3150800AB0000920B4662460121FFF7A2FE09B05DF8E6
S3150800AB1004FB00000C4B1B7873B110B50C460728D4
S3150800AB200CD869B1094B03EB00131B7B53B102F038
S3150800AB3019FA2060002010BD054870470548FAE755
S3150800AB400448F8E70448F6E7E87600206875002028
S3150800AB50028000F0018000F0078000F0F8B5194B7C
S3150800AB601F6D5B6D1F4002D40125002402E0FEE73D
S3150800AB7001346D00072C24D83D42F9D0124B1D65CF
S3150800AB802301124AD358002BF2D002EB0416B168FF
S3150800AB900131B16072682046984780F00100C0B262
S3150800ABA0737B012BE4D10028E2D0094B03EB441355
S3150800ABB01A7B6FF341021A731A7F6FF341021A77F1
S3150800ABC0D6E7F8BD00000450002004506875002040
S3150800ABD0E875002010B5044602E0202007E09047FB
S3150800ABE0DCB194FAA4F00028F7D0B0FA80F001237B
S3150800ABF0834024EA0304094B03EB00135A68002A2E
S3150800AC00EED0064B03EB00131B7B002BE7D0034B60
S3150800AC1003EB001399689047E2E710BDEC76002035
S3150800AC2008B5192001F07AFE28B1084B4FF00072DA
S3150800AC30C3F880211A601A2001F070FE28B1034B70
S3150800AC404FF08062C3F880211A6008BD00E100E079
S3150800AC5038B505460C4601F058FE044B03EB0513C0
S3150800AC605C6000221A7301F056FE38BDEC760020AF
S3150800AC70F8B505460F46164601F047FE05F0FC0CEA
S3150800AC80104BD3F824140023032B0CD8EC1804F02B
S3150800AC90030444EA0C0421FA04F212F0010F03D06B
S3150800ACA00133DBB2F0E7FF24FF2C06D0064B03EB9B
S3150800ACB004135F609E6001221A7301F02CFE204681
S3150800ACC0F8BD00BF00C00350EC76002008B5084B5D
S3150800ACD0D3F82404D3F82024104000F0553020F08F
S3150800ACE0502003F50053C3F82004FFF773FF08BD8F
S3150800ACF000C0035008B5084BD3F82404D3F8202421
S3150800AD00104000F0AA3020F0A02003F50053C3F845
S3150800AD102004FFF75FFF08BD00C0035008B5034BCA
S3150800AD201968034B1868C4F0B9FE08BDE400002092
S3150800AD30E0000020B0F1FF3F01D010B9704702488B
S3150800AD4070470248704700BF21E000F024E000F099
S3150800AD508908002301E0043001338B4205D20268DA
S3150800AD60B2F1FF3FF7D000207047012070477047C7
S3150800AD7038B50446C7F018FFFFF7DCFF054650B99B
S3150800AD80074B9B680A3303F01F03012199402046AD
S3150800AD90FFF7DEFF08B1284638BD024DFBE700BFC6
S3150800ADA00080E00F0EE000F0F8B505460E46940068
S3150800ADB02246C7F001FFFFF7BDFF074628B922461E
S3150800ADC031462846C6F047FD08B93846F8BD014F52
S3150800ADD0FBE700BF10E000F008B50346084613F08D
S3150800ADE0030F02D111F0030F0AD092001946C6F0DC
S3150800ADF042FD002008BD53F8041B40F8041B013A25
S3150800AE00002AF8D1F5E7000010B582B0044601A87B
S3150800AE1002F0E8F99DF8063023800122E27000204E
S3150800AE20A070054B9B680A3303F01F0302FA03F36D
S3150800AE30636002B010BD00BF0080E00F08B502F0E5
S3150800AE40BFF808BD08B502F0ABF8002008BD000041
S3150800AE5008B501F053FD014B186008BD607C002061
S3150800AE6008B5024B186801F04DFD08BD607C00204E
S3150800AE7070470000024B4FF480321A67704700BFD4
S3150800AE8000900050324B984252D029D8314B984204
S3150800AE9048D009D9304B984247D0304B98421DD1FB
S3150800AEA02F4BD3F8800070472E4B984237D005D9E0
S3150800AEB02D4B984210D12A4B186F70472B4B98424E
S3150800AEC002D02B4B984202D1254B986D7047294BDF
S3150800AED09842F9D00020704700207047002070473C
S3150800AEE0254B98422CD00CD9244B98422CD003F5EC
S3150800AEF0740303F5105398420FD1194BD3F89800F1
S3150800AF0070471F4B984217D01E4B984203D1144BDB
S3150800AF10D3F88C0070470020704700207047104B0C
S3150800AF20586E70470E4B586F70470D4B986F7047A9
S3150800AF300B4BD3F884007047094BD3F88800704749
S3150800AF40074BD3F890007047054BD3F89400704729
S3150800AF500048E8010024F400C0EA210180BA8C0107
S3150800AF600080E00FC0CF6A00405DC60080841E00E6
S3150800AF7000093D0040420F00007E56030090D003B2
S3150800AF8080D54302006CDC0238B505460C460C4BEE
S3150800AF90D3F8803003F00303012B08D0022B0AD024
S3150800AFA00023184605B1286004B1236038BD11F0A6
S3150800AFB051F80E23F6E711F09BF80723F2E700BFD6
S3150800AFC00080005038B505460C46164BD3F820319C
S3150800AFD003F00703013B052B20D8DFE803F0030B3A
S3150800AFE0130F171B11F02AF8052305B1286004B1C1
S3150800AFF0236038BD11F05EF80323F6E711F078F800
S3150800B0000723F2E711F070F80223EEE711F016F8BD
S3150800B0100623EAE711F04EF80423E6E7002318466C
S3150800B020E3E700BF0080005038B505460C46164BCE
S3150800B030D3F8283103F00703013B052B20D8DFE8B6
S3150800B04003F003131B0F0B1710F0F8FF052305B1C8
S3150800B050286004B1236038BD10F0F0FF0623F6E738
S3150800B06011F046F80723F2E711F024F80323EEE778
S3150800B07011F020F80423EAE711F036F80223E6E790
S3150800B08000231846E3E700BF0080005070B582B081
S3150800B09006460D4600230193104BD3F8804104F071
S3150800B0A00304022C16D0032C0FD0012C07D0002441
S3150800B0B00EB1019B336005B12C6002B070BD002152
S3150800B0C001A8FFF77FFF1024F2E711F011F80190AD
S3150800B0D00724EDE711F008F80190E9E70080005031
S3150800B0E030B583B005460C4600230193144BD3F8BC
S3150800B0F0203203F00703013B032B1ED8DFE803F0D9
S3150800B100020E1318002101A8FFF78EFF12230DB1B6
S3150800B110019A2A6004B1236003B030BD10F0E8FF3D
S3150800B12001900723F3E711F027F801900A23EEE7C9
S3150800B13011F028F801900923E9E70023E7E700BFA3
S3150800B1400080005038B505460C460F4BD3F8403101
S3150800B15003F00303022B0ED0032B10D0012B06D0CD
S3150800B1600023184605B1286004B1236038BD11F0E4
S3150800B17003F80A23F6E711F005F80923F2E710F0B9
S3150800B180FEFF0C23EEE700BF0080005030B583B009
S3150800B19005460C46002301934FF0E0231B6913F084
S3150800B1A0040F0CD010F070FF01900D2300930DB121
S3150800B1B0019B2B600CB1009B236003B030BD694630
S3150800B1C001A8FFF7BFFFF2E730B583B005460C4686
S3150800B1D000230193144BD3F8603203F00703013BB5
S3150800B1E0032B1FD8DFE803F0020E1914002101A86B
S3150800B1F0FFF7E8FE10230DB1019A2A6004B1236017
S3150800B20003B030BD002101A8FFF79CFF1123F2E728
S3150800B21010F06EFF01900723EDE710F065FF01902F
S3150800B2200223E8E70023E6E70080005030B583B044
S3150800B23005460C4600230193144BD3F8943203F0C9
S3150800B2400703013B032B1FD8DFE803F0020E19148E
S3150800B250002101A8FFF7B6FE10230DB1019A2A6056
S3150800B26004B1236003B030BD002101A8FFF76AFFCF
S3150800B2701123F2E710F03CFF01900723EDE710F0E9
S3150800B28033FF01900223E8E70023E6E70080005039
S3150800B29030B583B005460C46002301930C4BD3F812
S3150800B2A0703203F00303012B09D0022B0DD11523AD
S3150800B2B00DB1019A2A6004B1236003B030BD0021A4
S3150800B2C001A8FFF73FFF1123F2E70023F0E700BFCD
S3150800B2D00080005038B505460C46124BD3F80032AC
S3150800B2E003F00703013B032B18D8DFE803F0020A33
S3150800B2F00E1210F041FF0A2305B1286004B123603D
S3150800B30038BD10F03FFF0923F6E710F038FF0C238D
S3150800B310F2E710F0B9FE800A0F23EDE7002318467E
S3150800B320EAE700BF0080005038B505460C46124BC8
S3150800B330D3F8083203F00703013B032B18D8DFE8DC
S3150800B34003F0020A0E1210F017FF0A2305B128604F
S3150800B35004B1236038BD10F015FF0923F6E710F095
S3150800B3600EFF0C23F2E710F08FFE800A0F23EDE79D
S3150800B37000231846EAE700BF0080005038B50546A6
S3150800B3800C460F4BD3F8403203F00303022B0ED0C2
S3150800B390032B10D0012B06D00023184605B12860D0
S3150800B3A004B1236038BD10F0E7FE0A23F6E710F073
S3150800B3B0E9FE0923F2E710F0E2FE0C23EEE700BFF0
S3150800B3C00080005038B505460C460F4BD3F860315F
S3150800B3D003F00303022B0ED0032B10D0012B06D04B
S3150800B3E00023184605B1286004B1236038BD10F063
S3150800B3F0C3FE0A23F6E710F0C5FE0923F2E710F0AC
S3150800B400BEFE0C23EEE700BF0080005038B50546A7
S3150800B4100C46104BD3F8000100F00300032815D89A
S3150800B420DFE800F002080C10012305B1286004B11A
S3150800B430236038BD10F03EFE0323F6E710F0A2FEA7
S3150800B4400923F2E710F04EFE0823EEE7002318461C
S3150800B450EBE700BF00800050B0F5207F20D00ED863
S3150800B460B0F5007F16D020D810B1B0F5C07F04D152
S3150800B4700F4B186FC0F3033018E0002016E0B0F544
S3150800B480607F05D10A4BD3F88000C0F301100DE0A8
S3150800B49000200BE0064BD3F89000C0F3046005E0EB
S3150800B4A0034B186FC0F3802000E00020013070477E
S3150800B4B00080005038B505460C46174B4FF48032CD
S3150800B4C09A660020FFF7C8FF05FB00F0134BDA6900
S3150800B4D002F4803241F67131D9635B6823F4401374
S3150800B4E06CB90F49884207D800210B430B494B60BA
