S0220000636869702D65667233322D6C69676874696E672D6578616D706C652E733337C3
S315080060000000042039AC010835AC01082DE2070868
S3150800601039C4000835AC010835AC010835AC0108AF
S3150800602035AC010835AC010835AC010811F9010891
S3150800603035AC01088C000020B1F801088971010807
S31508006040D18E000835AC010835AC010835AC01081D
S3150800605035AC010835AC010835AC010835AC01088A
S3150800606035AC010835AC010835AC010835AC01087A
S3150800607035AC0108B981000835AC010835AC010812
S3150800608035AC010835AC010835AC010835AC01085A
S3150800609035AC0108F997000835AC010835AC01089C
S315080060A035AC0108919900086999000835AC0108D2
S315080060B035AC0108B5000D08AD0A0D08650A0D08CE
S315080060C0610A0D0881020D08A90A0D08690A0D085A
S315080060D0810A0D086D0A0D080D0B0D08ED0A0D084D
S315080060E035AC010835AC010835AC010835AC0108FA
S315080060F065B0010835AC010835AC010835AC0108B6
S3150800610035AC010835AC010835AC010835AC0108D9
S3150800611035AC010835AC010835AC010835AC0108C9
S3150800612035AC010835AC010835AC010835AC0108B9
S3150800613035AC010835AC010835AC010835AC0108A9
S3150800614035AC010805B2010835AC0108BFCE000818
S3150800615061E80C0835AC010819C70C081FC70C08FC
S3150800616035AC010835AC010835AC010835AC010879
S3150800617010B5054C237833B9044B13B1044800E035
S3150800618000BF0123237010BD180A0020000000007C
S31508006190D01A0F0808B5034B1BB10349034800E0A2
S315080061A000BF08BD000000001C0A0020D01A0F0816
S315080061B0A3F5803A704700BF174B002B08BF134B57
S315080061C09D46FFF7F5FF00218B460F461348144AF4
S315080061D0121ACEF013F90E4B002B00D098470D4B30
S315080061E0002B00D098470020002104000D000D4820
S315080061F0002802D00C4800E000BFCEF073F820005B
S31508006200290001F0D3FDCDF0E3FE00BF0000080031
S31508006210000000000000000000000420180A00200A
S31508006220E8170220000000000000000010B584B046
S315080062300C4600230093164B164A10210A2011F02B
S315080062408BFC154B186090B1144B0293144B0193B9
S3150800625001230093104B4FF480621249204612F036
S3150800626015FB114B186050B1002004B010BD0F4843
S3150800627077F09AFE40F2017000F054FAE4E70C4811
S3150800628077F092FE40F2027000F04CFAECE700BF9D
S31508006290C40B0020240B0020140B00205C0A0020ED
S315080062A0140C002024570D08180B002000570D0861
S315080062B028570D0830B5A7B004460D4600293AD030
S315080062C02A4B1D602A4B00932346002201212948A8
S315080062D013F0D6FA284B1860002833D0274B0093C2
S315080062E0234601220A21264813F0CAFA254B1860CC
S315080062F080B32549254877F057FE01F0B6FD2449B5
S31508006300244801F0D1FD76F0D1F80368D3F884303B
S31508006310984705AB03938123049332F03FFC03A906
S3150800632032F0E6FBF0B903AB93E8030091F0D4FD35
S31508006330002027B030BD184877F036FE2F2000F031
S31508006340F1F9BDE7154877F02FFE40F2047000F02A
S31508006350E9F9C3E7124877F027FE40F2047000F027
S31508006360E1F9C6E70F4877F01FFEE1E7580A002073
S31508006370D966000860570D081C0B002085640008C4
S3150800638084570D08540A0020AC570D08B8570D0855
S31508006390CC7E0D08380A002044570D0868570D08AA
S315080063A090570D08D8570D0810B52C4878F0DBF82B
S315080063B0C0B92B4B1B78022B35D02A4B1B680BB167
S315080063C0DB7D5BBB284B1B78002B37D0274B1B7814
S315080063D0002B33D0264B1B784BB30121254801F0FF
S315080063E04FFD20E0244C20467CF09DF81E4B18708B
S315080063F020467CF047F81D4B187020467CF0A4F820
S315080064001B4B18701D487BF06DFC003818BF012027
S315080064101B4B1870114878F0B0F8CAE7FA221146F3
S31508006420144801F07FFD134801F052FD10BD3222D9
S3150800643040F2B6310F4801F075FDF4E7104B1B78B2
S315080064402BB1642211460B4801F06CFDEBE740F2D4
S31508006450B6323221074801F065FDE4E70846012017
S31508006460141C0020580A0020200B0020340A0020A3
S31508006470500A0020380A0020989301208C930120A6
S31508006480210B002008B5FFF78FFF08BD00B583B0C4
S3150800649000220092134603210948006813F00CFAFB
S315080064A028B1084B00221A7003B05DF804FB0648B1
S315080064B077F07AFD40F2067000F034F9F1E700BF94
S315080064C01C0B0020220B0020F0570D0810B582B0D7
S315080064D00446114B186813F07DFB78B964230093C2
S315080064E00023224604210C48006813F0E5F9012828
S315080064F00AD10A4B01221A7002B010BD084877F07B
S3150800650053FDFFF7C3FFE9E7064877F04DFD40F274
S31508006510057000F007F9ECE71C0B0020220B0020A1
S3150800652008580D0824580D080388012B2BD110B5DF
S31508006530154B1B781BB1154A1278012A05D01BB1D9
S31508006540124B1B78022B17D010BD40F6B8311048F5
S3150800655077F02AFD40F6B830FFF7B8FF0B4B02225A
S315080065601A700C4C0021204601F08AFC4FF4FA718F
S31508006570204601F0DDFCE7E7044B00221A700648C6
S3150800658092F0F0FFE0E77047220B0020141C002071
S3150800659040580D08380A0020E8C7012010B50379CD
S315080065A0012B0CD01E4B1B781BB11E4A1278012AF0
S315080065B015D01BB11B4B1B78022B27D010BD184BCF
S315080065C01B78002BFAD1174B1B78002BF6D140F617
S315080065D0B830FFF77BFF134B01221A70EEE7FFF77F
S315080065E055FF104B00221A700F487BF09CFF48B9E4
S315080065F00E4C012120467BF05DFB002120467BF0F6
S3150800660061FBDBE70A4877F0CFFCD7E7FFF73EFFE9
S31508006610044B00221A70074877F0C6FCCEE700BF85
S31508006620220B0020141C0020989301208C93012033
S3150800663080580D08C0580D0810B582B00B4B1C6861
S3150800664012F00EFA0246002300930121204613F0A9
S3150800665033F9012801D102B010BD054877F0A4FC32
S3150800666040F2057000F05EF8F5E700BF540A002016
S31508006670E0580D0810B582B0144B1B6813B30446D6
S3150800668019F0C2F880B10023019301AA21460F48E8
S31508006690006811F039FC019B6BB14FF0E0234FF015
S315080066A08052C3F8042D06E000230122214607483C
S315080066B0006811F031FB08B102B010BD044877F04C
S315080066C073FCF9E7034877F06FFCF5E7140B002035
S315080066D0F8580D0828590D0800B585B00123ADF8FE
S315080066E000300190034B03936846FFF7C3FF05B0DC
S315080066F05DF804FB2965000808B5CB6813B10846A0
S31508006700984708BD014877F04FFCFAE750590D083D
S3150800671008B50146024877F047FC19F0B3F8FEE7DA
S3150800672080590D0808B5FFF7F3FF0000124A12F06A
S31508006730070F1ED0D11D21F00701C1F5A043134450
S315080067400A460E480260002141601344083B23F0C4
S3150800675007030B48036059601960991A5160136062
S31508006760084B1960084B1960084B4FF000421A6035
S3150800677070474FF4A043E4E71C1C0020306C00204F
S31508006780181C0020246C0020206C00201C6C0020A3
S3150800679010B500B3044612F05BF954F8043C0F4AEE
S315080067A01268134209D054F8081C69B119F06AF83E
S315080067B00B490C48CEF01AF9FEE719F063F80A49B6
S315080067C00848CEF013F9FEE723EA0203A3F108040A
S315080067D012F0F0F900E00024204610BD1C6C0020E1
S315080067E0FC590D08E0590D08B0590D08014B1868F9
S315080067F0704700BF206C0020014B1868704700BF27
S31508006800246C002008B518F049FF034B1A68034B9F
S315080068101A6018F051FF08BD206C0020246C002077
S31508006820F8B5074612F014F9174B1B6893B14FF0E9
S31508006830FF3600252C4604E01B68144A12689A4263
S315080068400CD001345A68AA4200D91546B242F3D28E
S315080068501646F1E74FF0FF3600252C4612F0AAF946
S315080068607D60BE60FC6018F019FF094B1B683B6031
S31508006870084B1B687B61084B1B68BB61074B1B6891
S315080068803B6118F019FFF8BD306C0020181C002079
S31508006890206C0020286C00202C6C0020246C002022
S315080068A010B588B00446164B1B6893B1144B1A46AC
S315080068B01B68A342FBD351685018A0420DD06168EB
S315080068C0601883420ED02360944200D0146008B04A
S315080068D010BD01A8FFF7A4FFE8E76068014451600E
S315080068E01446ECE707480068834206D05B681944FB
S315080068F0616013681B682360E6E72060E4E700BF71
S31508006900306C0020181C002038B5044612F0A0F898
S315080069103E4B1B68EBB13E4B1B681C421CD1631EE9
S3150800692013F10A0F0BD804F1080214F0070F05D06B
S3150800693022F00703083393425AD91A4682B912F04D
S3150800694039F9002578F084FF15F0070F56D1284647
S3150800695038BDFFF7EBFEDEE712F02CF90025F1E76C
S315080069602C4B1B68934202D32B490C6805E012F0A6
S3150800697021F90025E6E721461C466368934202D2C0
S315080069802368002BF7D1214B1B68A34212D00D6850
S31508006990083523680B6063689B1A102B12D9A01858
S315080069A010F0070F0AD018F06DFF1C491C48CEF0EE
S315080069B01DF8FEE712F0FEF80025C3E743606260A3
S315080069C0FFF76EFF626813490B689B1A0B6015493F
S315080069D009688B4201D213490B600D4B1B681343A0
S315080069E0636000232360104A13680133136000E0D4
S315080069F0002512F0DFF8002DA6D1A3E718F042FF14
S31508006A000A490748CDF0F2FFFEE700BF181C002030
S31508006A101C6C0020206C0020306C00201C5A0D08CD
S31508006A20E0590D08246C0020286C0020585A0D08DF
S31508006A3038B501FB00F419B1B4FBF1F181420AD172
S31508006A402046FFF761FF054618B122460021CDF022
S31508006A50D5FC284638BD0025FBE7000080B338B5CD
S31508006A600446A0F1080550F8043C164A1268134279
S31508006A7009D050F8081C69B118F004FF12491348E8
S31508006A80CDF0B4FFFEE718F0FDFE11490F48CDF032
S31508006A90ADFFFEE723EA020340F8043C11F0D8FFF5
S31508006AA054F8041C0B4A13680B4413602846FFF776
S31508006AB0F7FE094A13680133136012F07BF838BDF4
S31508006AC0704700BF1C6C0020FC590D08E0590D08E2
S31508006AD0B0590D08206C00202C6C0020F8B505462E
S31508006AE00C46FFF755FED8B10746A4B1A04201D11E
S31508006AF02E461AE021460120FFF79AFF0646A0B166
S31508006B003A46A74228BF22462946CDF050FC2846D9
S31508006B10FFF7A4FF09E02846FFF7A0FF002604E0D8
S31508006B2021460120FFF784FF06463046F8BD08B522
S31508006B30FFF7EAFE08BD08B5FFF790FF08BD08B5E0
S31508006B40FFF7CCFF08BD08B50846FFF7F0FF08BDFC
S31508006B5008B50846FFF7EFFF08BD08B50846114611
S31508006B60FFF7EDFF08BD08B506F0CCF90FF0F2F90E
S31508006B7077F00EFA34F0B8FA32F0E6FA08BD10B536
S31508006B8082B00022ADF8062003689C680DF1060362
S31508006B90A047192802D020B1002000E0012002B049
S31508006BA010BD0120FBE7052B01D8002070472F20D8
S31508006BB070470000014B0360704700BFF45C0D0886
S31508006BC0024A0260024A0260704700BF185D0D085B
S31508006BD0F45C0D08024A0260024A0260704700BF70
S31508006BE0045D0D08F85B0D08024A0260024A02605D
S31508006BF0704700BFD45C0D080C5C0D08034A0260A0
S31508006C00034A0260034A0260704700BFD0870E0835
S31508006C101C870E08A05C0D08024A0260024A026040
S31508006C20704700BFF88A0E08C05C0D0808B5024810
S31508006C307BF0ACFB08BD00BF3CA4012008B50248A8
S31508006C407BF0ABFB08BD00BF3CA4012008B501F0F2
S31508006C504BFE08BD038848F20102934204D048F26D
S31508006C600202934212D0704790F90820012AF6D101
S31508006C7010B5094877F098F948F096FC03685C69FE
S31508006C800023064A40F6B831A04710BD90F90930EE
S31508006C90012BE8D1ECE700BF985A0D084D6C0008A7
S31508006CA0012800D0704708B54FF6FF73994200D007
S31508006CB008BD0948094B0360094B0360002343607C
S31508006CC08360C3600374436103764376054A0649C5
S31508006CD0CCF04BFAECE700BFF46E0020685C0D08B8
S31508006CE078460E08000000204513080810B504462B
S31508006CF0034B03603821CCF03DFA204610BD00BF97
S31508006D00F45C0D0810B50446044B0360044B03609D
S31508006D103821CCF02FFA204610BD00BF185D0D08AB
S31508006D20F45C0D0810B50446044B0360044B03607D
S31508006D300421CCF01FFA204610BD00BF045D0D08E3
S31508006D40F85B0D0810B50446044B0360044B03605A
S31508006D500821CCF00FFA204610BD00BFD45C0D0800
S31508006D600C5C0D0808B5104B0360D0F8F4317BB9FC
S31508006D70D0F8483173B9D0F804316BB9D0F89830E7
S31508006D8063B9436D63B9036963B9084B036008BD0A
S31508006D90CDF0EAF8CDF0E8F8CDF0E6F8CDF0E4F875
S31508006DA0CDF0E2F8CDF0E0F868790E087C5B0D08C6
S31508006DB038B504460C4B036043688BB1437C4BB92A
S31508006DC0C5683DB135B12B681B68284698472846E3
S31508006DD075F0EEFB0023E36063742374237263602B
S31508006DE0024B2360204638BD30050E08685C0D0846
S31508006DF0406818B108B577F06FF808BD03207047EA
S31508006E00406858B100B583B04FF0000C8DF807C044
S31508006E1032B177F033F803B05DF804FB032070470E
S31508006E200BB12F20F7E70DF10702F2E770B582B034
S31508006E300446A54BD3E88F3F13F0010F3FD0A34B71
S31508006E40D3E88F3F13F0010F47D0A14BD3E88F3F0C
S31508006E5013F0010F4FD09F4BD3E88F3F13F0010F6C
S31508006E6067D09D4BD3E88F3F13F0010F00F0CF801A
S31508006E709A4BD3E88F3F13F0010F00F0DC80984B54
S31508006E80D3E88F3F13F0010F00F0EB802369002B46
S31508006E9000F0F680236B002B00F0F780636B002B65
S31508006EA000F006818F4D2169284688F041FF284663
S31508006EB087F04AFF002800F0598102B070BD824869
S31508006EC0CCF05AF90028BAD07F48CCF061F9864A46
S31508006ED086498748CCF049F9B1E77C48CCF04CF9AB
S31508006EE00028B2D07948CCF053F97F4A81498248C4
S31508006EF0CCF03BF9A9E77648CCF03EF90028AAD0B1
S31508006F007E4D7F4B2B607F4B2B6000236B602B7273
S31508006F10EB602B616B61AB61EB612B6285F824300A
S31508006F206B48CCF035F9704A77492846CCF01DF9FC
S31508006F3091E76848CCF020F9002892D06948734B4D
S31508006F40036003238380C38000258560704B03603C
S31508006F50C56014230093022300F1280200F12C01D6
S31508006F60103046F02BF82B46002B01DB013BFBE7E4
S31508006F70684A142300930223111DA2F1180046F053
S31508006F801DF80023002B01DB013BFBE7624A28239F
S31508006F9000930223111DA2F1180046F00FF80023F2
S31508006FA0002B01DB013BFBE75C4A14230093022319
S31508006FB0111DA2F1180046F001F80023002B01DB91
S31508006FC0013BFBE7564A482300930223111DA2F111
S31508006FD0180045F0F3FF0023002B01DB013BFBE71C
S31508006FE0504A2C2300930223111DA2F1180045F0E4
S31508006FF0E5FF0023002B01DB013BFBE73548CCF01E
S31508007000C7F8394A48493748CCF0AFF829E7324833
S31508007010CCF0B2F800283FF42BAF444D444B2B601C
S31508007020444B2B602C48CCF0B3F82F4A42492846EB
S31508007030CCF09BF81CE72948CCF09EF800283FF4D2
S315080070401EAF3E4D3E4B2B603E4B2B603E4B2B609E
S315080070502248CCF09DF8244A3C492846CCF085F8CD
S315080070600DE71F48CCF088F800283FF40FAF1C48FE
S31508007070CCF08EF81C4A36493648CCF076F805E747
S315080070801B4B354A5A60236104E722691A4B5B6831
S3150800709033B1032000287FF410AF174B2363FDE6B6
S315080070A0154B0020187258745A60D8601874F1E7A6
S315080070B02569124B5B68002B50D0032000287FF40B
S315080070C0FCAE0E4B6363EDE6EC6E0020E86E002026
S315080070D0BC6E0020506C0020486C00203C6C0020E0
S315080070E0386C0020546C002000000020E96B000872
S315080070F01C000020B16D000808000020C06E0020AA
S315080071002C5C0D08787C0E08B17100087C5B0D08B4
S3150800711068790E08C06C0020046D0020706D002090
S31508007120B46D0020606E0020656D00084C6C002070
S31508007130F85B0D08045D0D08D56B0008406C00204F
S31508007140A05C0D081C870E08D0870E08FD6B00088A
S31508007150196C000804000020F84501200F4E33681A
S315080071609B6A3046984775600020A7E70C4BE36199
S31508007170236983B10B4A5360002000287FF49DAE33
S31508007180084B63614DF086F92062074B6362074B33
S31508007190A361002091E62F20EFE700BFC06E002014
S315080071A0546C0020406C0020040000204C6C002029
S315080071B010B50446124B0360436823B1104B9B6A13
S315080071C098470023636000222262E06918B175F0CF
S315080071D0EFF90023E3610022A261606918B175F036
S315080071E0E7F90023636100222261E06818B175F0AF
S315080071F0DFF90023E360034B2360204610BD00BF80
S31508007200787C0E082C5C0D0810B5134B0360D0F87B
S31508007210F431ABB90446D0F848319BB9D0F80431FB
S3150800722093B9D0F898308BB9436D8BB903698BB98C
S315080072300A4B03604FF41A71CBF09CFF204610BD31
S31508007240CCF092FECCF090FECCF08EFECCF08CFE0C
S31508007250CCF08AFECCF088FE68790E087C5B0D08B7
S3150800726010B50446144B0360436823B1124B9B6A5E
S3150800727098470023636000222262E06918B175F01E
S3150800728097F90023E3610022A261606918B175F0DD
S315080072908FF90023636100222261E06818B175F056
S315080072A087F90023E360054B236028212046CBF0AD
S315080072B061FF204610BD00BF787C0E082C5C0D08C7
S315080072C038B504460E4B036043688BB1437C4BB913
S315080072D0C5683DB135B12B681B68284698472846CE
S315080072E075F066F90023E3606374237423726360A0
S315080072F0044B236014212046CBF03CFF204638BDC2
S3150800730030050E08685C0D0808B50A4876F04CFE8C
S3150800731009487CF01AF900B108BD012106487BF03E
S3150800732037FA0028F8D1054876F03EFE04487BF087
S315080073300BF8F1E7C05A0D0898930120E05A0D089A
S315080073403CA4012030B585B00446414941480BF0BC
S315080073503DF8414D284676F027FE21463F4876F00F
S3150800736023FE284676F020FE31F018FC034600B1CD
S315080073700433184648F09CF831F010FC47F09CFF9F
S31508007380374876F011FE0021084645F099FD08B108
S3150800739005B030BD334B1B78002B41D000200028A8
S315080073A0F6D1214630487AF095FCFFF7ADFF002864
S315080073B0EED12E4877F0D0F82D4BD3E88F3F13F057
S315080073C0010F36D02B4C20467AF07CF82A4D2C63D8
S315080073D02846FFF72BFD0024019402940394274BBB
S315080073E00193274B029327487BF024F8039001ABBF
S315080073F0AB622946244892F04DF91C4D284677F091
S31508007400BCF822462149284676F0C6FF204876F081
S31508007410CBFD284677F06CF90028B9D10020B7E7EC
S31508007420104D284677F0BCF9B0FA80F35B092B704B
S31508007430B5E70F48CBF0A0FE0028C3D00C48CBF028
S31508007440A7FE144A14490C48CBF08FFEBAE700BFD2
S315080074501DCF040815CF0408FC5A0D08305B0D082B
S315080074603C5B0D08004601208C930120084601204C
S31508007470F06E0020F46E0020240000202D6C000819
S315080074803D6C000898930120E8C70120556C000858
S315080074904C5B0D0800000020C16B000808B576F0AB
S315080074A081FA08BDB0F5803F2CBF00200120704747
S315080074B04068E0B170B584B01D4600238DF80F30E2
S315080074C0BAB100230293019302AB00932B8876F09E
S315080074D0B7FC0446192800D030B9029E3046FFF79B
S315080074E0E1FF68B900262E80204604B070BD03204F
S315080074F070472B880BB12F20F7E70DF10F02E0E755
S31508007500B6B2F0E710B50446054B0360054B0360B9
S31508007510054B03600821CBF02DFE204610BD00BFA9
S31508007520D0870E081C870E08A05C0D0810B5044607
S31508007530044B0360044B03600421CBF01BFE20467A
S3150800754010BD00BFF88A0E08C05C0D0808B54FF6D6
S31508007550FF710120FFF7A4FB08BD0000024A026084
S31508007560024A0260704700BFC45E0D08B05E0D088F
S3150800757038B50C4600280CBF012500250CD1074953
S31508007580074876F011FD2946064800F079FC14B93B
S31508007590054B01225A7138BD0449F1E7285D0D08EB
S315080075A02C5D0D08306F0020486F0020245D0D0803
S315080075B008B5034A02211D2045F0F8FD08BD00BFA5
S315080075C0405D0D0808B5034A02211D2045F0EEFD71
S315080075D008BD00BF505D0D0808B5044A02211D20EC
S315080075E045F0E4FD024BFF221A7008BD605D0D08E8
S315080075F05C00002010B5002214460388022B04D034
S3150800760033B140F203746CB110BD02798168FAE7B0
S31508007610094800F010FA10B100210122F3E7002111
S315080076200A46F0E7044800F0BBFA0028ECD1034804
S3150800763076F0BAFCE8E700BF606F00207C5D0D08B5
S3150800764001B300B585B00846002300930193029361
S3150800765003938DF804200C4B994205D00B4B9842A6
S315080076600AD005B05DF804FB012AF7D1084B03934D
S315080076706846FEF7FFFFF4E7064B03936846FEF7F6
S31508007680F9FFEEE7704700BF047E0D08EC7D0D0894
S31508007690F57500089D65000808B528B1012807D0CA
S315080076A00A4B5B7943B908BD094876F07DFCF7E7D4
S315080076B0084876F079FCF3E700220749074876F090
S315080076C07FFF024B00225A71EDE700BF486F00208A
S315080076D0A85D0D08B45D0D08E1760008084601208E
S315080076E010B5094800F0A7F9044626F0DFFF002385
S315080076F02246012127F08EF800B910BD014603483D
S3150800770076F052FCF9E700BF606F0020C05D0D08F7
S3150800771010B50446044B0360044B03600821CBF004
S3150800772029FD204610BD00BFC45E0D08B05E0D08D9
S31508007730012800D070474FF6FF739942FAD130B549
S3150800774085B00F4D0023039302930E4B019302233A
S3150800775000930D4B0D4A0121284624F099F80C4C4C
S3150800776022460C492846CBF000FD0B480B4B03601C
S315080077700B4B036022460B49CBF0F7FC05B030BD36
S31508007780106F0020A9770008C5750008B1750008B4
S3150800779000000020CDB80208486F0020B05E0D0832
S315080077A0C45E0D085D75000870B50446037D224A5F
S315080077B013700B2B10D0204B1B78FE2B23D015D81B
S315080077C0022B32D847F0F0FE03685D6923461B4A50
S315080077D041F28831A84770BD837D194A02211D20D0
S315080077E045F0E4FCA27D144B1A70E4E7FF2B1CD18C
S315080077F047F0DAFE03689B692246104998470E4B04
S31508007800FF221A70E7E747F0CFFE03689B690B4D26
S3150800781022462946984747F0C7FE03685E6923460D
S315080078202A464FF47A71B047D5E7064A02211D2049
S3150800783045F0BCFCCFE700BF5C000020D975000806
S31508007840D85D0D082C5E0D0870B51649FEF732FD99
S31508007850C0B9154800F0B2F80446D8B9124E134A12
S315080078601349304600F0E4F8124D1349284600F053
S315080078701BFB304600F0DFF80146284600F000FB07
S31508007880204670BD04460D4876F08EFB2046FEF76E
S3150800789049FFDEE70A4876F087FB2046FEF742FFF7
S315080078A0DCE700BF106F0020606F002099760008A3
S315080078B071750008306F0020E47E0D08445E0D08DF
S315080078C0645E0D0830B585B004681148FFF7BCFF43
S315080078D0A8B9FEF7B1FE0F4876F066FB0A2269469C
S315080078E0204610F0DFFB0128F8D169460848FEF764
S315080078F003FF00226946204610F0D4FBF3E705464D
S31508007900054876F051FB2846FEF70CFFE1E700BF75
S31508007910486F0020945E0D087C5E0D0808B5024984
S31508007920FEF784FC08BD00BFC578000808B54FF609
S31508007930FF710120FFF7FCFE08BD000000B585B009
S3150800794012F064F90123ADF800300190037D3BB1D4
S31508007950074B03936846FEF78DFE05B05DF804FBFA
S31508007960437D13B1034B0393F4E7034B0393F1E70A
S31508007970157C0008397C0008D17A0008012800D057
S3150800798070474FF6FF739942FAD110B582B0074C8B
S3150800799000230093064A0121204627F0D1F9054A1B
S315080079A005492046CBF0E1FB02B010BD506F002020
S315080079B01D7B00080000002065ED020830B585B083
S315080079C00446164B0093034600220121144811F081
S315080079D057FF144B1860C8B1134D284676F0BCFD06
S315080079E026F064FE0DF10F02012126F075FE2846E9
S315080079F076F0C3FD9DF80F3073B10323A370002002
S31508007A00207520732061607505B030BD074876F093
S31508007A10CBFA40F20470F7E70123EFE73D79000857
S31508007A20D05E0D08786F002008460120DC5E0D0840
S31508007A304160826070478078032814BF00200120C7
S31508007A407047000000B583B0002200921346032158
S31508007A500748006811F030FF10B103B05DF804FB69
S31508007A60044876F0A1FA40F20670FEF75BFEF4E7EA
S31508007A70786F0020FC5E0D0830B583B005460C46CD
S31508007A80104B186812F0A6F860B964230093002317
S31508007A90224604210B48006811F00EFF012808D180
S31508007AA003B030BD084876F07FFA2846FFF7CAFFCC
S31508007AB0EBE7064876F078FA40F20570FEF732FEF4
S31508007AC0EEE700BF786F002008580D08185F0D080C
S31508007AD038B54468A378C3B90120A0700546A368E1
S31508007AE00BB128469847237B8BB185B923694FF498
S31508007AF07A7103FB01F12046FFF7BEFF01232375C8
S31508007B002169054876F050FA01E0022B00D038BD0D
S31508007B100323A3700025E2E73C5F0D0808B5037A46
S31508007B20427AF3B92AB1012A0BD0022A11D00021D0
S31508007B301AE0164A02211D2045F038FB4FF4487119
S31508007B4012E0134A02211D2045F030FB4FF448711C
S31508007B500AE0104A02211D2045F028FB4FF448513F
S31508007B6002E0012B06D000210B4801234375FFF7DD
S31508007B7083FF08BD0AB10021F6E7084A02211D2045
S31508007B8045F014FB40F2DC51EEE700BF745F0D08C8
S31508007B90C05F0D08F85F0D08606F00206C600D0867
S31508007BA0F8B504460E4615468378012B01D0427D6A
S31508007BB002B15DB1032B01D00020F8BD012D01D023
S31508007BC00020FAE7637D03BB002700E00227237D38
S31508007BD003B177B1637D03B18FB90A212046FFF758
S31508007BE04BFFA770636893B1314628469847012032
S31508007BF0E3E7002323752046FFF724FFEAE720463C
S31508007C00FFF720FF00236375E7E70020D5E701208B
S31508007C10D3E7000010B54468237D03B910BD0023DF
S31508007C202375044876F0C0F9012211462046FFF76D
S31508007C30B7FFF3E7D8600D0810B54468637D03B94C
S31508007C4010BD00236375044876F0AEF9012211468B
S31508007C502046FFF7A5FFF3E7FC600D0808B54FF6C9
S31508007C60FF710120FFF78AFE08BD00002DE9F041EB
S31508007C7084B00E4690461D4644688768A3B20093B2
S31508007C80230C2B4A02211D2045F090FA062C0BD016
S31508007C90082C14D0B4F5407F1FD0072C2BD0032C0A
S31508007CA037D004B0BDE8F081002FF1D12A78B2FAB6
S31508007CB082F2520902211F48FFF772FFF1E72B787B
S31508007CC0CDF80C8002930196BBB200933B0C1A4A7E
S31508007CD002211D2045F06AFAE3E72B78CDF80C80DF
S31508007CE002930196BBB200933B0C144A02211D2055
S31508007CF045F05CFAD5E72B78CDF80C80029301960F
S31508007D00BBB200933B0C0E4A02211D2045F04EFAE9
S31508007D10C7E72B78CDF80C8002930196BBB2009387
S31508007D203B0C084A02211D2045F040FAB9E700BF7E
S31508007D3010610D08606F002030610D0878610D082C
S31508007D40C0610D0814620D0870470000024A0260FF
S31508007D50024A0260704700BF30DF0D08C0620D0896
S31508007D60012800D0704708B54FF6FF73994200D036
S31508007D7008BD034A03490448CBF0F7F9F8E700BF02
S31508007D80000000204D7D00086000002010B5044664
S31508007D90044B0360044B03600821CBF0EBF9204643
S31508007DA010BD00BF30DF0D08C0620D0810B5FEF724
S31508007DB0DAFE1B48FFF7C6FA50BB1A4C1A4BD3F823
S31508007DC08411204647F058FB204647F061FB174CC4
S31508007DD0204676F0C1FB8CF0B5FE84F0A5FB204664
S31508007DE076F0CBFB124876F0DFF81248FFF796FDDF
S31508007DF090B9114876F0D8F805F090F845F074F87F
S31508007E000E4876F0D1F8AC20FEF78CFC002010BDA9
S31508007E10AC20FEF787FCD0E7AC20FEF783FCE8E74A
S31508007E2058620D0860000020E8F701200846012086
S31508007E3068620D08486F00207C620D0898620D087C
S31508007E4070B50446044D2B689E6801F098FA024600
S31508007E5021462846B04770BD486F002008B54FF642
S31508007E60FF710120FFF77CFF08BD08B512F028F85E
S31508007E7008BD006918B108B511F0B3FF08BD704711
S31508007E8008B50023C360836000220023C0E90023ED
S31508007E90006910B111B111F09AFF08BD11F09CFFED
S31508007EA0FBE700000000000008B59FED077B80EDAA
S31508007EB0007B00228260C26001611146FFF7E0FF85
S31508007EC008BD00BFAFF300800000000000000000FE
S31508007ED0836823B370B582B00446C368ABB1104B50
S31508007EE019680B68DB6868469847009E019D2069FB
S31508007EF011F07CFF58B1A168236862685B1842F1EB
S31508007F000002B34272EB050303D302B070BDE16809
S31508007F10F2E72046FFF7ADFF26606560F5E7704794
S31508007F20E402002008B58160C260FFF7D1FF08BDF2
S31508007F3008B50A46FFF7F6FF08BD38B141B101603A
S31508007F40028100228280C28001207047002070478B
S31508007F5000207047C28892B283889BB29A4216D094
S31508007F60C28892B283889BB29A4209D203898288D0
S31508007F7092B29B1AC08880B210FA83F080B270471A
S31508007F80C3889BB2808880B2181A80B270470020D6
S31508007F90704710B50489FFF7DDFF201A80B210BDBF
S31508007FA0F8B548B30F461546044659B303899342B4
S31508007FB02ED3FFF7EEFFA8421DD32689E3889BB28E
S31508007FC0F61AB6B2B54229D92368E0883246394648
S31508007FD013FA80F0CCF0EBF9AA1BB9192068CCF09B
S31508007FE0E6F9E28815FA82F5228995FBF2F302FB97
S31508007FF01355ADB2E580F8BD0D4B0E4A96210E48D5
S31508008000CBF0BAFF0D4B0B4A97210B48CBF0B4FFC8
S315080080100B4B084A98210848CBF0AEFF2368E08846
S315080080202A46394613FA80F0CCF0C1F9D9E700BFE1
S31508008030E8620D08F0620D0820630D089C630D08C0
S31508008040AC630D0870B516461D46DCB20E4B1A78A1
S31508008050A41AE4B20D48FFF79CFFA2B2904209D2D7
S315080080600B4B2A4631460B48006812F013FB7BF08F
S3150800807079FA70BD044C218831440448FFF790FF13
S3150800808000232380ECE700BF887100207C6F002066
S315080080904580000878010020F8B550B30F4615460C
S315080080A0044661B3038993422FD3FFF753FFA842CF
S315080080B031D92689A3889BB2F61AB6B2B5422FD90A
S315080080C02368A188324613FA81F13846CCF06FF955
S315080080D0AA1B2168B819CCF06AF9A38815FA83F3A4
S315080080E0228993FBF2F102FB11339BB2A380E8B21B
S315080080F0F8BD104B104AB5211048CBF03DFF104B88
S315080081000D4AB6210D48CBF037FF0E4B0A4AB72168
S315080081100A48CBF031FF2046FFF71CFF0546C8E7A3
S315080081202368A1882A4613FA81F13846CCF03FF92C
S31508008130D3E700BFE8620D08CC630D0820630D087D
S3150800814004640D080C640D0838B500F0DCFC4FF427
S31508008150807211491148FFF7F0FE114D114C2B465C
S3150800816080221149206812F095FA2B4680220F4981
S31508008170206812F08FFA0E4B4FF40052C3F8802194
S315080081801A600C4882180423D36400F580521365DC
S31508008190052112F001FB38BD887000207C6F002095
S315080081A04580000878010020886F002008700020AC
S315080081B000E100E000000A5008B57BF0D3F9024B55
S315080081C00422DA6408BD00BF00200A5058B110B571
S315080081D00C46014654B12246074B186812F0FAF9C4
S315080081E038B920B210BD4FF0FF3070474FF0FF305E
S315080081F0F8E74FF0FF30F5E778010020002830D087
S3150800820070B584B00C46054600292DD01848FFF7EE
S31508008210A1FEA04207D3224629461548FFF73CFF90
S3150800822000B204B070BD03F0BEF9064601AB02AA5F
S3150800823003A91048006812F09CF90F4B1B88029A94
S31508008240934203D3304603F0B4F9E4E7D21A92B264
S31508008250039919440648FFF7A3FE074B029A1A80AA
S31508008260F0E74FF0FF3070474FF0FF30D9E700BF17
S315080082707C6F0020780100208871002070B50446C4
S315080082800A694B6952EA03001ED08868C96810EB70
S31508008290000C41EB010E1CEB000C41EB0E0E4FEAF5
S315080082A04E1545EADC654FEA4C161CEB060C4EEB00
S315080082B0050E1CEB000041EB0E01CBF0C5FC0123BB
S315080082C023706070204670BD002323706370F9E741
S315080082D0D0E9020170472D2070472D2070470120F4
S315080082E07047012070470000024A0260024A026095
S315080082F0704700BF580B0E0820650D0870474FF4ED
S31508008300806070470023836070470023436070478E
S31508008310044A026020324260034A4260034A02600D
S31508008320704700BF50660D083C650D08F4640D08DB
S315080083300346064A40F8042C203240F80429044A29
S315080083404260044A43F8042C704700BF50660D0883
S315080083503C650D08F4640D08024A0260024A026090
S31508008360704700BF78CC0D0808660D08024A0260FF
S31508008370024A0260704700BFD8CB0D085C650D083D
S3150800838010B50446064B036020334360054B436033
S31508008390054B03601021CAF0EDFE204610BD00BF54
S315080083A050660D083C650D08F4640D0810B50446C2
S315080083B0084B40F8043C203344F80439064B636004
S315080083C0064B40F8043C10212046CAF0D3FE20464E
S315080083D010BD00BF50660D083C650D08F4640D0815
S315080083E010B50446054B0360006B18B174F0E0F84D
S315080083F000232363024B2360204610BD04450E0864
S3150800840098640D0810B50446054B0360406B08B127
S3150800841047F0DAFA00236363024B2360204610BD57
S315080084207CC10D08CC640D0810B50446174B0360D3
S315080084306433436000F51C7048F0E2FA14F5EC72F8
S3150800844005D004F5147300E0183B9A42FCD1104B92
S31508008450E3672033C4F880300E4BC4F880300E4BE7
S31508008460E36704F13800A36D13B10022A2659847AB
S3150800847004F10800A36A13B10022A2629847074BC9
S315080084806360074B2360204610BD00BFBCC80D08BB
S3150800849050660D083C650D08F4640D0808650D085E
S315080084A0AC650D0838B505460446194B40F8043C3A
S315080084B0643344F8043900F51B7048F0A1FA15F541
S315080084C0EA7205D004F5147300E0183B9A42FCD111
S315080084D0104BE3672033C4F880300F4BC4F8803064
S315080084E00E4BE36704F13800A36D13B10022A265B1
S315080084F0984704F10800A36A13B10022A2629847BC
S31508008500074B6360074B45F8043C204638BD00BF5F
S31508008510BCC80D0850660D083C650D08F4640D08C6
S3150800852008650D08AC650D080E4BD3E88F3F13F0B0
S31508008530010F01D00C48704710B50A48CAF01CFE56
S3150800854008B9094810BD084C084B2360084B23603E
S315080085500448CAF01DFE074A07492046CAF005FE28
S31508008560EFE700BF8C7100209071002020650D0890
S31508008570580B0E0800000020E982000810B50446D2
S31508008580054A01210C2044F011FEE06810B1036889
S315080085909B68984710BD00BF28640D0810B50446AF
S315080085A0054A01210C2044F001FEA06810B10368B9
S315080085B09B68984710BD00BF28640D0830B583B086
S315080085C0C068D8B10D4614461A68019200221A608E
S315080085D001AA214629F004FD019808B147F0F4F9EB
S315080085E0002301930C4B1B680093A3886BB12B895E
S315080085F043F040032B81002003B030BD074A012118
S315080086000C2044F0D3FD0020F6E7E388002BEED1DA
S315080086102378402BEBD1EEE788660D083C640D08FD
S3150800862030B583B08068D8B10D4614461A680092F2
S3150800863000221A606A46214629F0D2FC009808B141
S3150800864047F0C2F9002300930C4B1B680193A388DB
S315080086506BB12B8943F040032B81002003B030BD5A
S31508008660074A01210C2044F0A1FD0020F6E7E38823
S31508008670002BEED12378402BEBD1EEE788660D0868
S315080086803C640D08F0B587B006460C46224A03211D
S31508008690152044F08BFDB568002D2DD00023ADF8CC
S315080086A010301E4B1B68039323893BB31C4A126880
S315080086B0039253B30123ADF81030277B606847F067
S315080086C0D9F86368059304AB009305AB3A46A168ED
S315080086D0284645F007F90446059808B147F074F9A5
S315080086E0002305932CB1B06818B144F027FF002386
S315080086F0B360204607B0F0BD0320FBE76289022A73
S31508008700D4D1227B142AD1D1D7E76389002BD1D1C2
S31508008710237B402BCED1D0E770640D088C660D08FC
S3150800872088660D08012800D070474FF6FF739942F6
S31508008730FAD170B58AB04C4B4C4A1A604C4A5A600A
S315080087404C4A1A6064325A6003F10802DA609A6089
S3150800875000229A62DB6248491963CDF804D0CDF845
S3150800876000D0089203F13801D96399639A65DB65ED
S31508008770424919669A66DA661A6783F874209A6710
S315080087803F49D9673F49C3F880103F49D967203127
S31508008790C3F8801083F8AC20C3F8B820C3F8BC200F
S315080087A0C3F8C020C3F8C420C3F8C821C3F8CC2135
S315080087B083F8D021C3F8D421042203F5EC7303E02F
S315080087C0002103F8181B013A002AF9DA2648002482
S315080087D0C0F850420523C0F8543280F85842C0F811
S315080087E07442C0F87842294BC0F8703280F87C424F
S315080087F0274E32462749CAF0B8FC3246264927484A
S31508008800CAF0B3FC324626492648CAF0AEFC264DC5
S31508008810264B2B606C602C722846254B40F8103B83
S3150800882092F0D6F8C5F8D040C5F8D440C5F8D84077
S31508008830C5F8DC4032461F492846CAF096FC1E4851
S315080088401E4B036000220023C0E90223C0E904236B
S315080088501B4B03608461C46104634463324619494F
S31508008860CAF083FC0AB070BDB0720020AC650D0872
S3150800887008650D08BCC80D08E945030861300308FA
S31508008880F4640D083C650D0850660D0890170E082F
S315080088900000002029840008598300086800002089
S315080088A06D8300087000002098710020CC640D08C4
S315080088B07CC10D08058400087872002098640D08AC
S315080088C004450E08E183000810B50446044B03600E
S315080088D0044B03600421CAF04DFC204610BD00BFBE
S315080088E0580B0E0820650D08F0B583B00F4F3846B3
S315080088F02AF0FEF90E4901F54053D3F884310D4AA2
S3150800890053600D4E0D4D0095334638462AF0FCFE51
S315080089100B4B33610B4C2246394630462CF024FA71
S31508008920094B636325626C6003B0F0BDB07200202A
S31508008930E8C7012068000020700000209871002018
S31508008940805101007872002084640D0810B5044631
S31508008950194B03606433436000F51C7048F050F807
S3150800896014F5EC7205D004F5147300E0183B9A422E
S31508008970FCD1124BE3672033C4F88030104BC4F89F
S315080089808030104BE36704F13800A36D13B1002261
S31508008990A265984704F10800A36A13B10022A262EF
S315080089A09847094B6360094B23604FF422712046B0
S315080089B0CAF0E0FB204610BDBCC80D0850660D087D
S315080089C03C650D08F4640D0808650D08AC650D08CE
S315080089D038B5054604461B4B40F8043C643344F856
S315080089E0043900F51B7048F00BF815F5EA7205D046
S315080089F004F5147300E0183B9A42FCD1124BE36766
S31508008A002033C4F88030114BC4F88030104BE3672C
S31508008A1004F13800A36D13B10022A265984704F14A
S31508008A200800A36A13B10022A2629847094B636043
S31508008A30094B45F8043C4FF422712046CAF09AFBCC
S31508008A40204638BDBCC80D0850660D083C650D08A3
S31508008A50F4640D0808650D08AC650D0810B50446E4
S31508008A60044B0360044B03600821CAF083FB2046CD
S31508008A7010BD00BF78CC0D0808660D0810B5044671
S31508008A80044B0360044B03601C21CAF073FB2046A9
S31508008A9010BD00BFD8CB0D085C650D0810B504469F
S31508008AA0074B0360406B08B146F08EFF00236363F3
S31508008AB0044B2360E0212046CAF05CFB204610BD2B
S31508008AC07CC10D08CC640D0810B50446074B03603D
S31508008AD0006B18B173F06CFD00232363044B23600D
S31508008AE038212046CAF046FB204610BD04450E082C
S31508008AF098640D0808B54FF6FF710120FFF712FEBE
S31508008B0008BD0F2070470E20704708B501213A208E
S31508008B1001F060FB11F0A4F808BD08B501213A2060
S31508008B2001F058FB08BD0000BFF34F8F0549CA681E
S31508008B3002F4E062044B1343CB60BFF34F8F00BFD0
S31508008B40FDE700BF00ED00E00400FA050D4B1B68C9
S31508008B50B3F1FF3F06D04FF4801202FA03F30A4A34
S31508008B6013667047094B1B785BB9094B4FF40072C3
S31508008B705A6603F5A6235B681BB9034B4FF48012AC
S31508008B801A667047DC000020009000445D750020DE
S31508008B9000900050084B1B68B3F1FF3F0AD1074B02
S31508008BA01B783BB9064B5B6813F0010F02D0024BEA
S31508008BB000221A60704700BFDC0000205D750020A7
S31508008BC000C005504FF000639B6A03F17842B2F586
S31508008BD0C04F07D21A680B4B9A4207D0002303707E
S31508008BE08360704700230370836070470123037016
S31508008BF04FF000639A6A926842609B6A9B69836039
S31508008C00704700BF07B0CD5E08B54FF0005340F27D
S31508008C1002221A804FF20F025A80FFF785FF4FF0A3
S31508008C2000639B6A03F17843B3F5C04F19D230B598
S31508008C3085B005460C4601238DF8043000230293BF
S31508008C40039301A8FFF7BEFF039B13F4806F06D0BA
S31508008C504FF000639B6A1B6C21462846984705B06F
S31508008C6030BD7047494B1B78002B66D110B582B0D2
S31508008C70044600230193009300285CD0434B01224D
S31508008C801A7002F090FC424B1860C5F04DFC414B3F
S31508008C901B78002B55D0404B5A6E22619A6E626142
S31508008CA003F580524FF4804393663C4B5968A161A3
S31508008CB03B499960196E2160596E6160196CA16013
S31508008CC0596CE1603749086C1864496C596401218C
S31508008CD051661B6E13F4005F44D0334BDB6813F008
S31508008CE0010FFAD1FFF732FF304B04221A664FF410
S31508008CF000721A6600F064FAB0F1FF3F38D12B4CC7
S31508008D00082323664FF4805323664FF000632366D7
S31508008D104FF400236366694601A8FFF780FF019BAD
S31508008D202366009B63661B4B1B7823B1204A116898
S31508008D3021665268626602B010BD144B02221A7090
S31508008D40704700F039FE0028A5D10823184A1949AA
S31508008D5019480068C9F058FD00289CD10D4B01221E
S31508008D601A7098E7154BDB6813F0010FFAD1B9E7CB
S31508008D7000F026FA40F201139842C0D00B4B4FF48C
S31508008D8000521A664FF480421A66B8E75E750020EC
S31508008D90607500205C75002000800050008000444B
S31508008DA055CEAC0000C000540000044000900044BA
S31508008DB05475002000710800E000002000000450EF
S31508008DC01F4B1B78012B03D01D4B01221A707047CD
S31508008DD010B5044620B300F0F3F9B0F1FF3F20D1F7
S31508008DE02268184B1A6662685A66A2681A64E268AC
S31508008DF05A64A36913F0010F02D0124B00229A603D
S31508008E00FFF7C8FE2269104B5A6662699A66C5F072
S31508008E10A7FB0E4B186802F0CCFB094B00221A7010
S31508008E2010BD00F0CDF940F201139842D8D0084B96
S31508008E3001225A66074BDB6813F0010FFAD1CFE718
S31508008E405E75002000800044008000506075002098
S31508008E50009000400000044038B54FF000639B6A5C
S31508008E6003F17843B3F5C04F26D2154B1B781BB1D7
S31508008E70022B01D0002421E0124D2846FFF7F2FE0E
S31508008E8011490120C1F88001104B03F500544FF435
S31508008E908032E260086003F580531A614FF0006380
S31508008EA09B6ADB69984704462846FFF789FF2CB971
S31508008EB0034B01221A7001E04FF48174204638BD35
S31508008EC05D7500203875002000E100E00080004450
S31508008ED02C4B1B7803B9FEE700B583B0002300933B
S31508008EE0019308236A46284928480068C9F08CFC7B
S31508008EF048BB274BD3F840311F2B1AD9244BD3F83C
S31508008F004021203A012303FA02F2019B13430193FD
S31508008F1008236A461C491D480068C9F02BFC4FF017
S31508008F20005340F20B221A804FF20F025A80FFF7C5
S31508008F30FBFD174BD3F84021012303FA02F2009BED
S31508008F4013430093E4E7134A9042E8D1104BD3F851
S31508008F5040311F2B0ED90E4BD3F84021203A01235E
S31508008F609340019308236A46074908480068C9F0F0
S31508008F7001FCD4E7064BD3F8402101239340009324
S31508008F80F0E700BF5E75002000710800E0000020D1
S31508008F90008000440BE000F038B54FF000639B6A90
S31508008FA003F17842B2F5C04F14D204461B6B03F1A5
S31508008FB07843B3F5C04F0DD2074D2846FFF752FE4A
S31508008FC04FF000639B6A1B6B5B68204698472846F0
S31508008FD0FFF7F6FE38BD00BF6475002008B54FF0F0
S31508008FE000639B6A03F17842B2F5C04F08D21B6B47
S31508008FF003F17842B2F5C04F05D29B68984701E065
S315080090004FF4817008BD4FF48170FBE730B583B02B
S3150800901001904FF000639B6A03F17842B2F5C04FA6
S3150800902016D21B6B03F17843B3F5C04F15D20C4D1E
S315080090302846FFF717FE4FF000639B6A1B6B9B6978
S31508009040012101A8984704462846FFF7B9FE01E022
S315080090504FF48174204603B030BD4FF48174F9E7AC
S31508009060647500202DE9F0414FF000639B6A03F117
S315080090707844B4F5C04F17D207460E4615461B6B03
S31508009080BBB1DFF834804046FFF7ECFD4FF00063D4
S315080090909B6A1B6B5B6A2A463146384698470446E4
S315080090A04046FFF78DFE01E04FF401742046BDE807
S315080090B0F0814FF40174F9E76475002070B54FF03C
S315080090C000639B6A03F17842B2F5C04F18D2054691
S315080090D00C461B6B03F17843B3F5C04F14D20C4E04
S315080090E03046FFF7BFFD4FF000639B6A1B6B9B6A18
S315080090F021462846984704463046FFF761FE01E0B8
S315080091004FF40174204670BD4FF40174FAE700BFAE
S315080091106475002030B5ADF50F7D4FF000639B6A8E
S3150800912003F17843B3F5C04F15D20C464FF40E72CF
S315080091306946FFF797FF054678B921466846FFF75F
S31508009140BDFF40F201239842F7D040F2032398422C
S3150800915003D0054601E04FF4017528460DF50F7D4D
S3150800916030BD0000F8B50D464FF000639B6A03F169
S315080091707841B1F5C04F19D2044616461B6B03F168
S315080091807843B3F5C04F15D20C4F3846FFF76AFD42
S315080091904FF000639B6A1B6B9B6B32462946204641
S315080091A0984704463846FFF70BFE01E040F20114E3
S315080091B02046F8BD40F20114FAE700BF64750020A6
S315080091C04FF000639B6A03F17842B2F5C04F29D28B
S315080091D01B6B03F17843B3F5C04F26D200B585B0B3
S315080091E001238DF8043000230293039301A8FFF7A7
S315080091F0E9FC039B13F4803F1AD0029BC3F3074292
S315080092001B0E18D0012B08D04FF000639B6A1B6B0E
S315080092101B6C984705B05DF804FB0A2AF4D840F29F
S315080092200110F7E740F20110704740F2011070474D
S3150800923040F20110EEE740F20110EBE770B54FF08F
S3150800924000639B6A03F17842B2F5C04F18D205460F
S315080092500C461B6B03F17843B3F5C04F14D20C4E82
S315080092603046FFF7FFFC4FF000639B6A1B6BDB6B16
S3150800927021462846984704463046FFF7A1FD01E0F7
S3150800928040F20114204670BD40F20114FAE700BF0F
S31508009290647500202DE9F04190B017461D464FF041
S315080092A000639B6A03F17842B2F5C04F4ED2064678
S315080092B00C461B6B03F17843B3F5C04F4BD201A89C
S315080092C0FFF76AFE059BD3F80C801FFA88F3002B7C
S315080092D044D00EA93046FFF781FEC8BB0E9E63191F
S315080092E00F9A93423DD81FFA88F8B4FBF8F208FBA8
S315080092F01242F2B1C8F1000C0CEA04004044B3FB78
S31508009300F8F108FB113179B103EA0C018844A8EB9E
S315080093100001304411B1FFF791FFC8B92A46394612
S315080093203019FFF71FFF13E0A2EB080808EB050149
S31508009330EFE73019B5FBF8F308FB135323B1C8F16F
S31508009340000129404144E5E72946E3E74FF48170E7
S3150800935010B0BDE8F0814FF48170F9E740F20140A2
S31508009360F6E740F20240F3E703680B6001607047D6
S3150800937008B543680BB1984708BD2220FCE708B535
S3150800938043690BB1984708BDFF20FCE70A681378C4
S31508009390022B00D1704710B508461379517903EBB3
S315080093A043031B011433064C1B59CB4013F0010F22
S315080093B00CBF012300231370FEF742FD10BD00BF4A
S315080093C030C0035030B583B00546046801213A2001
S315080093D000F000FF002301226179207902F028FBC2
S315080093E02379627903EB43031B0114330F495B5856
S315080093F0D34013F0010F0CBF012300232370A37978
S31508009400022B02D0002003B030BD00F057FA2A46DE
S315080094100749607900F07AFA0246617920790123D2
S315080094200193009302F070FAECE700BF30C00350D6
S315080094308D9300080368187870470000026813784F
S31508009440022B12D01379517903EB43031B01143312
S3150800945012481B58CB4003F00100034691790129B5
S3150800946004D011B980F00100107070475188490086
S3150800947089B20B4343F47F4343F0C0034FF6E071D0
S315080094808B4205D04FF6DF718B4204D0538070476C
S3150800949001211170F6E700211170F7E730C003507B
S315080094A008B503681A78022A00D008BD00225A8037
S315080094B0FFF788FFF9E710B582B004682378022B16
S315080094C004D0A379022B03D00223237002B010BD67
S315080094D00021607900F00AFA617920790023019366
S315080094E000930A4602F010FAEEE70000F0B585B0E0
S315080094F00C4694469DF83410664A1278002A00F005
S31508009500BD800546BCF1070F00F2BA800A9A002A08
S3150800951000F0B8800B9A002A00F0B6800E9AB2F5D1
S31508009520006F00F3B38001285BD05B4A02EB0C1294
S31508009530127B002A00F0AC8000220092019202926F
S315080095400392564A02EB4C1E002C4FD14FEA4C169A
S3150800955000209051CEF80400CEF80800CEF80C0092
S315080095609EF8020040F010008EF802009EF80300F4
S3150800957040F030008EF8030021B9C1B241F0030172
S315080095808EF8031000930E9B013B444A4FEA4C1099
S3150800959002EB4C11165A63F30E1616520A9B8B6091
S315080095A00B9B4B60CB789DF83C2062F38303CB7012
S315080095B0012D36D0109B002B56D0374A4FEA0C1196
S315080095C002EB0C1310985050119A5A6000249C60B4
S315080095D05D7372466946604602F0C8FA204605B0D1
S315080095E0F0BD0C9A002AA0D12D48F8E72B4F4FEA78
S315080095F04C1607EB4C120020B85150609060D060B2
S31508009600907840F010009070D07840F00300D07049
S315080096100029B7D107EB4C12C1B241F03001D17025
S31508009620B0E70E460A7B42F001020A73D2B242F054
S3150800963002020A73CA68042161F39F02F26006F106
S31508009640100796E80F0087E80F00F2696FF003012C
S3150800965061F39F02F2610C9B7361012CAAD10B9AEC
S31508009660B2610C9A7260A5E7002DA6D10B4B03EBED
S315080096704C139A786FF304129A709EE70948AEE77E
S315080096800748ACE70648AAE70548A8E70448A6E756
S315080096900548A4E7007700208075002000760020A2
S315080096A0018000F0028000F0078000F0134B1B7861
S315080096B0FBB110B50446F0B101F075FF0023072B86
S315080096C013DC0F4A02EB0312127B0AB10133F6E7E9
S315080096D023600B4A190102EB031301241C730024AF
S315080096E0545001F066FF204602E001F062FF05488B
S315080096F010BD054870470548FAE700BF0077002007
S3150800970080750020048000F0028000F0018000F0DF
S3150800971000B583B0144B1B68019300238DF8043001
S3150800972001F041FF114B1B7833B9104B01221A7017
S3150800973001F03FFF002309E001F03BFF0C480FE072
S315080097400C4A02EB0312002111730133072BF7DDD4
S3150800975004238DF807300DEB030002F0D5F900203D
S3150800976003B05DF804FB00BF90660D080077002083
S31508009770038000F08075002000B589B084460E98F5
S3150800978007900D9806909DF8300005900B98049068
S315080097909DF82800039000200290019300920B4642
S315080097A062460121FFF7A2FE09B05DF804FB00003E
S315080097B00C4B1B7873B110B50C4607280CD869B149
S315080097C0094B03EB00131B7B53B102F019FA206017
S315080097D0002010BD054870470548FAE70448F8E731
S315080097E00448F6E70077002080750020028000F024
S315080097F0018000F0078000F0F8B5194B1F6D5B6D0E
S315080098001F4002D40125002402E0FEE701346D0062
S31508009810072C24D83D42F9D0124B1D652301124A64
S31508009820D358002BF2D002EB0416B1680131B160AF
S3150800983072682046984780F00100C0B2737B012BFE
S31508009840E4D10028E2D0094B03EB44131A7B6FF3EB
S3150800985041021A731A7F6FF341021A77D6E7F8BDE9
S315080098600000045000200450807500200076002077
S3150800987010B5044602E0202007E09047DCB194FAD0
S31508009880A4F00028F7D0B0FA80F00123834024EA38
S315080098900304094B03EB00135A68002AEED0064B63
S315080098A003EB00131B7B002BE7D0034B03EB0013E2
S315080098B099689047E2E710BD0477002008B519209B
S315080098C001F07AFE28B1084B4FF00072C3F88021E8
S315080098D01A601A2001F070FE28B1034B4FF080621F
S315080098E0C3F880211A6008BD00E100E038B50546D6
S315080098F00C4601F058FE044B03EB05135C6000228E
S315080099001A7301F056FE38BD04770020F8B50546EF
S315080099100F46164601F047FE05F0FC0C104BD3F82F
S3150800992024140023032B0CD8EC1804F0030444EA8F
S315080099300C0421FA04F212F0010F03D00133DBB252
S31508009940F0E7FF24FF2C06D0064B03EB04135F60F9
S315080099509E6001221A7301F02CFE2046F8BD00BF56
S3150800996000C003500477002008B5084BD3F8240438
S31508009970D3F82024104000F0553020F0502003F58D
S315080099800053C3F82004FFF773FF08BD00C0035057
S3150800999008B5084BD3F82404D3F82024104000F067
S315080099A0AA3020F0A02003F50053C3F82004FFF7DF
S315080099B05FFF08BD00C0035008B5034B1968034B89
S315080099C01868C8F007FE08BDE4000020E000002083
S315080099D0B0F1FF3F01D010B97047024870470248FE
S315080099E0704700BF21E000F024E000F0890800235A
S315080099F001E0043001338B4205D20268B2F1FF3F21
S31508009A00F7D00020704701207047704738B50446E4
S31508009A10CBF06EFEFFF7DCFF054650B9074B9B6897
S31508009A200A3303F01F03012199402046FFF7DEFFA2
S31508009A3008B1284638BD024DFBE700BF0080E00F9D
S31508009A400EE000F0F8B505460E4694002246CBF027
S31508009A5047FEFFF7BDFF074628B922463146284686
S31508009A60CAF095FC08B93846F8BD014FFBE700BFB8
S31508009A7010E000F008B50346084613F0030F02D1BC
S31508009A8011F0030F0AD092001946CAF090FC002084
S31508009A9008BD53F8041B40F8041B013A002AF8D104
S31508009AA0F5E7000010B582B0044601A802F0E8F90F
S31508009AB09DF8063023800122E2700020A070054B35
S31508009AC09B680A3303F01F0302FA03F3636002B0CC
S31508009AD010BD00BF0080E00F08B502F0BFF808BD52
S31508009AE008B502F0ABF8002008BD000008B501F083
S31508009AF053FD014B186008BD787C002008B5024B61
S31508009B00186801F04DFD08BD787C002070470000FC
S31508009B10024B4FF480321A67704700BF009000501E
S31508009B20324B984252D029D8314B984248D009D95D
S31508009B30304B984247D0304B98421DD12F4BD3F823
S31508009B40800070472E4B984237D005D92D4B984246
S31508009B5010D12A4B186F70472B4B984202D02B4BCB
S31508009B60984202D1254B986D7047294B9842F9D0F7
S31508009B70002070470020704700207047254B984208
S31508009B802CD00CD9244B98422CD003F5740303F53A
S31508009B90105398420FD1194BD3F8980070471F4BB2
S31508009BA0984217D01E4B984203D1144BD3F88C0019
S31508009BB070470020704700207047104B586E70475A
S31508009BC00E4B586F70470D4B986F70470B4BD3F879
S31508009BD084007047094BD3F888007047074BD3F8C1
S31508009BE090007047054BD3F8940070470048E80189
S31508009BF00024F400C0EA210180BA8C010080E00F3D
S31508009C00C0CF6A00405DC60080841E0000093D0082
S31508009C1040420F00007E56030090D00380D54302D1
S31508009C20006CDC0238B505460C460C4BD3F8803080
S31508009C3003F00303012B08D0022B0AD00023184691
S31508009C4005B1286004B1236038BD11F067F80E230A
S31508009C50F6E711F0B1F80723F2E700BF00800050DD
S31508009C6038B505460C46164BD3F8203103F00703E2
S31508009C70013B052B20D8DFE803F0030B130F171B56
S31508009C8011F040F8052305B1286004B1236038BDFA
S31508009C9011F074F80323F6E711F08EF80723F2E7BC
S31508009CA011F086F80223EEE711F02CF80623EAE70E
S31508009CB011F064F80423E6E700231846E3E700BF3B
S31508009CC00080005038B505460C46164BD3F82831A7
S31508009CD003F00703013B052B20D8DFE803F0031345
S31508009CE01B0F0B1711F00EF8052305B1286004B1F8
S31508009CF0236038BD11F006F80623F6E711F05CF884
S31508009D000723F2E711F03AF80323EEE711F036F8E5
S31508009D100423EAE711F04CF80223E6E70023184685
S31508009D20E3E700BF0080005070B582B006460D46D6
S31508009D3000230193104BD3F8804104F00304022C4E
S31508009D4016D0032C0FD0012C07D000240EB1019B8E
S31508009D50336005B12C6002B070BD002101A8FFF781
S31508009D607FFF1024F2E711F027F801900724EDE7AA
S31508009D7011F01EF80190E9E70080005030B583B075
S31508009D8005460C4600230193144BD3F8203203F002
S31508009D900703013B032B1ED8DFE803F0020E131856
S31508009DA0002101A8FFF78EFF12230DB1019A2A6040
S31508009DB004B1236003B030BD10F0FEFF0190072305
S31508009DC0F3E711F03DF801900A23EEE711F03EF8AB
S31508009DD001900923E9E70023E7E700BF0080005068
S31508009DE038B505460C460F4BD3F8403103F003034C
S31508009DF0022B0ED0032B10D0012B06D000231846B9
S31508009E0005B1286004B1236038BD11F019F80A239A
S31508009E10F6E711F01BF80923F2E711F014F80C2302
S31508009E20EEE700BF0080005030B583B005460C460B
S31508009E30002301934FF0E0231B6913F0040F0CD0A5
S31508009E4010F086FF01900D2300930DB1019B2B6046
S31508009E500CB1009B236003B030BD694601A8FFF72B
S31508009E60BFFFF2E730B583B005460C4600230193E1
S31508009E70144BD3F8603203F00703013B032B1FD8BA
S31508009E80DFE803F0020E1914002101A8FFF7E8FE27
S31508009E9010230DB1019A2A6004B1236003B030BDC6
S31508009EA0002101A8FFF79CFF1123F2E710F084FFB9
S31508009EB001900723EDE710F07BFF01900223E8E706
S31508009EC00023E6E70080005030B583B005460C460F
S31508009ED000230193144BD3F8943203F00703013B94
S31508009EE0032B1FD8DFE803F0020E1914002101A87E
S31508009EF0FFF7B6FE10230DB1019A2A6004B123605C
S31508009F0003B030BD002101A8FFF76AFF1123F2E76D
S31508009F1010F052FF01900723EDE710F049FF01907A
S31508009F200223E8E70023E6E70080005030B583B057
S31508009F3005460C46002301930C4BD3F8703203F008
S31508009F400303012B09D0022B0DD115230DB1019A5C
S31508009F502A6004B1236003B030BD002101A8FFF7D1
S31508009F603FFF1123F2E70023F0E700BF008000500F
S31508009F7038B505460C46124BD3F8003203F00703F2
S31508009F80013B032B18D8DFE803F0020A0E1210F083
S31508009F9057FF0A2305B1286004B1236038BD10F0C5
S31508009FA055FF0923F6E710F04EFF0C23F2E710F0F1
S31508009FB0CFFE800A0F23EDE700231846EAE700BF25
S31508009FC00080005038B505460C46124BD3F80832C7
S31508009FD003F00703013B032B18D8DFE803F0020A56
S31508009FE00E1210F02DFF0A2305B1286004B1236074
S31508009FF038BD10F02BFF0923F6E710F024FF0C23D9
S3150800A000F2E710F0A5FE800A0F23EDE700231846B5
S3150800A010EAE700BF0080005038B505460C460F4BEE
S3150800A020D3F8403203F00303022B0ED0032B10D0D3
S3150800A030012B06D00023184605B1286004B1236019
S3150800A04038BD10F0FDFE0A23F6E710F0FFFE0923DF
S3150800A050F2E710F0F8FE0C23EEE700BF0080005090
S3150800A06038B505460C460F4BD3F8603103F00303A9
S3150800A070022B0ED0032B10D0012B06D00023184636
S3150800A08005B1286004B1236038BD10F0D9FE0A2353
S3150800A090F6E710F0DBFE0923F2E710F0D4FE0C23F6
S3150800A0A0EEE700BF0080005038B505460C46104B59
S3150800A0B0D3F8000100F00300032815D8DFE800F004
S3150800A0C002080C10012305B1286004B1236038BDCD
S3150800A0D010F054FE0323F6E710F0B8FE0923F2E762
S3150800A0E010F064FE0823EEE700231846EBE700BFEE
S3150800A0F000800050B0F5207F20D00ED8B0F5007F44
S3150800A10016D020D810B1B0F5C07F04D10F4B186F08
S3150800A110C0F3033018E0002016E0B0F5607F05D1E3
S3150800A1200A4BD3F88000C0F301100DE000200BE0C5
S3150800A130064BD3F89000C0F3046005E0034B186F94
S3150800A140C0F3802000E000200130704700800050F6
S3150800A15038B505460C46174B4FF480329A660020F0
S3150800A160FFF7C8FF05FB00F0134BDA6902F48032EB
S3150800A17041F67131D9635B6823F440136CB90F4912
S3150800A180884207D800210B430B494B600AB10022CD
S3150800A190CA6338BD4FF48011F5E7002C07DD08497E
S3150800A1A0884201D80021EEE74FF48011EBE74FF41F
S3150800A1B04011E8E70090005000000350005A620280
S3150800A1C0002D310108B510F0D5FD0021FFF7C0FFBD
S3150800A1D008BD0000430905D0012B0ED0022B0ED076
S3150800A1E0002200E0002200F01F0051B102F5805263
S3150800A1F0012303FA00F010607047034AF3E7034AA5
S3150800A200F1E702F50052F3E76480005068800050D9
S3150800A21010B582B0002301930093B0F5807F00F259
S3150800A2200781B0F5807F00F27A81DFE810F04A01F5
S3150800A2307801780178017801780178017801780148
S3150800A2407801780178017801780178017801780138
S3150800A2507801780178017801780178017801780128
S3150800A26078017801780178017801780178014A0146
S3150800A2707B014A017B0151015101510151015101F3
S3150800A2807B0121013B01A201A7013B017B017B0167
S3150800A2907B017801780178017801780178017801E5
S3150800A2A078017B017B017B01B10168017B017801A3
S3150800A2B078017801780178017801780178017801C8
S3150800A2C0780178017801780151014A014A014A0169
S3150800A2D05D013B013B01AC017001930198017801D6
S3150800A2E078017801780178011201780178017801FE
S3150800A2F07801780178017801780178017801780188
S3150800A3007801780178017801780178017801780177
S3150800A3107801780178017801780178017801780167
S3150800A320780178017801780178017801780175015A
S3150800A3307801780178017801780178017801780147
S3150800A3407801780178017801780178017801780137
S3150800A3507801780178017801780178017801780127
S3150800A3607801780178017801780178017801780117
S3150800A3707801780178017801780178017801780107
S3150800A38078017801780178017801780178017801F7
S3150800A39078017801780178017801780178017801E7
S3150800A3A078017801780178017801780178017801D7
S3150800A3B078017801780178017801780178017801C7
S3150800A3C078017801780178017801780178017801B7
S3150800A3D078017801780178017801780178017801A7
S3150800A3E07801780178017801780178017801780197
S3150800A3F07801780178017801780178017801780187
S3150800A4007801780178017801780178017801780176
S3150800A4107801780178017801780178017801780166
S3150800A42078017801780178017801780178019D0131
S3150800A430B0F5C06F00F09D8010D9B0F5206F00F020
S3150800A440A2804AD9B0F5406F00F08980B0F5486F10
S3150800A4505AD1002101A8FFF737FD60E0B0F5607F0B
S3150800A4606BD00AD9B0F5A06F74D0B0F5B06F2CD107
S3150800A470002101A8FFF758FC51E0B0F5007F0AD18A
S3150800A48010F04CFC04464FF40070FFF733FEB4FBA3
S3150800A490F0F4019443E011D9B0F5207F42D0B0F52D
S3150800A4A0407F3CD110F054FC04464FF42070FFF76F
S3150800A4B021FEB4FBF0F46408019430E0B0F5C07FE7
S3150800A4C02DD110F045FC019029E0B0F5806F26D11A
S3150800A4D0002101A8FFF7C4FB21E0B0F5F06F57D0C3
S3150800A4E007D9B0F5106F1AD1002101A8FFF76AFD48
S3150800A4F015E0B0F5D06F41D0B0F5E06F0FD100216F
S3150800A50001A8FFF789FD0AE0B0F5286F07D10021F9
S3150800A51001A8FFF70BFD02E010F000FC019001987E
S3150800A52002B010BD10F014FC04464FF42070FFF77B
S3150800A530E1FDB4FBF0F40194F1E700216846FFF76A
S3150800A54071FB009C4FF46070FFF7D4FDB4FBF0F488
S3150800A5500194E4E7002101A8FFF710FCDFE70021DA
S3150800A56001A8FFF7AFFBDAE7002101A8FFF75CFCBB
S3150800A570D5E7002101A8FFF733FCD0E7002101A8A1
S3150800A580FFF7F6FCCBE7002101A8FFF76BFCC6E74F
S3150800A590002101A8FFF764FDC1E7000008B5802087
S3150800A5A0FFF736FE034B984203D8034B4FF480322D
S3150800A5B01A6708BD005A620200A0005000B583B0B1
S3150800A5C000230193B0F5807F00F04A8118D9B0F5D1
S3150800A5D0F06F00F04A8140F2DB80B0F5206F00F0A2
S3150800A5E0538140F20481B0F5406F00F04881B0F520
S3150800A5F0486F40F00C8101A90020FFF765FCDFE0F9
S3150800A600802800F2DD802428C0F0DA8024385C280F
S3150800A61000F2D68001A353F820F000BF57A800081F
S3150800A62057A8000857A8000857A8000857A8000800
S3150800A630C1A700084DA80008C1A70008E5A700089B
S3150800A64075A80008C1A70008C1A70008C1A7000887
S3150800A650C1A70008C1A70008C1A70008C1A700082C
S3150800A660C1A70008C1A70008C1A70008C1A700081C
S3150800A670C1A70008C1A70008C1A70008C1A700080C
S3150800A6806BA80008A5A70008C1A70008C1A700086D
S3150800A690C1A70008C1A70008C1A70008C1A70008EC
S3150800A6A0C1A70008C1A70008C1A70008C1A70008DC
S3150800A6B0C1A70008C1A70008C1A70008C1A70008CC
S3150800A6C057A80008C1A70008C1A70008C1A7000825
S3150800A6D005A80008C1A70008C1A7000889A800089E
S3150800A6E015A80008D5A700087FA80008C1A7000874
S3150800A6F0C1A70008C1A70008C1A70008C1A700088C
S3150800A700F7A50008C1A70008C1A70008C1A7000847
S3150800A710C1A70008C1A70008C1A70008C1A700086B
S3150800A720C1A70008C1A70008C1A70008C1A700085B
S3150800A730C1A70008C1A70008C1A70008C1A700084B
S3150800A740C1A70008C1A70008C1A70008C1A700083B
S3150800A750C1A70008C1A70008C1A70008C1A700082B
S3150800A760C1A70008C1A70008C1A70008C1A700081B
S3150800A770C1A70008C1A70008C1A70008C1A700080B
S3150800A780C1A70008C1A70008C1A700081FA800089C
S3150800A790B0F5B06F5AD00AD9B0F5D06F6AD0B0F517
S3150800A7A0E06F1CD101A90020FFF736FC08E0B0F5E0
S3150800A7B0607F04D101A90020FFF734FA00E003D234
S3150800A7C0019803B05DF804FBB0F5806F43D0B0F58F
S3150800A7D0A06FF5D101A90020FFF7D0FAF0E7B0F590
S3150800A7E0C06FEDD101A90020FFF7FAFAE8E7B0F546
S3150800A7F0086F04D101A90020FFF756FCE0E7B0F581
S3150800A800106FDDD101A90020FFF7DCFBD8E7B0F512
S3150800A810286FD5D101A90020FFF788FBD0E71D4B8B
S3150800A8201B6F03F00703013B032BC9D8DFE803F0CE
S3150800A8300B02050805230193C2E703230193BFE72B
S3150800A84008230193BCE702230193B9E701A9002075
S3150800A850FFF76AFAB4E701A90020FFF701FAAFE7A4
S3150800A86001A90020FFF7E0FAAAE701A90020FFF7EF
S3150800A870F7FBA5E701A90020FFF77AFBA0E701A9E6
S3150800A8800020FFF71FFA9BE701A90020FFF7EAFA65
S3150800A89096E700BF0080005008B5FFF78FFE09282D
S3150800A8A010D012D30A38012812D80C4B4FF4800264
S3150800A8B05A6603F5D8335B6A13F0010F0BD04FF4D1
S3150800A8C0FA7001E0064B188808BD4FF6FF70FBE7E3
S3150800A8D04FF6FF70F8E74FF6FF70F5E70090005067
S3150800A8E00601002038B504468020FFF767FE0328D6
S3150800A8F000F0A380594B4FF480125A66584B45F620
S3150800A9000E02C3F8802003F580524FF0A0619162D1
S3150800A91003F500534FF480329A62514B9B6D13F442
S3150800A920803FFAD1226863681B0543EA0263227BEB
S3150800A93043EA0243627B43EA0233A27B43EA821379
S3150800A940E27B1343464A1361936903F00043216986
S3150800A95043EA8163616943EA0163217E43EA01436D
S3150800A960617E43EA0123A17E0B439361136A23F0B8
S3150800A9700F03E269002A40D111460B43E17E43EA00
S3150800A98081031343364A1362E369002B37D1916A70
S3150800A990344B0B4094F8201043EA411394F82110E5
S3150800A9A043EA011394F8241043EAC10343F48033BD
S3150800A9B093622B4B9A6D2C4B9343FAD1284A02F596
S3150800A9C080514FF080738B62136923F47003A0687B
S3150800A9D043EA005313614FF000438B6194F8223029
S3150800A9E01BB9224B4FF080729A6294F82330EBB968
S3150800A9F01E4B4FF480329A6218E00821BDE7022BFD
S3150800AA001CD0174A916A174B0B4094F8201043EA5A
S3150800AA10411394F8221043EA016394F8241043EA98
S3150800AA20C10394F8231043EA0143936294F825304E
S3150800AA301BB10B4B0E4AC3F8802038BD084D0023C6
S3150800AA402B61AB6100F0A8FD6A6B82F4085303F42E
S3150800AA507F4353406B6300F0A3FDD2E7009000509C
S3150800AA600040005AC7FFFEFE030001000060005ABE
S3150800AA70F1A7FFFF014B93F900007047040100207E
S3150800AA8010B443784F2B28BF4F231A461C4B4FF45C
S3150800AA900001596603F5B8334FF4D151596203F5ED
S3150800AAA0805102244C6003F5005301215960154B6F
S3150800AAB01B6913F4803FFAD1037842EA0323114A4B
S3150800AAC05361416883681B0143EA0123017B43EA1A
S3150800AAD04103417B0B439360817BC37B1B0143EAA4
S3150800AAE04113017C43EA4103417C0B435360837C59
S3150800AAF01BB113466FF4D1525A625DF8044B704786
S3150800AB000090005000000250014B1880704700BFAB
S3150800AB100601002008B51B4B4FF480025A6603F560
S3150800AB20D83302225A60184B9B6813F4803FFAD137
S3150800AB30012806D0144B00225A62134B00225A6091
S3150800AB4008BD10F01BF9114B984212D003F51223D9
S3150800AB5003F5F863984210D000EB8002520A400AC7
S3150800AB600B4BB3FBF0F0084BDA62186301225A620A
S3150800AB70E3E745F67A10074AF5E745F61A00064A66
S3150800AB80F1E700BF009000500040025000F0490273
S3150800AB9064666666D8B80500BBCF050008B5002907
S3150800ABA003DD0121FFF7D4FA08BD0021FFF7D0FA2B
S3150800ABB0FAE70000B0F5207F5DD02DD8B0F5007F0C
S3150800ABC04ED061D810B1B0F5C07F24D110B54C1E57
S3150800ABD0FFF7F8FA00F060F8FEF79AFF2B4B196FAB
S3150800ABE021F4704141EA0431196710F0B1F8284B95
S3150800ABF0D3F8843013F0100FF9D1254BD3F884100D
S3150800AC00C1F38111C1F10201FFF7C8FF00F04CF84A
S3150800AC10FFF7C4FC10BD7047B0F5607F1FD11D4B10
S3150800AC20D3F8FC2012F0807206D01846D3F8FC3010
S3150800AC3023F08073C0F8FC3001391448D0F880300E
S3150800AC4023F0300343EA0111C0F88010E2B1114A3B
S3150800AC50D2F8FC3043F08073C2F8FC307047704776
S3150800AC6001390A4AD2F8903023F0F85343EA0161D1
S3150800AC70C2F8901070470139044A136F23F48063B1
S3150800AC8043EA812111677047704700BF0080005072
S3150800AC900040005000ED00E008B502214FF4207096
S3150800ACA0FFF788FF08BD000008B54FF4C070FFF72E
S3150800ACB0AFFA054B984205D902214FF42070FFF7E9
S3150800ACC079FF08BD0121F8E780F0FA0270B50C4655
S3150800ACD0B0F5807F00F02F8229D9B0F5F06F00F02B
S3150800ACE0938240F2EB80B0F5206F00F01A8340F2B1
S3150800ACF06081B0F5406F00F0EC82B0F5486F40F027
S3150800AD007E81023C0F2C00F22B83DFE814F0390316
S3150800AD1029032903290329033303290329032903BB
S3150800AD20290329032903290329033503370380281F
S3150800AD3000F20F812428C0F00C8124385C2800F228
S3150800AD40088101A353F820F0FBB00008FBB0000807
S3150800AD50FBB00008FBB00008FBB0000853AF0008C2
S3150800AD60D3B0000853AF00088DAF00083DB2000805
S3150800AD7053AF000853AF000853AF000853AF00089D
S3150800AD8053AF000853AF000853AF000853AF00088D
S3150800AD9053AF000853AF000853AF000853AF00087D
S3150800ADA053AF000853AF000853AF000809B20008B4
S3150800ADB0D5AE000853AF000853AF000853AF0008DC
S3150800ADC053AF000853AF000853AF000853AF00084D
S3150800ADD053AF000853AF000853AF000853AF00083D
S3150800ADE053AF000853AF000853AF0008FBB0000884
S3150800ADF053AF000853AF000853AF0008E5AF00088B
S3150800AE0053AF000853AF000823B3000805B0000885
S3150800AE1063AF0008D3B2000853AF000853AF000869
S3150800AE2053AF000853AF000853AF000803AD00083E
S3150800AE3053AF000853AF000853AF000853AF0008DC
S3150800AE4053AF000853AF000853AF000853AF0008CC
S3150800AE5053AF000853AF000853AF000853AF0008BC
S3150800AE6053AF000853AF000853AF000853AF0008AC
S3150800AE7053AF000853AF000853AF000853AF00089C
S3150800AE8053AF000853AF000853AF000853AF00088C
S3150800AE9053AF000853AF000853AF000853AF00087C
S3150800AEA053AF000853AF000853AF000853AF00086C
S3150800AEB053AF000853AF000825B00008B0F5B06FCF
S3150800AEC000F0078119D9B0F5D06F00F0B781B0F559
S3150800AED0E06F58D10B2C00F21A820A2C80F01B82E4
S3150800AEE0092C40F01A820222AD49D1F8403223F0EB
S3150800AEF003031343C1F840322BE0B0F5607F27D136
S3150800AF00A84BD3F8FC2012F0807206D01946D3F865
S3150800AF10FC3023F08073C1F8FC30072C00F0C381A5
S3150800AF200E2C00F0C281062C00F0BB8100209C4943
S3150800AF30D1F8803023F003030343C1F8803042B1CF
S3150800AF40984AD2F8FC3043F08073C2F8FC3000E02F
S3150800AF5000D270BDB0F5806F00F0CF80B0F5A06F5D
S3150800AF60F7D1073C0B2C00F2A281DFE814F0AA0106
S3150800AF70A001AE01AC01AC01A001A001A001A00195
S3150800AF80A001A001B001B0F5C06FE2D10B2C00F210
S3150800AF9031810A2C80F03281092C40F0318102225D
S3150800AFA07F49D1F8403123F003031343C1F84031F8
S3150800AFB0CFE7B0F5086F12D1082900F06E8109298C
S3150800AFC000F06D81032900F066810021744AD2F8E9
S3150800AFD0003123F003030B43C2F80031B9E7B0F59B
S3150800AFE0106FB6D1093C062C00F24381DFE814F055
S3150800AFF04301490149014501410141014701B0F5B4
S3150800B000286FA6D1112C00F0BD81152C40F0BC810B
S3150800B0100221634AD2F8703223F003030B43C2F8C5
S3150800B020703296E78B1E062B05D8DFE803F04C3AFC
S3150800B030044F0404490000252E460121022000F091
S3150800B0401DFBFFF7BFF8FFF727FEFEF761FD544A21
S3150800B050136F23F00703334313670FF079FE524B40
S3150800B060D3F8843013F0100FF9D14F4BD3F884106E
S3150800B070C1F38111C1F10201FFF790FD0121002002
S3150800B08000F042FBFFF710FEFFF788FA002D7FF469
S3150800B09060AF032C7FF45DAF444B4FF480329A6265
S3150800B0A057E7434B4FF480125A66424B9D6AC5F3E5
S3150800B0B0006503F580534FF480329A620E46BCE76A
S3150800B0C000250426B9E700250126B6E7002502264D
S3150800B0D0B3E7072C0DD0102C0DD0022C00D000247D
S3150800B0E02F4AD2F8803123F003031C43C2F880416B
S3150800B0F02FE70324F4E70124F2E7023C052C04D8E1
S3150800B100DFE804F009050D0F0B0700210AE002210C
S3150800B11008E0042106E0032104E0052102E00621F7
S3150800B12000E001211E4AD2F8203123F007030B4321
S3150800B130C2F820310DE7A1F10904082C3FF609AF42
S3150800B14001A353F824F000BF6DB100086DB10008E3
S3150800B15053AF00086DB10008C1B1000853AF00082D
S3150800B16053AF000853AF00086DB100080C4B596E79
S3150800B17003F580534FF480325A660F4A536A43F0F8
S3150800B1800103536211F4803F03D10C4B4FF4803214
S3150800B1905A664FF0E022136923F004031361D8E6D8
S3150800B1A00080005000ED00E0004000500060005AAA
S3150800B1B0009000500040005A00C0075000A0005000
S3150800B1C0724B596E03F580534FF480325A66704AB3
S3150800B1D0536A23F00103536211F4803F03D16D4B88
S3150800B1E04FF480325A664FF0E022136943F00403A5
S3150800B1F01361AEE60C2C05D10322D1E60122CFE677
S3150800B2000022CDE60022CBE60B2C0DD80A2C0FD255
S3150800B210092C0FD102225D49D1F8603123F00303CE
S3150800B2201343C1F8603194E60C2C05D10322F2E7EA
S3150800B2300122F0E70022EEE70022ECE7093C062CA3
S3150800B24005D8DFE804F0060C0C0804040A000021FF
S3150800B25006E0022104E0032102E0042100E00121C6
S3150800B2604A4AD2F8003223F007030B43C2F80032E9
S3150800B2706FE6002106E0022104E0032102E0042132
S3150800B28000E00121414AD2F8083223F007030B43B4
S3150800B290C2F808325DE6012198E6032196E6022106
S3150800B2A094E6032043E6022041E601203FE600211A
S3150800B2B0364AD2F8203223F007030B43C2F820326D
S3150800B2C047E60221F4E70321F2E70421F0E701212A
S3150800B2D0EEE7023C052C04D8DFE804F0090B0D0F55
S3150800B2E0050700210AE0052108E0042106E00321FC
S3150800B2F004E0022102E0062100E00121234AD2F8F7
S3150800B300283123F007030B43C2F8283121E60C2C19
S3150800B31005D10322E8E50122E6E50022E4E500225C
S3150800B320E2E5023C0F2C09D8DFE804F01808080803
S3150800B3300812080808080808080814160021134AFD
S3150800B340D2F8603223F007030B43C2F8603200E6F6
S3150800B3500421F4E70121F2E70221F0E70321EEE7F1
S3150800B36000210A4AD2F8943223F007030B43C2F8A5
S3150800B3709432EEE50421F4E70121F2E70221F0E731
S3150800B3800321EEE7012144E6002142E60080005051
S3150800B39000C0075000A000502DE9F8430646784B38
S3150800B3A04FF4C0225A6603F598335C6804F001042A
S3150800B3B003F5005301225A60724B5B6813F0020FC3
S3150800B3C0FAD13068704BD3F88430C3F3001513F004
S3150800B3D0100FF7D16C4BD3F88430C3F38113012BCC
S3150800B3E001D02B4606E0694B984200F2C1802B46F5
S3150800B3F000E00133182B0AD81A0165498A58904289
S3150800B400F7D301EB031252689042F2D800E000230A
S3150800B410192B00F0AF805E4A02EB0313D3F80890AD
S3150800B420D868002834D18020FFF7C8F8052836D018
S3150800B4304FF00008574BDF6817F00607FAD19A68ED
S3150800B440C3F8089009F4F8199B6803F4F8139945AA
S3150800B45047D0504B9A60002C63D00126494B03F520
S3150800B46000520721116103F5805301225A60454BAA
S3150800B4701C6914F00704FAD08020FFF79FF8052806
S3150800B48051D0002E78D1012C78D03046BDE8F8830B
S3150800B490FEF746FB00F07F0049EA0009C3E7FEF71E
S3150800B4A091FEFFF7F9FBFEF733FB4FF4C070FEF78A
S3150800B4B021FE0546012804D002280AD04FF00008CC
S3150800B4C0B8E702214FF4C070FFF774FB4FF001088C
S3150800B4D0B0E704214FF4C070FFF76CFB4FF001088A
S3150800B4E0A8E7B288F38843EA0243264AD360B168DC
S3150800B4F04FF40860FFF7EAFB337D83B10423727DBE
